:020000041000EA
:1000000000B5324B212058609868022188439860DF
:10001000D860186158612E4B002199600221596106
:100020000121F02299502B49196001219960352056
:1000300000F044F80222904214D00621196600F024
:1000400034F8196E01211966002018661A6600F04E
:100050002CF8196E196E196E052000F02FF8012189
:100060000842F9D1002199601B49196000215960AB
:100070001A491B48016001219960EB211966A021F2
:10008000196600F012F800219960164914480160C1
:100090000121996001BC002800D000471248134993
:1000A000086003C880F30888084703B5996A0420EC
:1000B0000142FBD001200142F8D103BD02B5186610
:1000C0001866FFF7F2FF186E186E02BD00000240BE
:1000D000000000180000070000035F00212200005C
:1000E000F4000018222000A00001001008ED00E03C
:1000F00000000000000000000000000074B24E7A12
:1001000000200420F7010010CB010010CD010010E9
:10011000C9010010C9010010C9010010C901001077
:10012000C9010010C9010010C9010010CF01001061
:10013000C9010010C9010010D1010010D301001045
:10014000C1010010C1010010C1010010C101001067
:10015000C1010010C1010010C1010010C101001057
:10016000C1010010C1010010C1010010C101001047
:10017000C1010010C1010010C1010010C101001037
:10018000C1010010C1010010C1010010C101001027
:10019000C1010010C1010010C1010010C101001017
:1001A000C1010010C1010010C1010010C101001007
:1001B000C1010010C1010010C1010010C1010010F7
:1001C000EFF30580103800BE00BE00BE00BE00BECA
:1001D00000BE00BEF2EB8871DCB20010FCB2001071
:1001E0003802001090A31AE71E481F49086006C88D
:1001F00081F3088810471D480068002801D019487D
:10020000F3E70DA40ECC002902D000F012F8F9E7B4
:100210001749184A002000E001C19142FCD116495B
:100220008847164988471649884700BEFDE701C937
:1002300001C29A42FBD37047FCB20010C0000020FC
:1002400078130020B4C50010000004200000042032
:10025000B4C50010001004200010042000000000AD
:10026000704700000000000008ED00E0000000D032
:1002700078130020FC23002065770010D5020010C1
:100280005D770010F8B5C04606480749091A8B107B
:10029000C90FC91810B5491003D0044B002B00D06A
:1002A000984710BD7813002078130020000000004C
:1002B000054B10B5002B03D00449054800E000BFF2
:1002C000FFF7E2FF10BDC046000000001022002032
:1002D000F4A80010F0B5DE4657464E464546E0B558
:1002E0008DB007F07DFBFA20800004F075FA05223E
:1002F000042164205E4B00F067F9041E08D0210041
:100300005C4807F07FFCFA20800004F065FAFAE709
:10031000594807F0F3FB0BAD062000F0D7F8290091
:1003200064202C8000F032F9011E50D0534807F0B1
:1003300069FC534807F0E2FB524807F0DFFB5248E4
:1003400007F0DCFB514807F0D9FB514B20259846BC
:100350000AAB9C1D4F4B002601934F4B4F4F9B46C2
:100360004F4B04934F4B07934F4B06934F4B99467C
:100370004F4B02934F4B03934F4B08934F4B0593B7
:100380004F4B09934F4B9A4607F02EFB20280BD07A
:10039000A843512821D057282BD0504607F0AEFB58
:1003A00007F022FB2028F3D100F0A4F8002833D076
:1003B000404607F0A3FB2000268000F09BF9011EB9
:1003C00033D0002848DD584607F01CFCDCE700234A
:1003D000E95E3D4807F016FCABE700F09DF8011E12
:1003E00028D100F087F800283AD0079807F086FB5C
:1003F000CAE700F07FF8002820D0029807F07EFBC3
:100400002000268000F098F8011E20D000282BDD67
:10041000059807F0F7FBB7E7380007F06FFB2000FF
:10042000268000F067F9011ECBD12188019807F0E2
:10043000E9FBA9E7484607F0E5FBA5E7039807F0C5
:100440005DFB2000268000F077F8011EDED12188B8
:10045000089807F0D7FB97E7049807F0D3FB93E7DA
:10046000069807F04BFB8FE7099807F0CBFB8BE76B
:1004700068130020F8A8001010A9001044A900106B
:100480005CA9001068A9001094A90010C8A9001068
:10049000F0A9001034AA001050AA001010AA0010F1
:1004A00070AA001090AA0010B4AA0010DCAA0010D4
:1004B000F4AA001010AB001030AB001048AB0010D5
:1004C00064AB001080AB001020A9001010B5084CE0
:1004D000206003F07BFB01232068D02283401206BA
:1004E00093620121002203F05DFB002010BDC04695
:1004F000E00F0020074B1A68FF2A09D0D0231B0603
:10050000586801239340184043425841C0B2704795
:100510000020FCE7E00F002010B5054800F04EFF7A
:1005200003000020002B01D00248C01A10BDC046B5
:100530006C220020D4FEFFFF70B5050088B00028B3
:100540001ED01C22002101A805F080FC0E4E01A93E
:10055000300000F0E5FF041E04D0C8204042001B1C
:1005600008B070BD0021300001F0BEF86B46187F66
:10057000002803D19B8900202B80F1E72C80EFE736
:1005800001204042ECE7C0466C220020002310B559
:1005900082B00C0001AA01040948019302F030FE68
:1005A00000280AD1002C05D0FA210198890004F016
:1005B00097FD2080002002B010BD024B181AFAE708
:1005C0006C220020CAFEFFFFF0B5050083B00F00CB
:1005D0001600180000226B466C01641BA40064190D
:1005E000E1005A709A70DA7001920AF00BF8032158
:1005F000380003F0BDFA0321300003F0B9FA0022FD
:100600000121380003F0CEFA01210022300003F06E
:10061000C9FAC02329222F4C5B000A20E25404F0BF
:10062000DBF8200000F09EFA051E33D1200000F018
:1006300041FC051E25D16B4620005A1C01A901F082
:1006400085F8051E36D16B462000DA1C991C00F097
:100650003FFE051E26D10021200000F0A9FB051E4B
:1006600030D120001C4900F0B1FB04000020002C18
:100670000ED02100194807F0C5FA96204042001B11
:1006800006E02900164807F0BDFA6E204042401BE4
:1006900003B0F0BD2900134807F0B4FA64204042CB
:1006A000401BF5E72900104807F0ACFA82204042D1
:1006B000401BEDE729000D4807F0A4FA78204042DE
:1006C000401BE5E729000A4807F09CFA8C204042CD
:1006D000401BDDE76C220020E8800000F8AB001032
:1006E000C4AB0010B4AB0010E0AB0010D4AB0010F2
:1006F000ECAB001030B5040089B000281AD001AD71
:1007000000211C22280005F0A1FB29000B4800F065
:10071000A3FF00280AD12B7E002B04D100202B89B7
:10072000238009B030BD20801800FAE7C8235B425F
:10073000181AF6E701204042F3E7C0466C22002079
:10074000F0B583B06E4604005D1C080011001A006D
:100750000833DB08DB00F31A02AF9D4602AE3070AF
:100760000920684405F078FBC0235B00E15C0023AE
:100770003200009305482B0009F06CFFC04314239E
:10078000BD46C0171840143801B0F0BD68130020F2
:10079000F0B5C64615000F221E00C02300B584B078
:1007A0006A445B001170C15C98460E4F803BFF3B72
:1007B00004000093380009F04DFF00280FDB43468A
:1007C000E15C00232A0000933800330009F04CFF5D
:1007D000002804DB002004B080BCB846F0BD142023
:1007E0004042F8E768130020130000B585B003AA63
:1007F0005370C02311705B00C15C00230548009357
:10080000023309F027FFC0431423C01718401438DF
:1008100005B000BD68130020130000B585B003AA21
:1008200011709370190AC02351705B00C15C0023E2
:1008300005480093033309F00DFFC0431423C0178C
:100840001840143805B000BD68130020F0B515003D
:100850000F22C027012385B00D4E6A4411707F001E
:10086000C15D04000093300009F0F4FE00280CDBA9
:100870000023E15D2A0000933000013309F0F4FE0B
:10088000002802DB002005B0F0BD14204042FAE74A
:1008900068130020F0B5C64615000B22C0270123BF
:1008A00000B584B0114E6A4411707F00C15D040030
:1008B0000093300009F0CEFE03AB9846002812DB0F
:1008C0000023E15D424600933000023309F0CCFE84
:1008D000002808DB002043461B885BBA2B8004B04D
:1008E00080BCB846F0BD14204042F4E768130020F5
:1008F000F0B515000B22C027012385B00F4E6A44C6
:1009000011707F00C15D04000093300009F0A2FE69
:1009100000280FDB0023E15D3000009303AA0433BD
:1009200009F0A2FE002805DB0020039B1BBA2B6008
:1009300005B0F0BD14204042F7E7C0466813002020
:10094000F0B54E4645465746DE469946224BE0B541
:10095000C0279846012387B005AD039229707F0018
:1009600004000E002A00C15D4046009309F072FEAB
:1009700000282EDB02AA94460B2363449A460023E8
:10098000E15D9B46009352464046013309F06CFE00
:1009900000281EDB5346039A1B782E7013404A46EC
:1009A0001A43130052466B7013705B46E15D2A00D8
:1009B00000934046023309F04DFEC0431423C01794
:1009C0001840143807B0F0BCBB46B246A946A04652
:1009D000F0BD14204042F5E76813002010B5052053
:1009E00003F0FAFE002010BD10B502F083FC10BD2C
:1009F000F0B5DE464E4645465746E0B5037A83B02D
:100A00000B706B460E009A1CF8210500FFF742FFA1
:100A1000041E07D0200003B0F0BCBB46B246A94676
:100A2000A046F0BD01AB1A00042128009846FFF74C
:100A30005FFF041EEED16B465988002960D1B06873
:100A4000002328614246202128003373FFF722FF4C
:100A5000041EDFD143461B88002B56D1AB6933619E
:100A60000023310028002B75143102F069FC041EAC
:100A7000D0D1202224239346083A99469246002753
:100A8000EB6AB144AB44B2444A4608C25B46914665
:100A90005246DB5DD3550137062F3BD0032F10D0D4
:100AA00004DC012F0FD002276B6BEDE74246642177
:100AB0002800FFF7EFFE041EACD143461B885B0203
:100AC000E2E7AB6BE0E7424644212800FFF7E2FE95
:100AD000041E9FD143461B885A02002B0CD12B6B5E
:100AE000B36200232122AB545B4652465B785370BD
:100AF00004239C46E144D6E7B26201232A63F1E76E
:100B0000019804F015FBB0609AE7DB003361AB613C
:100B10000123A6E7424601212800FFF797FE041EA5
:100B200000D077E74346AE221B785200AB54DB0976
:100B3000E83AB35408322800AB54311D01F0E8FD07
:100B4000041E00D066E7290030001C2244313C30EE
:100B500009F094FD290030001C226031583009F062
:100B60008DFD57E7F0B5CE46474680B50022A1B0CF
:100B700088210500FFF738FE8E220023FA2152005B
:100B8000AB5489006232A95280497E3A02AEA95024
:100B900028003100AB61FFF72BFF041E28D19623FC
:100BA000DB04B3657A4B308033647A4BF063F365D2
:100BB00080239B027364E1239B043366764B2800F9
:100BC000B364764B78227366754B3100F364754BD2
:100BD0000830B366A0231B033365FA235B04F36676
:100BE000F0231B037365C8235B04336705F034F9F6
:100BF000B0236D4A5B00EA50FA2204335200EA52F5
:100C0000A02204331201EA5201221433EA54802153
:100C10002800FFF7E9FD01220600FF212800FFF769
:100C2000E3FD0022064300212800FFF7DDFD6B46AF
:100C3000344364B2DE1D3200912104432800FFF7E3
:100C400005FEB32332785B0064B2EA54002101222E
:100C500004432800FFF7C8FD64B20022FF210443CB
:100C60002800FFF7C1FD64B2044300228021280060
:100C7000FFF7BAFD2E0064B2204340B22C360028A4
:100C800014D1202399461F3B00249846474FA9447E
:100C9000A3B2052B33D89B00FB589F460023EF22BD
:100CA00060212800FFF74CFE00282CD021B0C0BCEA
:100CB000B946B046F0BD0023FE2260212800FFF7B0
:100CC0003FFE0028F2D12B00012220331A550436B2
:100CD0000134DDE723230122EA544B464246043621
:100CE0001A550134D4E722230122EA54F5E7326889
:100CF0004421520A280092B2FFF78EFDE1E720233B
:100D00000122EA54E9E72B00012220335A716021C5
:100D1000688402232800FD320024FFF711FE00281A
:100D2000C4D12423EF22EC5460212800143BFFF7A8
:100D300007FE0028BAD12523EC5490235B03EB6215
:100D40002123EB5C002B19D18023DB012B638C2347
:100D50009B036B630023FF22AB635D33FF33EA54D5
:100D600001212800FFF740FDAF2301225B00EA5478
:100D700000289BD14223FF33E85497E720224421E7
:100D80002800FFF749FD0028DED08FE7A470090096
:100D900033B3000000004C04CCCC03000000EE0292
:100DA000CC4C070000002602640084037CAD0010D8
:100DB000152906D8044BCB40DB0702D50172002071
:100DC000704708204042FBE70B00300010B501F0EF
:100DD000C5FB10BD10B501F0A1FB10BDF0B583B08F
:100DE000002317006A460D00D37101210732060067
:100DF000FFF72CFD041E1CD16B46DB79012F1BD0A5
:100E0000042D50D8294AAD00525997467F251D40E0
:100E10005BB2002B0DDA2A0001213000FFF7E4FC61
:100E2000041E06D1AE235B00F5543000F16801F0DA
:100E300095FB200003B0F0BD042D34D81C4AAD0052
:100E40005259974640221D0095431A42E3D1F0E7DC
:100E500004221D0095431A42DDD1EAE728221D0035
:100E600095431A42D7D1E4E710221D0095431A4258
:100E7000D1D1DEE740251D43AB42CCD1D9E70425D3
:100E80001D43AB42C7D1D4E728251D43AB42C2D195
:100E9000CFE710251D43AB42BDD1CAE780251D43D6
:100EA000AB42B8D1C5E704246442C2E794AD001058
:100EB000A8AD0010F0B5C64600B5A2B00500782276
:100EC000002104A804F0C2FF002300226946280084
:100ED000CB80CA700A710121029300F027FDA02384
:100EE0005B00EA5C012A06D84023FF33E95C012A53
:100EF00051D00C2951D9280001AA02A902F0DCFB2B
:100F0000002840D1BE235B00EB5C002B3FD07A4928
:100F1000280001F0D9FC002835D104220A2128003C
:100F2000FFF762FC00282ED10023EF228421280045
:100F3000FFF706FD002826D1832304225B00EA5434
:100F4000FF3B0026984603AF01220B212800FFF744
:100F50004BFC002204000B212800FFF745FC3A005F
:100F6000044313212800FFF771FC424664B23B782A
:100F70002043013640B2F6B21A4212D0032E00D1FD
:100F8000B6E00028E0D022B080BCB846F0BD79338E
:100F9000FF33E958BCE72029ADD8280002F022FA37
:100FA000AEE7032E00D1A3E00028ECD10122FF21FF
:100FB0002800FFF719FC6B4604009A1D84212800C5
:100FC000FFF768FC00220443FF212800FFF70CFC18
:100FD00064B2204340B20028D5D16B468022DB8822
:100FE00052001B012800AB5004A9FFF701FD0028A7
:100FF000C9D16B4609212800DA1CFFF727FC00281D
:10100000C1D16B46DA78012313406A46D3705E2261
:101010002800FF32AB5404A9E53A083004F01CFF65
:101020006B4601212800DA1CFFF710FC0028AAD12A
:101030006B46DA78AE235B00EA5438703A0001213F
:101040002800FFF703FC00289DD110233C781C42A8
:101050000FD09C43220001212800FFF7C5FB002888
:1010600000D090E7AE235B00EC542800E96801F063
:1010700075FA002202212800FFF7B0FE002800D0F8
:1010800081E7AF2303265B00EE546B465C1D010035
:101090002200280001F042FA002800D073E78A23DA
:1010A00022785B00EA5401212200280001F036FA80
:1010B000002800D067E7862322785B00EA543100DD
:1010C0003A00280001F05CF9002800D05BE7882393
:1010D000039A5B00EA5004213A00280001F050F91D
:1010E000002800D04FE78423039A5B00EA504AE7C8
:1010F0000C20404247E7C0469C11002030B583B029
:10110000150000236A460C00D37101210732FFF756
:101110009DFB002801D003B030BD6B46DB79042C69
:1011200016D80D4AA400125997465B06DB0F2B70A8
:10113000F1E75B07DB0F2B70EDE71B07DB0F2B7075
:10114000E9E7DB06DB0F2B70E5E7DB092B70E2E755
:10115000287004204042DEE7BCAD001010B582B01C
:101160006A4600230C00D37101210732FFF76EFBA2
:10117000002810D16B460122DB7919111140217032
:10118000D9101140A17099101140617099110A4055
:10119000DB09E270237102B010BDC046037D002060
:1011A0000B707047F8B505000C00160005293FD8F4
:1011B000002A0CD08B000021C318DA6A8C46002369
:1011C0000127052C31D81C48A10041588F46022226
:1011D0000027944610230022F3E7EF226021280025
:1011E000FFF7AEFB002805D1002E0FD12C192034BB
:1011F00026700020F8BD6346FE2260212800FFF71C
:101200009FFBEFE72323EF54002EEFD001232D198E
:1012100020352B70EDE72223EF54E5E7520A4421F5
:10122000280092B2FFF7F8FADCE72023EF54DBE75F
:1012300004204042DEE7C046D0AD0010052905D8A5
:1012400040182030037800201370704704200023DA
:101250004042F9E770B50400150082B0052931D885
:101260001A4B89005B589F466B4664219A1DFFF715
:1012700011FB002804D16B46DB885B022B60002049
:1012800002B070BDC36A2B60F9E7436B2B60F6E7D1
:10129000836B2B60F3E76B469E1D32004421FFF702
:1012A000F9FA0028ECD133885A02002B04D1236BC1
:1012B0002B602123E254E2E72A60212322630122EA
:1012C000E254DCE704204042DAE7C046E8AD001013
:1012D00010B5012302F060F910BDC046832370B53C
:1012E0005B00C35C04000D0082B0022B24D0032BF2
:1012F0000CD00020012B07D16B460E2120009A1D37
:10130000FFF7C8FA002829D002B070BD6B460E2145
:101310009A1DFFF7BFFA0028F6D16B460C2120007A
:101320009A1DFFF7B7FA0028EED1002D25D0200036
:10133000204901F0C9FAE7E76B460E219A1DFFF735
:10134000A9FA0028E0D16B460C219A1D2000FFF776
:10135000A1FA6B46DB881B05D6D0E4E76B460C216F
:10136000DE889A1D2000FFF795FA134B76041E4085
:10137000FF231B049E42C7D9D5E70422FF2120008A
:10138000FFF732FA0022050070212000FFF72CFA47
:101390000022FF2105432000FFF726FA6DB2054326
:1013A000002280212000FFF71FFA6DB2284340B2CF
:1013B000AAE7C046E40F00200000FE1FF0B5C646B5
:1013C000040000B5012282B08021057AFFF70CFAF3
:1013D0000122FF212000FFF707FA00220021200050
:1013E000FFF702FAB3235B00E25C91212000FFF7D4
:1013F000FBF9012200212000FFF7F6F90022FF216E
:101400002000FFF7F1F9002280212000FFF7ECF91E
:10141000012D34D0032D24D0002D3ED101220021F6
:101420002000FFF7E1F96B46DE1D01233370002831
:1014300013D1FA23DB000125012798463200002151
:101440002000FFF703FA337801351F4232D000281D
:1014500030D14545F2D10720404202B080BCB846A9
:10146000F0BD002821D0042200212000FFF7BCF9A4
:101470000028F2D1AF2304225B00E254EDE70028FC
:101480000ED0022200212000FFF7AEF90028E4D19F
:10149000AF2304225B00E254DFE708204042DCE790
:1014A00001212000FFF71AFFEBE701212000FFF7E1
:1014B00015FFD8E7FA23DB009D42CED1CBE7C0462B
:1014C000832330B55B00C35C0C0083B0042B0ED0CB
:1014D0006B461421DA1DFFF7B9F9002805D16A46D9
:1014E0000123D279134213D0237003B030BD6B4671
:1014F000DD1D2A001321FFF7A9F9072318212A78F7
:101500001340114209D1042B04D000232370ECE7CF
:101510002070EAE7033B2370E7E706204042F2E74A
:10152000F0B5DE46574645464E46E0B591B006AFAB
:101530000C230C003A0014210500FFF729F9031EC3
:1015400077D163603B89FA215BBA9BB25B0223616E
:101550007B88FE885BBA9AB2A3823B789046994614
:10156000BF235E2276BAB6B27602A0752060E6602E
:1015700078895B00EB5A40BAFF32AF5C80B28900D9
:101580008B4214D05843F530FF3003F0A9FD2B7D7A
:10159000002B0BD04346298B59430912B1424FD03F
:1015A0000004000C7043711A03F0C2FD80B2002FDA
:1015B00002D08701FFB2800802ABE7759C460F2777
:1015C0006744208143463200494628000197009431
:1015D00001F008FC00282CD109AA93462A0059469C
:1015E0003B78803203932376C8CAC8C1C8CAC8C131
:1015F000176880350F60E668A768B1462669BA4665
:10160000B046A68AE77DB4465E466468039B746074
:1016100054460B944C460C9444460D9464463376E1
:101620005B46B482F775D0CBD0C5D0CBD0C50B68A4
:10163000136011B0F0BCBB46B246A946A046F0BD4F
:10164000002F02D000270248B6E70248B4E7C046A0
:10165000AE080000E08A0000F0B5C646002300B5E1
:1016600082B0037205000C00FFF7A8FE00280ED11F
:10167000280000F03DF9002809D1AF2303225B00C8
:1016800021002800EA54FFF74BFF002803D002B0E6
:1016900080BCB846F0BD6B46DF1D07230026984688
:1016A00001220B212800FFF79FF8002204000B21E4
:1016B0002800FFF799F83A00044313212800FFF7A8
:1016C000C5F8424664B23B782043013640B2F6B2D8
:1016D0001A4204D0032E04D00028E1D0D7E7032E0D
:1016E000D5D10C204042D2E7F0B5C64600B582B055
:1016F0006B46DF1D072306000025984601220B21BB
:101700003000FFF771F8002204000B213000FFF7D2
:101710006BF83A00044313213000FFF797F8424674
:1017200064B23B782043013540B2EDB21A4207D093
:10173000032D07D00028E1D002B080BCB846F0BD30
:10174000032DF9D10C204042F6E7C04610B501F058
:10175000B3FF10BDF0B5CE46474680B50500160074
:1017600085B0032960D0042900D0BCE002AC210080
:10177000FFF7F4FCE378002B46D105236B440027E8
:101780009846424601212800FFF724FB041E45D15C
:1017900043461A78FA2153019B1A5B019B181A01E0
:1017A000D31AFA22520090461B029844C9004046C0
:1017B00003F0BEFCFA217401A41BA400A419E400E8
:1017C00024188900404603F0B3FC0100200003F018
:1017D000AFFCC019002200280CD001380023FF28DC
:1017E00006D9013340089BB2FF28FAD81B029BB2EE
:1017F0001B189AB271212800FFF70EF8041E0DD1B4
:1018000084235B00EE5009E005236B441A0000219D
:1018100028009846FFF7DEFA041E53D0200005B0DA
:10182000C0BCB946B046F0BD05236B4498461A00CB
:101830000021FFF7CFFA43461A78FA2153019B1A89
:101840005B019B181A01D31AFA22520091461B021F
:10185000994473019B1B9B009B19DB00C900070087
:1018600004004846984603F063FCFA21804489004E
:10187000484603F05DFC0100404603F059FC0004BB
:101880000022010C00280CD00139FF292ED9002399
:10189000013349089BB2FF29FAD81A0292B25218B2
:1018A00092B26B46DA8082235B00EA52002FB5D1F8
:1018B00051212800FEF7B0FF041EAFD188235B0042
:1018C000EE50ABE76B46512128009A1DFEF7E2FF70
:1018D000041EA3D16B466A46DB8897791B0A9F409A
:1018E0000137BFB24DE70424644297E70022D6E7F0
:1018F00070B582B06B46FA24DE1D002305003370FC
:10190000E40008E03378012B0BD0013C002C0AD016
:101910002800FFF763F831002800FFF7D1FD002809
:10192000F0D002B070BD07204042FAE7F0B545465E
:101930005746DE464E460023E0B595B00B930C9318
:101940001D33FF33C35C05000F009846072B07D1FA
:10195000002015B0F0BCBB46B246A946A046F0BD7B
:1019600001228021FEF740FF01220400FF21280010
:10197000FEF73AFF0022002104432800FEF734FF5F
:1019800064B20622FF2104432800FEF72DFF64B253
:101990008321044309AA2800FEF758FF08AB1A79EF
:1019A000042364B21A43832104432800FEF71CFF7A
:1019B00064B20722FF2104432800FEF715FF64B23A
:1019C0000122812104432800FEF70EFF64B2044384
:1019D0002800FFF703F864B20122044380212800A5
:1019E000FEF702FF01231A0064B204433A4064B2D6
:1019F00002923B4203D04246134200D174E20023DC
:101A00000593049302231A003A4001923B4203D00B
:101A10004246134200D19DE004231A003A4000924E
:101A20003B4203D04246134200D115E30023002677
:101A30009B46002281212800FEF7D6FE0622FF21C8
:101A400004432800FEF7D0FE64B28321044309AAB0
:101A50002800FEF7FBFE08AB1A79042364B29A4310
:101A6000832104432800FEF7BFFE64B20122FF2158
:101A700004432800FEF7B8FE64B2012200210443AB
:101A80002800FEF7B1FE64B20022FF2104432800C3
:101A9000FEF7AAFE64B20443002280212800FEF76C
:101AA000A3FE64B2204340B2002800D051E7029B5D
:101AB000002B02D04346DB072CD5019B002B02D024
:101AC00043469B0735D5009B002B1DD043465B0743
:101AD0001AD4A2230B9A5B00EA500C9A0433EA5002
:101AE0005B46A6225B025200AB500023002E0AD0B8
:101AF000DF4B9C46664473019B1B9B009B19DB00DC
:101B00001B095B421BB26B6043468E223B43520073
:101B1000AB541DE740232800049AFF33EA54059A8A
:101B200001335730EA540DA90622FF3004F094F92E
:101B3000C3E708AB5A791E23FF33EA5408AB9A79FE
:101B400028008F2320305B00EA540FA9FF3008F0F3
:101B500015FEB8E7022294212800FEF745FE204337
:101B600043B20022832128009946FEF73DFE0FAEC6
:101B7000041E15D100239A46FA23DB009B465446E7
:101B800003E001345C4500D1DEE33200832128000C
:101B9000FEF75CFE33780343DBB2002BF1D0040088
:101BA000012283212800FEF71FFE4B4623431C0021
:101BB00008AB5A1D902104432800FEF747FE64B28B
:101BC0007B22942104432800FEF70EFE64B20443F6
:101BD00063B20022832128009946FEF705FE041E09
:101BE00015D100239A46FA23DB009B46544603E0B6
:101BF00001345C4500D1B2E3320083212800FEF7B6
:101C000025FE33780343DBB2002BF1D00400012220
:101C100083212800FEF7E8FD4B4623431C0008AB58
:101C20009A1D902104432800FEF710FE64B277222B
:101C3000942104432800FEF7D7FD64B2044363B245
:101C40000022832128009946FEF7CEFD041E15D1FF
:101C500000239A46FA23DB009B46544603E00134F6
:101C60005C4500D159E3320083212800FEF7EEFDE8
:101C700033780343DBB2002BF1D00400012283212F
:101C80002800FEF7B1FD4B4623431C000AAB1A00A7
:101C90009021044328000393FEF72AFE7F210A9B2C
:101CA00064B20443980C084000025A0E0243914665
:101CB000D80A08400204484692466E4A64B2104070
:101CC0000200504602431809014012020906120A96
:101CD0000A430F927822DB00134008AA1371942163
:101CE00078222800FEF780FD044363B2002283219E
:101CF00028000093FEF778FD814600281BD108AB31
:101D0000DC1DFA23DB009B4633002E009A4625009B
:101D1000040003E001345C4500D11BE32A00832169
:101D20003000FEF793FD2B780343DBB2002BF1D09C
:101D3000350081465646012283212800FEF754FDD6
:101D40004B46009C90211C43039A04432800FEF755
:101D5000CFFD64B2044363B2994608AA0A9B127984
:101D6000590F89187F22980D10400002DC0BC9B270
:101D700014400143180A2404104000062143014383
:101D8000109159080A40327240229B01134008AA60
:101D90001371942179222800FEF726FD4C46044356
:101DA00063B20022832128000093FEF71DFD8146C7
:101DB00000281BD108ABDC1DFA23DB009B46330057
:101DC0002E009A462500040003E001345C4500D152
:101DD000B2E22A0083213000FEF738FD2B7803435E
:101DE000DBB2002BF1D0350081465646012283211B
:101DF0002800FEF7F9FC4B46009C90211C43039AF7
:101E000004432800FEF774FD0A9B08A909799A0E7D
:101E1000521872727F22D90C1140B172190B114005
:101E2000F17259090A4032737C229B00134064B25C
:101E300008AA137194217A2204432800FEF7D4FCE7
:101E400064B2044363B20022832128000093FEF7AA
:101E5000CBFC8146002820D108ABDC1DFA23DB0037
:101E60009B4633002E009A462500040008E0C04639
:101E700000E7FFFFFFFF00FF01345C4500D174E283
:101E80002A0083213000FEF7E1FC2B780343DBB20C
:101E9000002BF1D0350081465646012283212800CF
:101EA000FEF7A2FC4B46009C90211C43039A04437E
:101EB0002800FEF71DFD0A9A08A90979930F5B18FF
:101EC0007F217373D30D0B40B373130C0B40F3736B
:101ED000530A0B40337493080B407374002364B2AD
:101EE000044364B2B37497E56B2294212800FEF793
:101EF0007BFC204343B20022832128009946FEF751
:101F000073FC041E16D100239A46FA23DB009B467D
:101F100054460FAE03E001345C4500D117E23200B5
:101F200083212800FEF792FC33780343DBB2002BB9
:101F3000F1D00400012283212800FEF755FC4B4616
:101F400023431C000AAB1A0090210443280003938A
:101F5000FEF7CEFC0A9B64B25A04520E1B04DB0F40
:101F6000942104430492280024220593FEF73CFCAC
:101F700064B2044363B20022832128009946FEF72D
:101F800033FC041E16D100239A46FA23DB009B463D
:101F900054460FAE03E001345C4500D1C3E132008A
:101FA00083212800FEF752FC33780343DBB2002B79
:101FB000F1D00400012283212800FEF715FC4B46D6
:101FC00023431C009021039A04432800FEF790FC51
:101FD0000A9B64B21BBA25229421044328000D9366
:101FE000FEF702FC64B2044363B20022832128009E
:101FF0009946FEF7F9FB041E16D100239A46FA23F0
:10200000DB009B4654460FAE03E001345C4500D133
:10201000A8E1320083212800FEF718FC337803433F
:10202000DBB2002BF1D00400012283212800FEF74F
:10203000DBFB4B4623431C009021039A04432800FA
:10204000FEF756FC0A9B64B20DAA190E04431B0C42
:1020500064B211715371D5E47B2294212800FEF7FC
:10206000C3FB204343B20022832128009946FEF798
:10207000BBFB061E17D100239A4608ABDC1DFA23D2
:10208000DB009B46564603E001365E4500D147E142
:10209000220083212800FEF7D9FB23780343DBB21B
:1020A000002BF1D00600012283212800FEF79CFBC3
:1020B0004B4633431E00902106430BAA2800FEF72F
:1020C00017FC76B27C22942106432800FEF78CFB95
:1020D00076B2064373B20022832128009946FEF7A8
:1020E00083FB061E17D100239A4608ABDC1DFA239A
:1020F000DB009B46564603E001365E4500D120E1F9
:10210000220083212800FEF7A1FB23780343DBB2E2
:10211000002BF1D00600012283212800FEF764FB8A
:102120004B4633431E00902106430CAA2800FEF7BD
:10213000DFFB76B27322942106432800FEF754FB9E
:1021400076B2064373B20022832128009946FEF737
:102150004BFB061E17D100239A4608ABDC1DFA2361
:10216000DB009B46564603E001365E4500D101E1A7
:10217000220083212800FEF769FB23780343DBB2AA
:10218000002BF1D00600012283212800FEF72CFB52
:102190004B4633431E000AAB1A0006439021280029
:1021A0000393FEF7A5FB0A9B74B21B061B0C74225B
:1021B0009421044328009B46FEF716FB64B20443B7
:1021C00063B20022832128000693FEF70DFB061E52
:1021D00017D10023994608ABDC1DFA23DB009A4691
:1021E0004E4603E00136564500D1A2E0220083218D
:1021F0002800FEF72BFB23780343DBB2002BF1D042
:102200000600012283212800FEF7EEFA069C9021A9
:102210003443039A04432800FEF76AFB5A460A9B9C
:1022200064B21B0E1A43942104439346280075227E
:10223000FEF7DAFA64B2044363B200228321280075
:102240000693FEF7D1FA061E17D10023994608AB74
:10225000DC1DFA23DB009A464E4603E00136564564
:1022600000D18AE0220083212800FEF7EFFA2378CC
:102270000343DBB2002BF1D00600012283212800AA
:10228000FEF7B2FA069C90213443039A04432800D7
:10229000FEF72EFB0A9B64B21B061B0C76229421D0
:1022A000044328000693FEF79FFA64B2044363B226
:1022B0000022832128000793FEF796FA061E16D106
:1022C0000023994608ABDC1DFA23DB009A464E46F4
:1022D00002E00136564529D0220083212800FEF76E
:1022E000B5FA23780343DBB2002BF2D006000122BB
:1022F00083212800FEF778FA079C90213443044399
:10230000039A2800FEF7F4FA0A9E069B64B204437F
:10231000360E64B21E43FFF78CFB07246442ADE423
:1023200007267642BFE60724644243E60726764244
:10233000DDE70726764264E7073B350099465646B7
:1023400054E507267642E6E60724644228E407249B
:102350006442EFE5073B350099465646EBE4072417
:10236000644254E4072464425EE6073B3500994624
:10237000564692E50726764205E7072676427CE731
:10238000F0B5CE46474680B585B0002315006A46B5
:102390000600D370938002290CD903294ED004295A
:1023A00028D0002000242860200005B0C0BCB94619
:1023B000B046F0BD971C3A000021FEF70BFD041E4D
:1023C00065D0FA213A78890053019B1A5B019B186A
:1023D0001801C01A0002F530FF3002F0A9FE6B466A
:1023E000DB7801335843FA21F5308900FF3002F0E1
:1023F0009FFED8E702AC2100FEF7B0FEE378002B89
:102400004DD06B469F1C3A0000213000FEF7E2FCE5
:102410000023041E984666D0FA213A7889005301B9
:102420009B1A5B019B181801C01A0002F530FF309F
:1024300002F07EFE434643431800D4E7971C3A005F
:102440000021FEF7C7FC04000020002CABD13A00AD
:1024500000213000FEF7BEFC041E57D06B466A46D2
:10246000FA219B8816793A781B0A9E4053019B1AE1
:102470005B019B181801C01A0002F530FF3089007B
:1024800002F056FE01363604360C7043ABE76B465D
:1024900046213000DA1CFEF7D9F9040091E7002349
:1024A00098466B469F1C3A0001213000FEF792FCD3
:1024B000041E04D04346584283B29846ACE7062334
:1024C0006B4499461A0071213000FEF7E3F94B4640
:1024D0001A881B78120A9340424601339B1A9BB21A
:1024E0000400984698E701AA51213000FEF7D2F97E
:1024F0006B469A881B79120A934001339BB2041EE3
:102500009846D0D05B429BB2984685E75121300077
:1025100001AAFEF7BFF90400A0E7C04630B51400D9
:1025200083B0002912D001290DD16B46DD1D2A0090
:102530007021FEF78BF9002803D12B7801335B0063
:10254000237003B030BD04204042FAE76B46DD1D26
:102550002A005021FEF77AF9EDE7C046F0B5D646DD
:102560004F464646C0B584B002AD0F0029000600B4
:10257000FEF7F4FD041E0ED1614B6A7898462B7865
:10258000B8441343AA7813430CD1EB78002B55D1F0
:102590002B79002B6BD1200004B0E0BCBA46B146C9
:1025A000A846F0BD06236B44187099466B4600217F
:1025B00030005A1DFEF70EFC002801D00400EAE7A7
:1025C0004A4646213000FEF741F96B46FA215A7916
:1025D000824653019B1A5B019B181801C01A000226
:1025E000F5308900FF3002F0A3FD4B46FA211B783D
:1025F000890001335843F530FF3002F099FD53460E
:10260000002B73D12B78002B06D03E4BC318984576
:102610002AD94246D31A9846AB78002B1ED16B7844
:10262000002BB2D0A5239B009C46604480451BD95B
:1026300043461B1A9846EB78002BA9D06A46002324
:102640000021D38030000532FEF7C4FB002817D0EC
:10265000A52304009B0098459DD805E02A4B9C4685
:10266000604440008045E3D80424644293E7274A4D
:10267000042130004244FFF76DF8F76004008AE758
:102680006B46002130005A1DFEF7A4FB824600284D
:102690002ED06B46DA889B79120A934001331B04D3
:1026A0001B0C99466B46FA215A79890053019B1AF3
:1026B0005B019B181801C01A0002F530FF3002F0D0
:1026C00037FD4B46FA215843F530FF30890002F0C0
:1026D0002FFDA5239B009C4660448045C4D95346EA
:1026E000002B03D143461B1A984651E7544652E744
:1026F0006B46512130009A1DFEF7CCF88246C8E7A0
:10270000CAF4FFFF4E020000B2020000DAFDFFFF34
:10271000F0B5CE46474680B5674B85B002AD0B603D
:102720000E0029000700FEF719FD041E0DD16A787E
:102730002B781343AA7813430DD1EB78002B5AD191
:102740002B79002B69D13368FB60200005B0C0BC39
:10275000B946B046F0BD01AB187098466B460021F3
:102760003800DA1CFEF736FB002801D00400ECE745
:10277000424646213800FEF769F86B46FA21DA78BE
:10278000814653019B1A5B019B181801C01A000275
:10279000F5308900FF3002F0CBFC4346FA211B786C
:1027A000890001335843F530FF3002F0C1FC4B463D
:1027B000002B77D12B78002B05D0404A3368944604
:1027C00063441B183360AB78002B0AD16B78002B65
:1027D000B3D0A52292009446336863441B1833603B
:1027E000ABE7374B9C463368604440001B183360AE
:1027F000EB78002BA4D06A46002300219380380098
:102800000332FEF7E7FA002818D0A522920094467A
:10281000336804006344336097E701AA0421380059
:10282000FFF7AEFD274A019B9446326863449B182C
:102830003360002800D187E7040086E76B4600215B
:102840003800DA1CFEF7C6FA814600282CD06B4609
:102850009A881B79120A934001331B041B0C98467B
:102860006B46FA21DA78890053019B1A5B019B18A9
:102870001801C01A0002F530FF3002F059FC43463F
:10288000FA215843F530FF30890002F051FCA522AF
:1028900092009446336863441B1833604B46002B08
:1028A00000D14DE74C4650E75121380001AAFDF711
:1028B000F1FF8146CBE7C046360B00004E02000018
:1028C000B202000026020000F0B5C64600B50D7841
:1028D00007000E0082B0002D1ED00024631CFF2DC7
:1028E00007D0042D1AD90420404202B080BCB8465B
:1028F000F0BDF35CA21C022B43D024D8002B32D0B5
:10290000B25C3319DB7812029B18B12252000434F6
:10291000BB52355D002DE1D10020E6E7F35C0234C7
:1029200098462A00311901A803F096FA64192B0081
:102930004146380001AAFDF703FF355D002DD4D0D4
:102940000028CBD0D1E7032BCDD1B25C3319DB7893
:1029500012029B18B42252000434BB52355D002D84
:10296000BCD10020C1E7B25C3319DB7812029B189E
:10297000B02252000434BB52355D002DAED1002090
:10298000B3E7B25C3319DB7812029B18B222520013
:102990000434BB52355D002DA0D10020A5E7C04610
:1029A000F0B5C64600B5ACB00EAD0C00290017005E
:1029B000FEF71EF8EB6B0600A34207D3AB6D3000A9
:1029C0001B0C3B602CB080BCB846F0BD6B6DA342C5
:1029D00030D9382268461DA903F03EFA019B9C427B
:1029E0002CD9029B9C422BD9039B9C4224D9049B4B
:1029F0009C4227D9059AA242924152420532930045
:102A0000EB18996B9300EB18DB6B98469300EB186F
:102A10005B6D4145D3D09200AD18AD6D581B434658
:102A2000591A090A02F084FB43461B1B1B0A434345
:102A30005B19C4E72B6FC2E70322E0E70122DEE760
:102A40000222DCE70422DAE7F0B55746DE464E46BE
:102A50004546E0B50B6989B09A4606AB8946CC6815
:102A6000D91D07009346FEF799FB002804D106AB59
:102A7000DB79002B00D085E106AB3800D91DFEF7CD
:102A80008DFB8046002834D1802212029446002219
:102A900063011B1B9B001B19DB0063441B0C009391
:102AA00006ABDB790192002B11D04B469A8ABB69A9
:102AB000534380331B0A5A01D21A9200D318DB0009
:102AC0001A000193C8239B039A4200D970E1862320
:102AD0005B00FA5C1300083B591E8B4102330293E2
:102AE000009B002B0DD1B54B5A461360B622520005
:102AF000BB50404609B0F0BCBB46B246A946A04612
:102B0000F0BD84235B00FB588034039353019B1A70
:102B10005B019B181A01D31A1B021A0088235B0061
:102B2000F958F5324D018C4605916D1AFA21FF32A4
:102B300004920433FA5CC90053019B1A5B019B1891
:102B40001E01F61A3602F536FF363000AD00654438
:102B500002F0EEFAFA21ED002D188900300002F0A3
:102B6000E7FA0100280002F0E3FA039BFA219C46F1
:102B70005D01ED1A0600C9000498AD00654402F03D
:102B8000D7FAFA21ED002D188900049802F0D0FA46
:102B90000100280002F0CCFAFA21029B3618734398
:102BA000D802F5308900FF3002F0C2FAFA21844BD6
:102BB00089005843F530FF3002F0BAFA5346240A30
:102BC00044435801C01A80005044C000000C0099D2
:102BD000000402F0ADFA7B4B8034984200D9DDE06E
:102BE00083001B181D01ED1AED00240A00D1D3E06B
:102BF00063001B199B0080241A00E405A408A3426B
:102C0000FCD30026A3197608934201D8D21A3619AC
:102C1000A408F7D14B461B7E7600002B00D0B9E00C
:102C2000FA2252009246009B67481B049A444B4686
:102C30001B896649584302F07BFA019B8146FA21C1
:102C4000580053468900181A02F072FAFA2103025A
:102C500089005046009302F06BFA0100009802F0E0
:102C600067FA80234A4600025B021B1A5A4313008C
:102C7000802212029A1880231B029C46520C624446
:102C80005243920B93009B189A009A185201624487
:102C9000120C524380231B02EB1880251B0C5B4354
:102CA0009B18ED05AB4202D2AD08AB42FCD32A190A
:102CB00064089A4201D89B1A6419AD08F7D1200420
:102CC0006421323002F034FA310002F031FA404B24
:102CD0005843404B9C46404B604498426AD83F4919
:102CE00002F026FA40430400059BFA219C46039E0D
:102CF000C9006644F536FF36300002F019FAC823E1
:102D00005B039946FA2181448900300002F010FAF1
:102D10000100484602F00CFA8023DB059B0898422C
:102D2000FCD3002B11D0002299185208814201D8FF
:102D3000401AD2189B08F7D1FA211002F530FF3063
:102D4000890002F0F5F9404324188023DB059C42FA
:102D500005D29B08A342FCD8002B00D1C4E6EA1898
:102D60006D08A24201D8A41AED189B08F7D16B0197
:102D70005B1B9B00114A5B19DB00934200D8B3E652
:102D80001300B1E64B469A8ABB69534380331B0A52
:102D9000E41871E6124A7DE7013429E71800830040
:102DA0001B181D01ED1AED00240A00D020E7F3E7FF
:102DB00001938CE6E124240696E7C046AE878F0295
:102DC00077060000666666009A9906005C120000AD
:102DD000B50B0000881300000F279F241027000068
:102DE00000C40900F0B557464E464546DE46E0B5FC
:102DF0008BB0984602AB9E1D0023019204AF02AA3D
:102E0000D3715372538133703B7009934906954BCC
:102E10000D0FEB4001221A40009200213200040005
:102E2000FEF70CFA33789A46002B5DD000283AD092
:102E30003B78002B61D100239A469B46002399469C
:102E400002AB01212000DA1DFEF7F8F9002823D19A
:102E500033785A42534152461A4313002622A35450
:102E60000123042D04D002ABDB795A425341DBB27B
:102E70002722A3543B7800205A4253415A461A4312
:102E800013002822A35402AB5B7A5A4253414A46AC
:102E90001A4313002922A3540BB0F0BCBB46B24620
:102EA000A946A046F0BD2000149905AAFFF7CCFD65
:102EB0000028BDD1149B2000196909AAFFF770FDF5
:102EC0000028B5D1099B149A00215381200006AA3D
:102ED000FEF7C0F90022069B9246002B04D0059A0B
:102EE00093429B415B429A4600280FD03B78002BCF
:102EF00009D000239B469946A2E700239A46002367
:102F00009B4699469CE700239B4697E73A0002219F
:102F10002000FEF793F93B789B46002B3CD000281D
:102F2000E7D10221200007AAFEF794F900280DD06E
:102F3000BA2202AB5B8952005B02A350079A002AB7
:102F4000E1D09A42924153429B4677E70122FF210A
:102F50002000FDF749FC0028EAD102AA94460A2382
:102F600063441A00B6212000FDF794FC0028DFD14D
:102F70000022FF212000FDF737FCBA22002102AB1E
:102F80005B8952005B02A350079A8B46002A03D04C
:102F90009A42924153429B46002800D04EE702AA33
:102FA0009446092363441A0003212000FEF746F9E2
:102FB00002AA527A9146002A16D0002800D03DE796
:102FC00043468146002B05D0019B4146180202F082
:102FD000AFF881460321200008AAFEF73BF9089BC1
:102FE00099459B415B429946002800D028E7009B09
:102FF000012B23D00A2D18D81B4AAB00D3589F466B
:103000000523159A0121137002AB2000DA1DFEF78B
:1030100015F9002800D03FE733785A425341524611
:103020001A4313002622A3541DE75B46012B09D146
:103030000323159A137003E70423E2E7159AFE337E
:103040001370FDE6042D09D04B46012B06D05346E4
:10305000CB46012BD5D0D346D146D2E70223159AD1
:103060001370EDE6A1F0000000AE0010F0B5574679
:103070004546DE464E46E0B587B01700119A0293EA
:103080000500129B002A00D172E000220192043256
:1030900090460432914608329246039500910724E7
:1030A000109BDD081C402F2B00D9A3E040239B463A
:1030B0003E3B2A009C462900BB5C914200D182E045
:1030C0000120184233D16046184200D08CE0022023
:1030D000002546461E422BD1E81C052D18D04E4631
:1030E0001E4225D1281D042D12D056461E421FD146
:1030F000681D032D0CD020261E4219D1A81D022DBB
:1031000006D05E461E4213D1012D01D0002B6DD199
:103110000132062AD0D1129B109A1A603220404206
:1031200007B0F0BCBB46B246A946A046F0BD0020A1
:10313000D20012181000B430304B80098000C35800
:103140000099581E83418B42E5D107240123144086
:10315000A3400299D0080C5C23430B54531C1093DA
:10316000019B119A01330193934298D1039D129BC5
:10317000109AB0211A6028000623029AFDF7E0FA9F
:103180000028CDD104AC06232200B0212800FDF791
:10319000FFFA029923780A789A42BFD14A78637875
:1031A0009A42BBD18A78A3789A42B7D1CA78E37899
:1031B0009A42B3D10A7923799A42AFD14A79637995
:1031C0009A42ADD0AAE7234101251800DBB228427C
:1031D0000ED1601C072C9BD065461D42A8D1A01CB7
:1031E000062C95D0250074E70120A1E707209FE772
:1031F00020009DE71A00129B1A608FE790120020B2
:10320000F0B54646D6464F46C0B504000D00160040
:1032100088B0002942D00021FDF7E6FB002805D048
:1032200008B0E0BCBA46B146A846F0BD6B460021E6
:103230002000DA1CFDF762FF0028F1D100220021F6
:103240002000FDF7CBFD0028EAD100220321200059
:10325000FDF7A8FF0028E3D1002399469A4601AB69
:10326000322798460EE043461B7E002B07D143468B
:103270001B8953449BB29A4601239C46E144013F7B
:10328000002F0ED041462000FEF7E6F90028EAD0D4
:103290004B46002BC4D106204042C1E704204042E7
:1032A000BEE74B46002BF6D080231B029C465346BC
:1032B00049461804654401F03BFF80231B02C318F4
:1032C0002D0C1B0CED1A6901491B89004919C90015
:1032D00031602000E161FDF787FB0028A0D16B463B
:1032E000DB78002B9CD0012200212000FDF776FD29
:1032F00096E7C0460F4B70B505000C00994205DCFF
:103300000D4B994208DA8022120100E00B4A280096
:103310002821FDF781FA70BDFA21200001F0E0FEBE
:10332000002C01DB82B2F2E780235B01C21892B26B
:10333000EDE7C04618CC07000030F8FFFC0700009E
:1033400010B582B06B460C009A1D2821FDF7A2FA39
:1033500000280BD16B46DA8813051B0D120507D523
:10336000054A9446FA2263445343236002B010BDD9
:10337000FA2253432360F9E700F0FFFFF0B5AE25D2
:103380000F0089B06D00C02201210400465DFDF7E9
:103390002BFA002801D009B0F0BD200001A9FEF7EA
:1033A0005BF90028F7D10122FF212000FDF71CFA6C
:1033B0000028F0D13A00B6212000FDF76BFA002872
:1033C000E9D10022FF212000FDF70EFA0028E2D10A
:1033D000320001212000FDF707FA0028DBD16655F5
:1033E000D9E7C046F0B50E00150087B00122FF21D5
:1033F0000400FDF7F9F9002835D0A82100222300A8
:1034000049006250513304316252FF330021002DD4
:1034100011D022488268002A0DD10027511C002FAC
:1034200009D12C2907D0B6329209920087580A0098
:10343000511C002FF5D005AA0292220057320091AC
:10344000200029000196FF32FFF710FE002808D166
:1034500042230122FF33E2544023FF33E654013379
:10346000E55407B0F0BD00224F212000FDF7BCF964
:103470000028C2D12C224E212000FDF7B5F90028EA
:10348000BBD10022FF212000FDF7AEF90028B4D106
:10349000B422B6212000FDF7A7F9AEE79012002074
:1034A000F0B5DE4657464E464546E0B583B09846F1
:1034B0000EAB1B780E009B460FAB1B78FF219A4684
:1034C0006B46DF1D0023914601223B700500FDF78E
:1034D0008BF90022040000212800FDF785F9002265
:1034E0000443FF212800FDF77FF964B204435B46E3
:1034F00064B2002E25D0002B31D15346002B38D199
:103500000122FF212800FDF76FF901220021044369
:103510002800FDF769F964B20022FF210443280066
:10352000FDF762F910223B7864B2934320430D9A71
:1035300040B2137003B0F0BCBB46B246A946A046E9
:10354000F0BD002B1DD15346002BD9D0434680221D
:10355000EE212800FDF7F4F9044364B2D0E7CB2153
:1035600028000C9AFDF772F95346044364B2002B0D
:10357000C6D03A00EE212800FDF768F9044364B292
:10358000BEE74A46CB212800FDF72EF953460443F7
:1035900064B2002BB4D0D9E7F0B54746CE4680B52B
:1035A0001F00AE235B00C35C87B0994600266B46C4
:1035B0008846150001210122DE750400FDF714F98B
:1035C000002806D043461E7007B0C0BCB946B046BE
:1035D000F0BD412200212000FDF706F9002803D0AC
:1035E000002342461370EFE72000FEF781F9002820
:1035F000F6D100212000FEF777F80028F0D1002254
:1036000000212000FDF7F0F80028E9D1012F33D088
:1036100042461070022201212000FDF7E5F8002843
:1036200002D000232B70CFE7012200212000FDF7FC
:10363000DBF80028F5D12000FEF75AF90028F0D178
:1036400000212000FEF750F80028EAD100220021D6
:103650002000FDF7C9F80028E3D1012F1CD0287005
:103660004A4601212000FDF7BFF80028ACD1AE2367
:103670004A465B00E254A7E717236B440193434695
:103680000390009300220023012120000297FFF7FE
:1036900007FF0028BED097E717236B4402900093E2
:1036A000002200230121200003970195FFF7F8FE77
:1036B0000028D5D088E7C046F0B54546DE465746D7
:1036C0004E460023E0B58FB0170006AA137453745A
:1036D000B4220B935200825A0E009046A822520048
:1036E000835004328352543AFF21FF3A0500FDF71C
:1036F0007BF8041E07D020000FB0F0BCBB46B246DA
:10370000A946A046F0BD00224F212800FDF76CF825
:10371000041EF0D12C224E212800FDF765F8041E6E
:10372000E9D10022FF212800FDF75EF8041EE2D156
:10373000B422B6212800FDF757F8041EDBD1002281
:1037400080212800FDF750F8041ED4D106A98C462C
:1037500011220023280062440AA9FFF71DFF041E5E
:10376000C9D1A8235B009C46AC4463460493AB23B9
:103770005B009946543BFF3B9C4605339B464346C2
:10378000A944069363460020BC46B2464F460593C3
:1037900007950723C5081840062D33D00223984605
:1037A0000233290099462A007B5C914200D1ACE0AB
:1037B00001241C4229D144461C4200D0C2E04C46A0
:1037C0001C4200D0BCE0002503245E461E421DD1F1
:1037D0002C1D042D13D010261E4217D16C1D032D55
:1037E0000DD010361E4211D1AC1D022D07D020364F
:1037F0001E420BD1012D02D0002B00D0A4E00131DC
:103800000629D1D13224644275E70024C80000198A
:103810000300B433C9499B099B00CB58002BF1D15D
:10382000072501230540AB40049AC408155D01300B
:103830002B431355059B013B0593002BA9D1069BF8
:10384000079D05900B909846564606238A46280009
:10385000B021B9466746FCF773FF041E00D04AE763
:1038600006230CAAB0212800FCF792FF06AB1A7EB3
:10387000A8235B00EB5C04009A42C3D106AB5A7EDE
:103880005223FF33EB5C9A42BCD106AB9A7EA9234C
:103890005B00EB5C9A42B5D106ABDA7E5423FF3372
:1038A000EB5C9A42AED106AB1A7FAA235B00EB5CBD
:1038B0009A42A7D15623FF33EA5C06AB5B7F9A425C
:1038C000A0D1002800D016E706AA9446122363442C
:1038D00019002800FFF752FD041E00D00BE706ABCD
:1038E0005B8A434546D9A82352465B00E8500599B8
:1038F0000433E8520B00B4339B099B00D358002BD0
:1039000026D12B2924D80131F4E7034101251C00DD
:10391000DBB22C421AD1441C072800D16FE7454680
:103920001D4200D072E7841C062800D167E75D07BE
:1039300000D56BE7C41C052800D160E7050044E70B
:10394000022463E7012461E707245FE704005DE7E1
:103950000BAB0293032392469B46019300914A4688
:1039600001212800049BFFF781FB002800D1E7E03C
:103970000400C0E600220692984500D8D5E06A46C9
:10398000127E089242469B1ADA179B1853400993FD
:1039900003230793062204990CA802F05DFA059B05
:1039A000DA08934607221A4094462F2B00D929E7BC
:1039B0005B4622001C006346944605934A46115D0F
:1039C000A3456BD001220A427AD101320A427BD14F
:1039D000002004230B4223D1C21C052819D0043334
:1039E0000B421DD1021D042813D008330B4217D1FE
:1039F000421D03280DD010330B4211D1821D022825
:103A000007D020330B420BD1012802D0002900D06F
:103A10008FE00134062CD1D13220404204006AE606
:103A200023006446DB009B181A005146B432920909
:103A300092008A58511E8A4106998A4261D1079A9A
:103A40000720013293460122184082400498D90889
:103A5000405C01330243049805934254062302005C
:103A6000B0212800FCF76CFE002881D106AA1223A1
:103A70009446634419002800FFF780FC002800D01A
:103A800076E706AB5A8A4346D31AD9175B184B40E0
:103A9000424523D85A46099307927BE70A00059BC3
:103AA00001201A41D1B2024212D15A1C072BB0D0C8
:103AB00002200842B4D19A1C062BAAD0180088E72D
:103AC000230000226446ADE7230001226446A9E7F3
:103AD00062469C46230014006246A3E7099A9A4274
:103AE00012D35B463360089B01223B704223FF33B5
:103AF000EA5440233268FF33EA543A780133EA54F7
:103B0000F9E5079B9B46ECE70623B0210CAA2800A9
:103B1000FCF716FE8046062204980CA902F09CF9D8
:103B20004346002BEDD04446E5E500239B46089331
:103B3000D7E723000722644674E7C04690120020AE
:103B40000B9B06AA94460593122363441900280090
:103B5000FFF714FC002800D00AE706AB5B8A434558
:103B600002D80122069207E701230893B9E7C0466D
:103B7000094A83009A1810B51468402254408032D4
:103B80002240064CC000A44663441A60044B9C4685
:103B90006044416010BDC04604C0014004D00140F3
:103BA00000400140074B8000C3181B68C900920009
:103BB0000A435A400C231340034A9446604403606E
:103BC0007047C04604C0014004D001400123D02208
:103BD0008340120693629361094A83009A18116820
:103BE0004022514080320A400649C0008C4663445E
:103BF0001A60054B9C460523604443607047C046ED
:103C000004C0014004D00140004001408023DB0596
:103C10001868000F7047C0460FB400B5084883B05D
:103C200003F06CFF049B002B07D005A9180001913D
:103C300003F07AFD034803F061FF012003F08CFDDF
:103C40000CAC00101CAC001070B5EFF3108C72B609
:103C50000D4D2B68002BFCD0BFF35F8F0724CB08E2
:103C6000C618C05C01230C40A3401C000440034262
:103C700007D118433070BFF35F8F2C608CF310882E
:103C800070BD1000FFF7C8FF2C0100D0F8B5474603
:103C9000CE46884680B5EFF3108C72B61C4D2C686A
:103CA000002CFCD0BFF35F8F9A4222D80721012657
:103CB000894602E00132934218D34D463700154041
:103CC000AF40D4080119045D2742F3D110003C43F2
:103CD0000C70BFF35F8F00220D4B1A608CF31088BD
:103CE00000280EDBC0BCB946B046F8BD01204042FA
:103CF000EFE7BFF35F8F00232B608CF31088012068
:103D000040424346002BEDD00898FFF785FFC046A0
:103D10002C0100D0044A1078431CDBB2172B00D9C9
:103D2000102313707047C046A012002010B5064B38
:103D3000064C82B00100009318221F232000FFF7D9
:103D4000A5FF02B010BDC04620AC0010A01D002091
:103D50000021044B044ABFF35F8F02C39342FAD1A0
:103D60007047C046000100D0800100D0054B064AD4
:103D70001360064A136053609360D360136153610C
:103D8000936170478080808000E400E004E400E0FC
:103D90001F2318401E3B8340002905D0C021044A40
:103DA0004900535013607047802201498B50FAE755
:103DB00000E100E001228240034B1B6813405A1EC1
:103DC0009341D8B27047C04600E100E00123834030
:103DD000014A13607047C04600E200E0064B103015
:103DE0009B688000C358054A00209B1A2F229A42E4
:103DF0004041C0B27047C04600ED00E0A412002070
:103E000070B50D00EFF3108672B60F4A1368002BE1
:103E1000FCD0BFF35F8F0D4B10309B6884001B59A3
:103E20000B4A934203D09D4201D001F02FF8074B7B
:103E30009B681D51BFF35F8FBFF35F8F0022024B62
:103E40001A6086F3108870BD240100D000ED00E0F8
:103E5000C1010010F0B557464E46DE464546E0B576
:103E600085B0060000911700EFF3108B72B66A4A16
:103E70001368002BFCD0BFF35F8F0025674B5D57A5
:103E80009A46002D00DAA9E06B00654C01935B199E
:103E90009B009846A146C1444B4652469B7910363A
:103EA0001370604BB6009B6899590B1B2F2B33D9AD
:103EB0005D4B994200D0ACE0019B42469C465B4B77
:103EC0006544AD0063535A4B0232A218043B9B1A5F
:103ED0001B05584A5B0D651913436B80564B012136
:103EE000AB80FF23AB71009BEF71AB604B460B4384
:103EF00019004C4B9B689951BFF35F8FBFF35F8FE5
:103F00000022454B1A608BF3108805B0F0BCBB460D
:103F1000B246A946A046F0BD01200A008243D379EB
:103F20008C46BB4231D84546130044491B1B5B41BC
:103F30005943090D3D4B63533D4B02356519043B15
:103F40005B1B1B053B4D5B0D2B43AA464D466B800F
:103F50000425AC465546E044131F44441B1B1B0577
:103F60005B0D1D434B46997100999D8099604946B0
:103F7000DF71334B01431360BBE75800C01880006A
:103F80002018C179B9422FD902000623D356002B3D
:103F9000F3DA02932B4B61460393131D9A460423D5
:103FA0005B429C46E14450464B461B1A1B055B0D89
:103FB0009C46204B95719846634640460343938048
:103FC000019B5A199200039BA418A380029B1C4AD0
:103FD000A371009B2260E771A3608AE700F056FF9F
:103FE000002553465D574FE7908802934005131D07
:103FF0009A46031561469C464046D44463460430C5
:104000002018181AE0230005400D1B0218430390E6
:10401000C5E700F03BFF4FE7240100D0F423002068
:10402000A412002000ED00E0C101001000A1FFFF7C
:10403000D412002000E0FFFF01BDFFFFAAAA00008C
:104040000148804701BD000070B501240443EFF32F
:104050000581EFF3108C72B6214A1368002BFCD057
:10406000BFF35F8F1F4B05001F4AED1A6D416A4376
:10407000120D1E4D8900AE6852B27658A6421CD071
:104080000621595691421CD012215956914222D0F4
:104090001E215956914220D02A215956032491427B
:1040A00010D0134B19781A708171BFF35F8F002203
:1040B0000B4B1A608CF3108870BDAB680D4C5C50D4
:1040C000EFE700246100091989005B18FF2199714D
:1040D00009499980E5E70124F4E70224F2E7C046A4
:1040E000240100D0A4120020AAAA000000ED00E0E4
:1040F000F4230020C101001001BDFFFF10B5084BE3
:10410000084C82B001000093002205232000FFF735
:10411000BDFD002801DB1F23181A02B010BDC046E8
:104120003CAC0010F8230020024B9C4661448900FF
:10413000016070474000003470B5114C114DAC4225
:104140000FD2FF262368002B0CD0FFF7E3FD010000
:104150002000FFF7E9FFA680BFF35F8F0834AC4271
:10416000F0D370BDFFF7D6FD01002000FFF7DCFFA4
:104170002671BFF35F8F0834AC42E3D3F1E7C0464A
:10418000701300207813002010B50400FFF7C2FD63
:1041900001002000FFF7C8FFFF232371BFF35F8FEB
:1041A00010BDC04610B504000120FFF7BFFD034B52
:1041B000C3189B002360BFF35F8F10BD4000003425
:1041C000034B9C46614489000160BFF35F8F7047D9
:1041D000400000340A4B1968EFF3108072B60A6889
:1041E000002AFCD0BFF35F8F1B68BFF35F8F0022F4
:1041F0001A6080F3108840BF002000217047C0463D
:104200004C220020F0B5DE4657464E464546E0B506
:1042100087B0EFF30583032201251A4095409100F2
:104220008846A946B14B03925C58B14B1D60B14B17
:1042300004934B46B04843630823E55E002D37DA0C
:10424000A3881BB2002B00DBADE0A379002B00D0CC
:10425000EEE00823E15E002920DB4B0062695B1879
:10426000DB00D3189E68DD68731C00D10DE1A24805
:1042700001004144826A0B69B71A9B1A9F4215D309
:104280000123026A039883401A420FD09A4800F033
:10429000B1FB8D4202DCCCD18642CAD940BF07B007
:1042A000F0BCBB46B246A946A046F0BD0E61EDE7A4
:1042B00062696B0092465B19DB009A4453469E6824
:1042C000DF6800F097FB8F42BADC00D1FFE0002FDF
:1042D00000DAE4E05246534652691B699346049A59
:1042E000934200D1D5E052460821605E5288000416
:1042F000594610439847009001910099019A0B008C
:104300001000134300D1CAE013000A00B61A9F41FF
:10431000002806DB784800F06DFB009E019F3618F0
:104320004F4153469E60DF6000229A5E002A00DA09
:1043300086E7530099186069C900411802938B6899
:10434000C9689B46B94200DD7AE702D1B34200D981
:1043500076E708239C46A444059565462281A44639
:10436000029B2C0006E053009918C90041188D6883
:10437000C968AB469B18DB00C318B94206DC00D104
:10438000AFE01C000023E25E002AECDA2300644662
:104390009C4653461A806346059D1D80A3881BB228
:1043A000002B00DA51E72269EFF3108172B613682F
:1043B000002BFCD0BFF35F8F0123A7885B42A38053
:1043C0003FB22369BFF35F8F00221A6081F3108828
:1043D000002F00DA39E72300083322009A46666985
:1043E0007B00DB19DB00F318996850468C460824E3
:1043F000115FDD68002910DB029306E0AB4240D07C
:104400000023E15E2000002906DB4C006418E40074
:104410003419E368AB42F1DD029B078000201F5E88
:104420001980002FDCDA1400A379002B00D110E7EB
:104430000023A37126000823E15E08364B1C00D13F
:104440002CE7B446656903E084464B1C00D100E7C5
:104450004B005B18DB00E8180A00E95E43881BB2DA
:10446000002BF1DA01267642F7178660C76008262E
:10447000A35F9342E9D06346198023890380228198
:10448000E3E7A3686345BBD9C6E76B1C00D0EEE643
:10449000FCE65B4658461B69984700281BD15346EB
:1044A0001B8822692381EFF3108372B611680029FB
:1044B000FCD0BFF35F8F514662880A802269658015
:1044C000BFF35F8F0021116083F31088B8E6864246
:1044D00000D8FCE6B4E65B461A685B68009201937C
:1044E0000BE7B34500D84CE750E7C0463022002028
:1044F0003C700540054200100040054070B52E4C50
:104500002569002D04D00A212C48FFF70DFE70BD4F
:104510002B4E0321300000F063FAE660FFF7FAFB50
:10452000284B03229C46D02322701B061B680121C6
:104530006370254B6044A3600F238000206102203C
:10454000638063694942A18019800231198647312D
:104550001D83585218315A5275325C3999521832AB
:104560000131995218320131995218320131995260
:10457000083518329D5202311832995218320131E1
:104580009952183201319952183201319952183228
:10459000013199521832013199520C4B0C49DC60AF
:1045A00001303562FFF72CFC01210320FFF7F0FBFF
:1045B000084B1D60A7E7C046EC1200204C220020EB
:1045C0000040054040000034FFFF10003022002072
:1045D000054200103860054000487047EC1200208A
:1045E000F8B51F0008AB1B7804001600002B08D19B
:1045F00000F008FA32003B00121A8B41002B00DA5F
:1046000052E02269EFF3108072B61368002BFCD0E1
:10461000BFF35F8F0223E15E63694A005218D20044
:104620009B182269002936DB1D886580BFF35F8FE8
:104630000025156080F31088069A9E60DF601A617D
:10464000079A5A615A8801325204520C101C002AEF
:104650001FD082B25880080410432669EFF31087F8
:1046600072B63268002AFCD0BFF35F8FA2881A802E
:10467000A1802369BFF35F8F00221A6087F310883F
:104680000A4923788C4601329A40E36863441A60F1
:10469000F8BD0120DDE7BFF35F8F0023136080F3D7
:1046A000108801204042F3E70020F1E73C200000A1
:1046B00070B501000469EFF3108C72B62068002811
:1046C000FCD0BFF35F8F02200D5E4C69680040197B
:1046D000C00024180869002D36DB26884E80BFF301
:1046E0005F8F002606608CF31088E360638804986F
:1046F000013320615B0405985B0CA26060611A1CA9
:10470000002B1FD093B22804628018430A69EFF38C
:10471000108C72B61368002BFCD0BFF35F8F8B88B0
:1047200023808D800B69BFF35F8F00221A608CF3AA
:1047300010880B7801329A40CB6808498C46634454
:104740001A6070BD0122DDE7BFF35F8F00230360B5
:104750008CF3108801204042F3E7C0463C20000063
:1047600010B543890A1493421ADD53009B1842691D
:10477000DB00D3180469EFF3108C72B62268002AAC
:10478000FCD0BFF35F8F5A88090494B2090C8A42A7
:1047900008D00369BFF35F8F00221A608CF3108882
:1047A000002010BD8022120214435C8001230269A4
:1047B0008371BFF35F8F002111608CF3108804496F
:1047C00002788C469340C268012062441360E8E797
:1047D0003C20000040787047F0B5C64600B582B076
:1047E000040000F00FF9FA2206000F002000002359
:1047F0000021920001F0C0FA8019794104000D1ED9
:1048000002DA01242E4D644206267642F717361945
:104810006F41AF4214D811D000F0F4F832003B00E1
:10482000121A8B41002B15DC002B46D020002900EA
:1048300000F026F902B080BCB846F0BDA642EBD924
:104840000026002700F0DEF832003B00121A8B41F0
:10485000002BE9DD00F0D6F832003B00121A8B4144
:10486000002B0ADB00230193164B320000931648FD
:104870003B00FFF71DFF0130D8D000233900B046C0
:104880009C46124A1248536A994204D8966A464591
:10489000CCD29942CAD10668EFF3108772B633685A
:1048A000002BFCD0BFF35F8F0368BFF35F8F6646BA
:1048B0001E6087F3108820BFE5E7002AB6D0C9E75D
:1048C000FFFFFF7FD5410010EC12002000400540A3
:1048D0004C220020F0B557464E46DE464546E0B530
:1048E00006000F0085B0EFF3058399468B46002B39
:1048F00012D0384900204B6ABB4206D38A6ADB1BC0
:10490000591E8B41B2424041184305B0F0BCBB4632
:10491000B246A946A046F0BD2F4B9A46DB689846A2
:1049200053461B784046039300F064F84246039BCD
:10493000040004339B009B580D001B1A3900300003
:10494000001BA941894510DC0DD020BF214A002061
:10495000536A5B45D9D3926ADB1B591E8B41B24225
:1049600040411843D1E78342EFD900F04BF83200C1
:104970003B00121A8B41002B1ADB00230193174BCB
:104980003200009350463B00FFF792FE011E0FDD00
:10499000104B5A6A5A451BD39B6AB34216D35046F2
:1049A000FFF7DEFE0B4A0020536A5B45ADD3D2E72A
:1049B000084A0020536A5B45A7D30020926ADB1B9C
:1049C000B24240415A1E934118439EE75A45E6D1F0
:1049D00020BFE4E700400540EC120020D541001064
:1049E00010B5024A0248FFF72FF910BD58AC00106D
:1049F000A41D00200300416A0A00986A596A8A428D
:104A0000FAD17047034B596A0A00986A596A914271
:104A1000FAD170470040054070B504000D00174AF8
:104A2000536A1900966A536A8B42FAD13000190012
:104A300024184D41AB4216D813D0104B2A005B6AA4
:104A40009D4203D90D494B6A9342FCD3934207D14F
:104A50000A4A02E0516A994202D1916AA142F9D30D
:104A600070BDA642E9D9054B5B6A1C005A1CEFD009
:104A7000012201246442E5175242E3E70040054069
:104A8000064A536A9942FCD807D1044B02E05A6A9D
:104A9000914202D19A6A9042F9D87047004005408D
:104AA000F8B5DE464E4657464546E0B58B4605000E
:104AB0000A991800160000F03BFB0A9B6C001F02CD
:104AC000324B64199C46A4006444636881469F424B
:104AD00000D967602B1FDBB29846012B30D9C02369
:104AE00080229B01E31812011A60294BAD0059592D
:104AF0009A4600291BD17301E026226853401E40CC
:104B0000802342465B01E3181E60012A30D98023CE
:104B100080229B01E31812011A6053464A466760DF
:104B20005A51F0BCBB46B246A946A046F8BD5869EA
:104B300000F0FEFA013043001B18033BFDD2DAE718
:104B40005B46012BCBD1C02303229B01E3181A60E3
:104B5000023AA3681A42FCD07301E0262268AD0035
:104B600053401E4080230A4A5B019246E3181E60B0
:104B70005A462168514003220A401A6001225B46CE
:104B80009A40A3681A42FCD0C1E7C04600800040AA
:104B9000A81D0020F0B546464F46D646C0B51F00BA
:104BA000344B44009C462418A4006444636888463F
:104BB0001600FF2B02D880235B006360031FDBB26B
:104BC0009A46012B30D9C02380229B01E3181201A1
:104BD0001A60294B85005959994600291BD1730148
:104BE000E026226853401E40802352465B01E318B2
:104BF0001E60012A30D9802380229B01E318120114
:104C00001A6080235B0063604B465F51E0BCBA468C
:104C1000B146A846F0BD586900F08AFA0130430059
:104C20001B18033BFDD2DAE74346012BCBD1C0234F
:104C300003229B01E3181A60023AA3681A42FCD0CF
:104C40007301E0262268850053401E4080230A4AF3
:104C50005B019146E3181E604246216851400322E1
:104C60000A401A60012342469340A2681342FCD0D6
:104C7000C1E7C04600800040A81D0020014B800015
:104C8000C0587047A81D0020F8B5040021481E0038
:104C900017000D0000F04CFA0100380000F048FA4F
:104CA000069B36041B031E432368002B20DB1A4B94
:104CB0001A49E3185A1E93418022920194465B429E
:104CC0001B0B174A1B0363441360164A13601F0033
:104CD0000A689743FBD1144B2560E2182123A0609A
:104CE00013602368002BFCDA0823E6601360F8BD2C
:104CF0003F2322681340AB42D9D1A3681B051B0D8B
:104D00008342D4D1EE22E368D2021340B342CED123
:104D1000EDE7C046001BB7000040FDBF08C00040E3
:104D200000E0004000F000400430000010B5802496
:104D30001C4BE4051C6000281AD001231A4C1843B0
:104D40001A4BDC611A4C44401C6259629862802103
:104D5000144BC9051960174817490860E021C904B8
:104D60001960002A07D18022144B12061A6010BD68
:104D70000E4BD861EBE753019B1A9B009A188023D6
:104D800012015B049A4209D213000D490B60074BD4
:104D90005A608022094BD2051A60E8E7094B1A00D5
:104DA000F3E7C04600B00540D3C007B0008005401F
:104DB0002D3FF84FFCFF01000820014000A00540F6
:104DC00008220020FFFFFF008023024A9B000B43C4
:104DD000D362704700800540002310B50100988A17
:104DE0001B8B984710BDC046162310B501001888CC
:104DF00002331B88984710BDF8B54746CE4680B5AC
:104E00000F1E18D0142399460433040000250126F0
:104E100098464B461888434621681B88984701C42A
:104E2000431E984101350640AF42F2D13000C0BC6C
:104E3000B946B046F8BD0126F8E7C046002370B574
:104E400004000D00988A05491B8B98470300002039
:104E5000002C01DB0130A04029009847554200009A
:104E6000AA23064A1B0113608D235B00D36004490B
:104E7000044B19605368002BFCDA70470040024075
:104E800000B0FA00006002407047C04610B501480B
:104E9000FEF7C2FE7CAC001070B5074D074EB54260
:104EA00009D20024013E761BB60808CD984723009E
:104EB0000134B342F9D170BDB0A80010ECA80010C5
:104EC000054B064A06491A60064A074B1A6010004D
:104ED0000B689843FBD1704700E00040BFCDFBFE5C
:104EE00008C00040FE7F3C0000F00040044BDB6C3B
:104EF000002B03D18022034BD2021A607047C046B8
:104F0000000011504C201150044A054B1A60054A0C
:104F10001368DB018033FBD17047C046FFFFFF0100
:104F200000F0004008C000404022034B9A675A67D7
:104F30001A67DA667047C04600F0014010B5FEF708
:104F400007FF10BDF8B52749274C284D641AA61055
:104F50003200302E00D930222800920000F07CFF71
:104F6000BC2C3BD830202F232C196407204A801BEF
:104F7000E40F9B1B052B16D93700002C02D0B30081
:104F8000771CEA50001B33199B004108EB18C9003D
:104F9000C9181A605A6008339942FAD101230342B2
:104FA0001CD09843C619B300EA50731C2F2E15D09D
:104FB0009B00EA50B31C2E2E10D09B00EA50F31C2D
:104FC0002D2E0BD09B00EA50331D2C2E06D09B00BB
:104FD000EA50731D2B2E01D09B00EA50054B9D60BB
:104FE000F8BDC04600010010C00100100000002004
:104FF000C101001000ED00E0002310B5294C82B083
:10500000A367FFF72DFF0122274B1A60636C012B6A
:10501000FCD10322254B1A60224A936B012BFCD151
:10502000013300930121224A22480433FFF72CFE6A
:10503000052301210093204A2048FFF725FE002286
:10504000022104201E4BFFF7A5FD002201210520AF
:105050001C4BFFF79FFD0022002107201A4BFFF792
:1050600099FD002200210820174BFFF793FD8023B4
:10507000DB000093002200210920134BFFF710FDF5
:105080000022104B00210620FFF784FD0420FFF7CB
:10509000F5FD0E4900F04CF801000020FFF794FEEA
:1050A00002B010BD008000403CB0004030B0004075
:1050B000002F685900800240008C864700C00240E3
:1050C000001BB70040597307006CDC0240420F0020
:1050D00001480421014B184710130020F94D00101E
:1050E000124A936F9B0815D29066D166002905D0AD
:1050F000FFE7FFE7FFE7516F106F704704B58021AE
:105100000906C2175140002800D0C84305F090FBA3
:10511000002104BDF0B5146E556E576F166FFFF782
:10512000E3FF1466556657671667F0BD000000D0B0
:10513000114A936F9B0813D210665166002905D05F
:10514000FFE7FFE7FFE7516F106F704704B50028D6
:1051500001D00020C04305F06BFB002104BDC04618
:10516000F0B5146E556E576F166FFFF7E5FF1466B6
:10517000556657671667F0BD000000D094464A4A4E
:10518000926F9208624601D228E0C046F0B5464EC2
:10519000346E756E776F366F00F020F89446424A91
:1051A00014665566576716676246F0BD94463E4AD8
:1051B000926F9208624601D254E0C046F0B53A4E72
:1051C000346E756E776F366F00F04CF89446364A41
:1051D00014665566576716676246F0BD002B24DBE0
:1051E00011D000293EDA00B5C943404200D1013157
:1051F00000F038F8C943404200D10131DB4352424C
:1052000000D1013300BD002AEBD1002801D10029D3
:1052100005D00020C90FC90701D1C043410800B51E
:1052200005F0FEFA0022002300BD00B500290ADBCC
:10523000DB43524200D1013300F014F8C94340422D
:1052400000D1013100BDC943404200D10131DB43EF
:10525000524200D1013300F005F8DB43524200D145
:10526000013300BD002923D1002B18D1002A0CD016
:10527000BC460D4F38667A6600210023FFE7FFE742
:10528000FFE77A6F386F67467047002801D00748FC
:10529000010000B505F0C4FA0022002300BD0200A1
:1052A0000B00002000217047000000D0FFFFFFFF2F
:1052B000002B00D0BFE0130C28D1002AE7D080B427
:1052C000114F39667A66FFE7FFE730B4040C7B6F55
:1052D000396F1B0423433B667A66FFE7FFE7FFE76E
:1052E000C04684B27B6F3D6F1B0423433B667A66E6
:1052F000FFE7FFE7C04600232C042D0C7A6F386FC0
:1053000000196941B0BC7047000000D0F0B5944668
:105310000025140E01D112020835140F01D112011B
:105320000435940F01D192000235D40F01D15200FF
:105330000135D40B0134254F7C66254C3C660E0CA0
:1053400093B2FFE7FFE7FFE73C6F6643360C770356
:10535000BE467343DF0B5B04C01AB941130C7343A1
:10536000DB18C91ACE086643360CB64493B27343B1
:105370001F0F1B01C01AB941130C73431F0B1B05F0
:10538000C01AB941860D8F023E436643360C092D83
:1053900024DB520A7243801A7703460A6643360CAE
:1053A00016235B1BDE40DF40BF1964466643821B49
:1053B0007046043506330100D940A840C01900D317
:1053C0000131A24206D20023F0BD0000000000D04F
:1053D000FFFFFFFF121B0130F3D3F1E709277F1B0B
:1053E000FE406446A2B27243801A00D20139220CF8
:1053F0007243130C1204821A99410B007046043553
:1054000013370100F940A840801900D30131002B67
:1054100002D1A2420AD2F0BD013000D30131121BE9
:10542000FAD2013BF8D1A24200D2F0BD013000D344
:105430000131121BF7E7F0B51C0C00D080E00CB472
:1054400000251C0A04D11B02160E33431202083534
:105450001C0B04D11B01160F3343120104359C0BA6
:1054600004D19B00960F334392000235DC0B02D12E
:1054700092185B4101351C00971864410134464F76
:105480007C66464C3C660E0CFFE7FFE7FFE7C04634
:105490003C6F6643360C7703BE4697B27743C01B1A
:1054A00000D20139C01B00D201399FB27743C91B1A
:1054B000C91B170C77437E04FF0B801BB941CE0834
:1054C0006643360C0C2D33DBB644120B1F053A43F2
:1054D0001B0B97B27743C01B00D201399FB27743B1
:1054E000C91B170C77433E043F0C801BB941860D46
:1054F0008F023E43664329277F1BFE400C3D7746C3
:10550000AF40BF1930BCA2B2ABB272437343801A32
:105510009941220C7243130C1204801A9941020023
:105520000B000137001BA941F9D2781E0021F0BD04
:105530000C277F1BFE4077467F0BAF40FF19E0E74B
:1055400000245D1C07D0144F7D663966FFE7FFE736
:10555000FFE7FFE73C6F95B29EB265436643401B91
:10556000B141150C1E0C6543664336042F0C3E43B7
:105570002D04401BB141994204D202000B002000CF
:105580000021F0BD01D19042F7D3801A9941013436
:105590009942F2D3F6E70000000000D0FFFFFFFFC2
:1055A00048404140484018B41B4B5B68FC4601939F
:1055B00008BD04DF4B58001018B4174B1B68FC469D
:1055C000019308BD00DF555800109446134A926FAE
:1055D000920809D2624618B40F4BDB68FC4601936F
:1055E00008BD0CDF0D5B00100C4AF0B5146E556E53
:1055F000576F166F6246FFF7EEFF084A146655664E
:1056000057671667F0BD18B4034B9B68FC460193BF
:1056100008BD08DFB159001000150020000000D0BF
:10562000FFB550404240504059404B40594000E087
:10563000FFB5154F4C00640D03D0BC4204D10C03E0
:1056400014D80020090D09055C00640D03D0BC428C
:1056500004D11C030AD800221B0D1B0501264B4058
:1056600009D44B4003D58B4200D18242FFBD994201
:10567000FCD19042FFBD0B43DB1803431343F5D02D
:10568000C9434918FFBD0000FF07000000B5FFF740
:10569000CFFF804100BDC04600B5FFF7C9FF01D96B
:1056A000002000BD012000BD00B5FFF7B9FF01D902
:1056B000002000BD012000BD00B5FFF7B1FF804113
:1056C00000BD012040054A00121804D85A001218E3
:1056D00001D80020704701207047000000210028F9
:1056E00005D17047C1174840401AFAD0C90713B511
:1056F000064B1B6898470CBC441CA2401005120BBB
:105700000349091B09051943114310BD4822002014
:105710001F04000010B54C00620D8023D218DB007E
:10572000D21A5B057E2A10DD9E3A13DACC170903E4
:10573000490819435242D140640001341532202AED
:1057400005DAD0400843604310BD002010BD084674
:10575000604310BDC80FC018013810BD18B4044B09
:105760005B6AFC46019308BD24DFBD5C00100000AD
:1057700000150020132370B51D78012D19D014DDFC
:105780001F48FFF731FB06001E48FFF72DFB1E4C9C
:1057900080223100200000F05FFB022D2DD01B483D
:1057A000FFF71AFB1A4B186070BD1A4B164CA36416
:1057B000F5E7184B144C23606360A360E36023613A
:1057C0006361A361E36123626362A362E3622363B3
:1057D0006363A363E36323646364A364E364236593
:1057E0006365A365E36523666366A366E366236773
:1057F0006367A367E367A364D1E7064BA364CEE7BF
:105800005344000053460000001500204C330000B4
:10581000482200201958001007B5604601880A0A7E
:105820000230DF2AFAD1C9B2820804D30288408844
:105830000004104300E00068014A5050039007BD87
:10584000001500200FB403BC0CBCF0B50124E40724
:10585000634000E0F0B50C0DCF0F661E3605891BC6
:10586000640503D3C943404200D30131640D03D022
:10587000661CF60A07D0E41B00207F00791C89070C
:105880008912803C24031D0DDF0F6E1E36059B1B05
:105890006D0503D3DB43524200D301336D0D03D0BA
:1058A0006E1CF60A07D0ED1B00227F007B1C9B07B5
:1058B0009B12803D2D032F1B661B58D4A446202E1F
:1058C00046DA20371400BC401D00BD40F240334191
:1058D0002A4380185941CB0F05D0C943C043002249
:1058E00064425041514162464D0D28D10D0D07D102
:1058F00000281FD0241940414941013A0D0DF9D02B
:10590000640006D3013000D30131002C01D14008DE
:105910004000013A0BD4941CE40A04D1120511444E
:10592000DB071944F0BDD907204B194300E0D90724
:105930000020F0BD0029DDD1002CDBD1F0BD01320B
:10594000C6074008CD0728434908002EE1D0D9E713
:105950003C2E29DA203E40371400BC4000D0012400
:10596000F24014431A00BB401C43D317ACE7AC46CB
:10597000202F08DA20360400B4400D00B540F8406E
:1059800039412843A5E73C2F0CDA203F403604007C
:10599000B44000D00124F84004430800B1400C4357
:1059A000C117EAE710001900002494E70000F07F17
:1059B000F0B50C0D661E3605891BE60A6405640DFC
:1059C00002D0651CED0A04D0002001210905803CAD
:1059D0002403A4461C0D671E3F05DB1BE70A640574
:1059E000640D02D0651CED0A04D0002201231B05C2
:1059F000803C24037740644497B484B296B27443E5
:105A0000070C7E43150C6F4380B26843361802D3EF
:105A1000012000043F183004350C00197D418446F4
:105A200088B29AB250430C0C62431F0C7C438EB276
:105A30007E43921902D301263604A4191604170CCA
:105A40003618674101BC81B29AB25143040C6243DB
:105A50001B0C5C4380B25843121802D3012000048F
:105A600024181004130C401863412D185E410020C7
:105A7000474106BC88B293B258430C0C6343120CE6
:105A8000544389B251435B1802D3012109046418BD
:105A900019041A0C091862416D185641002047413B
:105AA00018BCF902720D1143F0026A0D1043ED02A9
:105AB0000A0D03D16D1940414941013B124E9B1B18
:105AC0007600B3420ED26D0007D30130002671413B
:105AD0006646354301D1400840001B05C918E4075C
