:020000041000EA
:1000000000B5324B212058609868022188439860DF
:10001000D860186158612E4B002199600221596106
:100020000121F02299502B49196001219960352056
:1000300000F044F80222904214D00621196600F024
:1000400034F8196E01211966002018661A6600F04E
:100050002CF8196E196E196E052000F02FF8012189
:100060000842F9D1002199601B49196000215960AB
:100070001A491B48016001219960EB211966A021F2
:10008000196600F012F800219960164914480160C1
:100090000121996001BC002800D000471248134993
:1000A000086003C880F30888084703B5996A0420EC
:1000B0000142FBD001200142F8D103BD02B5186610
:1000C0001866FFF7F2FF186E186E02BD00000240BE
:1000D000000000180000070000035F00212200005C
:1000E000F4000018222000A00001001008ED00E03C
:1000F00000000000000000000000000074B24E7A12
:1001000000200420F7010010CB010010CD010010E9
:10011000C9010010C9010010C9010010C901001077
:10012000C9010010C9010010C9010010CF01001061
:10013000C9010010C9010010D1010010D301001045
:10014000C1010010C1010010C1010010C101001067
:10015000C1010010C1010010C1010010C101001057
:10016000C1010010C1010010C1010010C101001047
:10017000C1010010C1010010C1010010C101001037
:10018000C1010010C1010010C1010010C101001027
:10019000C1010010C1010010C1010010C101001017
:1001A000C1010010C1010010C1010010C101001007
:1001B000C1010010C1010010C1010010C1010010F7
:1001C000EFF30580103800BE00BE00BE00BE00BECA
:1001D00000BE00BEF2EB8871FCB600101CB7001028
:1001E0003802001090A31AE71E481F49086006C88D
:1001F00081F3088810471D480068002801D019487D
:10020000F3E70DA40ECC002902D000F012F8F9E7B4
:100210001749184A002000E001C19142FCD116495B
:100220008847164988471649884700BEFDE701C937
:1002300001C29A42FBD370471CB70010C0000020D7
:1002400078130020D4C9001000000420000004200E
:10025000D4C9001000100420001004200000000089
:10026000704700000000000008ED00E0000000D032
:100270007813002008240020C17B0010F902001030
:10028000B97B0010F8B5C04606480749091A8B101B
:10029000C90FC91810B5491003D0044B002B00D06A
:1002A000984710BD7813002078130020000000004C
:1002B000054B10B5002B03D00449054800E000BFF2
:1002C000FFF7E2FF10BDC046000000009C230020A5
:1002D00064AD0010062802D10122014B1A7070474C
:1002E00001240020034B020010B5180007F0C4FEE3
:1002F000FEE7C04668AD0010F0B5DE4657464E46F4
:100300004546E0B58BB007F099FDC82004F092FC9B
:10031000824807F02DFE824982480AF0ADFB032196
:10032000042003F001FD0321052003F0FDFC002261
:100330000121042003F012FD00220121052003F019
:100340000DFD0021072000F021F9052004F072FCCA
:100350000121072000F01AF9052004F06BFC0620AB
:1003600003F078FDD02340221B069A62012100226F
:10037000062003F0F3FC012206206B4B042103F05E
:1003800001FDC0232922694C5B002000E25400F0EB
:1003900087FB002800D084E0200000F029FD002821
:1003A0007CD104AB0F229C462000624409A901F0D5
:1003B000E5F900287BD104AB11229C462000624461
:1003C00008A900F0A7FE002874D10121200000F048
:1003D0008DFC002868D10100009004230122200038
:1003E00001F0D0F8002800D091E02000504900F042
:1003F0008BFC002800D08DE0200000F001FF81463A
:1004000000285AD14B4807F0B3FD4B4807F0B0FD28
:1004100029214A4807F030FE3021494807F02CFED8
:10042000484807F0A5FD484E4848317807F024FEBB
:1004300004AB9C46464B12279B46464B464D0293C7
:10044000464B67449846464B0393464B0493464BB2
:10045000059330239A462B78002B3AD1002007F0E1
:10046000F1FC31282CD0322846D02028F3D1039833
:1004700007F07EFD00F09AF8052004F0DBFB514602
:10048000200000F097F800283DD1049807F070FD97
:1004900000F08EF8052004F0CDFBDCE73349FFF7D0
:1004A00021FF3349FFF71EFF3249FFF71BFF324997
:1004B000FFF718FF3149FFF715FF3149FFF712FF2A
:1004C000292329214046337007F0D6FD2B78002BD5
:1004D000C4D04B463900327820002B7000F084F8ED
:1004E0003178021E04D158463A8807F0C5FDB5E7B9
:1004F000029807F0C1FDB1E7534630214046337002
:1005000007F0BAFDA7E7059807F032FDC0E71D49DF
:10051000FFF7E8FE1C49FFF7E5FEC04670AD00108E
:10052000A086010068130020D5020010001E0020E4
:10053000E880000064AE001084AE001090AE0010A1
:10054000BCAE0010E8AE0010E00F002014AF0010A9
:1005500038AF001054AF00100124002078AF001015
:10056000A4AF0010DCAF001008B00010BCAD00104C
:10057000ACAD001004AE0010D0AD0010ECAD00101A
:100580004CAE00101CAE001034AE001070B504006C
:100590000D0003F05FFC0123D022A340120653623A
:1005A000002D01D0536170BD9361FCE77047C046D8
:1005B0007047C04670B504000D0000F0A3FE002196
:1005C000200001F0A9F8022004F034FB6900C9B250
:1005D000200000F0A5F9C0235B00E554200000F0E6
:1005E0000FFE002070BDC046F0B54F464646D646C9
:1005F000C0B504000E00170088B0002937D00028CD
:1006000035D0C0235B009846C35C00219A46434620
:10061000C25401AB99461C22180005F045FE49461C
:10062000200000F0CBFE00210500200001F074F84E
:1006300043465246E254002D0ED14B46187E002808
:1006400008D100201B89338008B0E0BCBA46B1460F
:10065000A846F0BD3580F7E7142D03D0C8204042EE
:10066000401BF1E73900034807F006FDF6E70120DB
:100670004042E9E728B00010F0B583B06E460400B0
:100680005D1C080011001A000833DB08DB00F31AB8
:1006900002AF9D4602AE30700920684405F00AFEA4
:1006A000C0235B00E15C00233200009305482B006F
:1006B0000AF00AFAC0431423BD46C0171840143884
:1006C00001B0F0BD68130020F0B5C64615000F223A
:1006D0001E00C02300B584B06A445B001170C15C89
:1006E00098460E4F803BFF3B0400009338000AF011
:1006F000EBF900280FDB4346E15C00232A0000935E
:10070000380033000AF0EAF9002804DB002004B0C6
:1007100080BCB846F0BD14204042F8E768130020C2
:10072000130000B585B003AA5370C02311705B009D
:10073000C15C00230548009302330AF0C5F9C043A9
:100740001423C0171840143805B000BD68130020EA
:10075000130000B585B003AA11709370190AC02365
:1007600051705B00C15C00230548009303330AF01D
:10077000ABF9C0431423C0171840143805B000BDAE
:1007800068130020F0B515000F22C027012385B0A3
:100790000D4E6A4411707F00C15D0400009330006B
:1007A0000AF092F900280CDB0023E15D2A00009397
:1007B000300001330AF092F9002802DB002005B076
:1007C000F0BD14204042FAE768130020F0B5C64699
:1007D00015000B22C027012300B584B0114E6A44D6
:1007E00011707F00C15D0400009330000AF06CF9C5
:1007F00003AB9846002812DB0023E15D42460093DC
:10080000300002330AF06AF9002808DB0020434672
:100810001B885BBA2B8004B080BCB846F0BD1420A6
:100820004042F4E768130020F0B515000B22C02702
:10083000012385B00F4E6A4411707F00C15D040032
:10084000009330000AF040F900280FDB0023E15D3F
:100850003000009303AA04330AF040F9002805DBB6
:100860000020039B1BBA2B6005B0F0BD1420404252
:10087000F7E7C04668130020F0B54E464546574698
:10088000DE469946224BE0B5C0279846012387B043
:1008900005AD039229707F0004000E002A00C15D9F
:1008A000404600930AF010F900282EDB02AA944675
:1008B0000B2363449A460023E15D9B460093524616
:1008C000404601330AF00AF900281EDB5346039A1A
:1008D0001B782E7013404A461A43130052466B7021
:1008E00013705B46E15D2A000093404602330AF034
:1008F000EBF8C0431423C0171840143807B0F0BCFD
:10090000BB46B246A946A046F0BD14204042F5E7DA
:100910006813002010B5052004F08CF9002010BDEC
:1009200010B54A088A21FFF7FBFE10BDF0B5DE4680
:100930004E4645465746E0B5037A83B00B706B468A
:100940000E009A1CF8210500FFF740FF041E07D097
:10095000200003B0F0BCBB46B246A946A046F0BD9D
:1009600001AB1A00042128009846FFF75DFF041E22
:10097000EED16B465988002960D1B0680023286108
:100980004246202128003373FFF720FF041EDFD1E9
:1009900043461B88002B56D1AB69336100233100DD
:1009A00028002B75143102F043FC041ED0D1202204
:1009B00024239346083A994692460027EB6AB144AD
:1009C000AB44B2444A4608C25B4691465246DB5DA0
:1009D000D3550137062F3BD0032F10D004DC012F55
:1009E0000FD002276B6BEDE7424664212800FFF72A
:1009F000EDFE041EACD143461B885B02E2E7AB6B05
:100A0000E0E7424644212800FFF7E0FE041E9FD1A4
:100A100043461B885A02002B0CD12B6BB362002378
:100A20002122AB545B4652465B78537004239C46AC
:100A3000E144D6E7B26201232A63F1E7019804F0AA
:100A4000A5FDB0609AE7DB003361AB610123A6E747
:100A5000424601212800FFF795FE041E00D077E7EB
:100A60004346AE221B785200AB54DB09E83AB3543C
:100A700008322800AB54311D01F062FE041E00D084
:100A800066E7290030001C2244313C300AF030F87F
:100A9000290030001C22603158300AF029F857E74D
:100AA000F0B5CE46474680B50022A1B088210500AA
:100AB000FFF736FE8E220023FA215200AB54890044
:100AC0006232A95280497E3A02AEA9502800310014
:100AD000AB61FFF72BFF041E28D19623DB04B3651F
:100AE0007A4B308033647A4BF063F36580239B024A
:100AF0007364E1239B043366764B2800B364764B22
:100B000078227366754B3100F364754B0830B36619
:100B1000A0231B033365FA235B04F366F0231B0356
:100B20007365C8235B04336705F0C4FBB0236D4ACB
:100B30005B00EA50FA2204335200EA52A022043346
:100B40001201EA5201221433EA5480212800FFF7EF
:100B5000E7FD01220600FF212800FFF7E1FD00224A
:100B6000064300212800FFF7DBFD6B46344364B2E7
:100B7000DE1D3200912104432800FFF703FEB3235A
:100B800032785B0064B2EA54002101220443280059
:100B9000FFF7C6FD64B20022FF2104432800FFF7DF
:100BA000BFFD64B20443002280212800FFF7B8FD96
:100BB0002E0064B2204340B22C36002814D12023EA
:100BC00099461F3B00249846474FA944A3B2052BE2
:100BD00033D89B00FB589F460023EF22602128005A
:100BE000FFF74AFE00282CD021B0C0BCB946B04661
:100BF000F0BD0023FE2260212800FFF73DFE002803
:100C0000F2D12B00012220331A5504360134DDE7DE
:100C100023230122EA544B46424604361A55013436
:100C2000D4E722230122EA54F5E732684421520A2C
:100C3000280092B2FFF78CFDE1E720230122EA545D
:100C4000E9E72B00012220335A71602168840223D6
:100C50002800FD320024FFF70FFE0028C4D1242312
:100C6000EF22EC5460212800143BFFF705FE00281A
:100C7000BAD12523EC5490235B03EB622123EB5C78
:100C8000002B19D18023DB012B638C239B036B6327
:100C90000023FF22AB635D33FF33EA5401212800B8
:100CA000FFF73EFDAF2301225B00EA5400289BD1F1
:100CB0004223FF33E85497E7202244212800FFF71E
:100CC00047FD0028DED08FE7A470090033B3000091
:100CD00000004C04CCCC03000000EE02CC4C07001A
:100CE0000000260264008403D4B10010152906D840
:100CF000044BCB40DB0702D501720020704708206F
:100D00004042FBE70B00300010B501F03FFC10BD86
:100D100010B501F01BFC10BDF0B583B00023170027
:100D20006A460D00D371012107320600FFF72AFD44
:100D3000041E1CD16B46DB79012F1BD0042D50D82B
:100D4000294AAD00525997467F251D405BB2002BC2
:100D50000DDA2A0001213000FFF7E2FC041E06D163
:100D6000AE235B00F5543000F16801F00FFC200069
:100D700003B0F0BD042D34D81C4AAD00525997463B
:100D800040221D0095431A42E3D1F0E704221D00E2
:100D900095431A42DDD1EAE728221D0095431A4205
:100DA000D7D1E4E710221D0095431A42D1D1DEE7E6
:100DB00040251D43AB42CCD1D9E704251D43AB42AE
:100DC000C7D1D4E728251D43AB42C2D1CFE71025B8
:100DD0001D43AB42BDD1CAE780251D43AB42B8D10C
:100DE000C5E704246442C2E7ECB1001000B2001071
:100DF000F0B5C64600B5A2B005007822002104A8CF
:100E000005F052FA0023002269462800CB80CA7000
:100E10000A710121029300F0A1FDA0235B00EA5CAE
:100E2000012A06D84023FF33E95C012A51D00C295E
:100E300051D9280001AA02A902F0B6FB002840D12E
:100E4000BE235B00EB5C002B3FD07A49280001F009
:100E500053FD002835D104220A212800FFF760FC49
:100E600000282ED10023EF2284212800FFF704FD63
:100E7000002826D1832304225B00EA54FF3B00268E
:100E8000984603AF01220B212800FFF749FC0022FE
:100E900004000B212800FFF743FC3A000443132110
:100EA0002800FFF76FFC424664B23B7820430136CE
:100EB00040B2F6B21A4212D0032E00D1B6E000289A
:100EC000E0D022B080BCB846F0BD7933FF33E9589A
:100ED000BCE72029ADD8280002F0FCF9AEE7032ECC
:100EE00000D1A3E00028ECD10122FF212800FFF768
:100EF00017FC6B4604009A1D84212800FFF766FC4E
:100F000000220443FF212800FFF70AFC64B22043BB
:100F100040B20028D5D16B468022DB8852001B01ED
:100F20002800AB5004A9FFF701FD0028C9D16B468A
:100F300009212800DA1CFFF725FC0028C1D16B46E7
:100F4000DA78012313406A46D3705E222800FF320C
:100F5000AB5404A9E53A083005F0ACF96B46012121
:100F60002800DA1CFFF70EFC0028AAD16B46DA78BD
:100F7000AE235B00EA5438703A0001212800FFF7E5
:100F800001FC00289DD110233C781C420FD09C43CB
:100F9000220001212800FFF7C3FB002800D090E7C2
:100FA000AE235B00EC542800E96801F0EFFA002260
:100FB00002212800FFF7B0FE002800D081E7AF2310
:100FC00003265B00EE546B465C1D010022002800E6
:100FD00001F0BCFA002800D073E78A2322785B0076
:100FE000EA5401212200280001F0B0FA002800D0C4
:100FF00067E7862322785B00EA5431003A00280034
:1010000001F0D6F9002800D05BE78823039A5B0043
:10101000EA5004213A00280001F0CAF9002800D063
:101020004FE78423039A5B00EA504AE70C204042D2
:1010300047E7C0469C11002010B582B06A460023E5
:101040000C00D37101210732FFF79CFB002810D15F
:101050006B460122DB79191111402170D910114022
:10106000A17099101140617099110A40DB09E2707A
:10107000237102B010BDC046037D00200B70704785
:10108000052905D8401820300378002013707047D8
:10109000042000234042F9E770B50400150082B037
:1010A000052931D81A4B89005B589F466B4664214D
:1010B0009A1DFFF78BFB002804D16B46DB885B028F
:1010C0002B60002002B070BDC36A2B60F9E7436B50
:1010D0002B60F6E7836B2B60F3E76B469E1D3200B7
:1010E0004421FFF773FB0028ECD133885A02002B10
:1010F00004D1236B2B602123E254E2E72A602123F1
:1011000022630122E254DCE704204042DAE7C046D1
:1011100014B2001010B5012302F0B6F910BDC0469C
:10112000832370B55B00C35C04000D0082B0022B0A
:1011300024D0032B0CD00020012B07D16B460E21AD
:1011400020009A1DFFF742FB002829D002B070BD95
:101150006B460E219A1DFFF739FB0028F6D16B462E
:101160000C2120009A1DFFF731FB0028EED1002D45
:1011700025D02000204901F0BFFBE7E76B460E2198
:101180009A1DFFF723FB0028E0D16B460C219A1D26
:101190002000FFF71BFB6B46DB881B05D6D0E4E77E
:1011A0006B460C21DE889A1D2000FFF70FFB134BC6
:1011B00076041E40FF231B049E42C7D9D5E70422B4
:1011C000FF212000FFF7ACFA00220500702120006B
:1011D000FFF7A6FA0022FF2105432000FFF7A0FA3F
:1011E0006DB20543002280212000FFF799FA6DB20D
:1011F000284340B2AAE7C046E40F00200000FE1FCB
:10120000F0B5C646040000B5012282B08021057AFF
:10121000FFF786FA0122FF212000FFF781FA002262
:1012200000212000FFF77CFAB3235B00E25C9121F0
:101230002000FFF775FA012200212000FFF770FA65
:101240000022FF212000FFF76BFA002280212000FE
:10125000FFF766FA012D34D0032D24D0002D3ED1A6
:10126000012200212000FFF75BFA6B46DE1D0123FF
:101270003370002813D1FA23DB000125012798469B
:10128000320000212000FFF77DFA337801351F423C
:1012900032D0002830D14545F2D10720404202B07B
:1012A00080BCB846F0BD002821D0042200212000D7
:1012B000FFF736FA0028F2D1AF2304225B00E25494
:1012C000EDE700280ED0022200212000FFF728FAC7
:1012D0000028E4D1AF2304225B00E254DFE70820BA
:1012E0004042DCE701212000FFF71AFFEBE7012174
:1012F0002000FFF715FFD8E7FA23DB009D42CED18F
:10130000CBE7C04610B5040000220021FFF708FA21
:101310000122FF212000FFF703FA00220021200014
:10132000FFF7FEF9002291212000FFF7F9F90122D1
:1013300000212000FFF7F4F90022FF212000FFF731
:10134000EFF9002800D010BDAF2303225B0000217D
:101350002000E254FFF7E4FEF5E7C046832330B5F2
:101360005B00C35C0C0083B0042B0ED06B461421D1
:10137000DA1DFFF707FA002805D16A460123D27962
:10138000134213D0237003B030BD6B46DD1D2A001D
:101390001321FFF7F7F9072318212A781340114288
:1013A00009D1042B04D000232370ECE72070EAE776
:1013B000033B2370E7E706204042F2E7F0B5DE4644
:1013C000574645464E46E0B591B006AF0C230C009B
:1013D0003A0014210500FFF777F9031E77D1636007
:1013E0003B89FA215BBA9BB25B0223617B88FE8852
:1013F0005BBA9AB2A3823B7890469946BF235E229D
:1014000076BAB6B27602A0752060E66078895B0095
:10141000EB5A40BAFF32AF5C80B289008B4214D0E5
:101420005843F530FF3004F089F82B7D002B0BD0AA
:101430004346298B59430912B1424FD00004000C96
:101440007043711A04F0A2F880B2002F02D0870115
:10145000FFB2800802ABE7759C460F2767442081E6
:1014600043463200494628000197009401F0D2FC1F
:1014700000282CD109AA93462A0059463B7880328D
:1014800003932376C8CAC8C1C8CAC8C117688035C3
:101490000F60E668A768B1462669BA46B046A68AD4
:1014A000E77DB4465E466468039B746054460B94C3
:1014B0004C460C9444460D94644633765B46B482A5
:1014C000F775D0CBD0C5D0CBD0C50B68136011B0A9
:1014D000F0BCBB46B246A946A046F0BD002F02D0E4
:1014E00000270248B6E70248B4E7C046AE0800004D
:1014F000E08A0000F0B5C646002300B582B0037252
:1015000005000C00FFF77CFE00280ED1280000F03B
:1015100007FA002809D1AF2303225B00210028002D
:10152000EA54FFF74BFF002803D002B080BCB84656
:10153000F0BD6B46DF1D07230026984601220B21D4
:101540002800FFF7EDF8002204000B212800FFF728
:10155000E7F83A00044313212800FFF713F9424645
:1015600064B23B782043013640B2F6B21A4204D04E
:10157000032E04D00028E1D0D7E7032ED5D10C20CC
:101580004042D2E7F0B5C64600B582B01F0008ABB6
:1015900005000E001C78002900D0B9E0142A09D0FB
:1015A000152A47D0042F0FD90B20404202B080BC2F
:1015B000B846F0BD631E9C410E2362429A438421CB
:1015C0001032FFF7ADF8F1E73A000A21FFF7A8F86B
:1015D0000028EBD1631E9C41EF22842128002301C7
:1015E000FFF74AF90028E1D183235B00EF546B46F3
:1015F000DF1D0723984601220B212800FFF790F8F2
:10160000002204000B212800FFF78AF83A00044367
:1016100013212800FFF7B6F8424664B23B78204316
:10162000013640B2F6B21A426CD0032E6DD00028BB
:10163000E1D0BBE7FF21143AFFF772F80022040063
:1016400000212800FFF76CF80022FF210443280046
:10165000FFF766F864B20122802104432800FFF7F7
:101660005FF864B20222852104432800FFF758F88E
:1016700064B20422FF2104432800FFF751F864B24A
:101680000022CD2104432800FFF74AF864B211225A
:10169000CC2104432800FFF743F864B20722FF215E
:1016A00004432800FFF73CF864B20022BE21044343
:1016B0002800FFF735F864B20622FF210443280012
:1016C000FFF72EF864B20922CC2104432800FFF76B
:1016D00027F864B20022FF2104432800FFF720F816
:1016E00064B20122FF2104432800FFF719F864B215
:1016F0000443002200212800FFF712F864B22043BF
:1017000040B253E7032E00D050E70C2040424DE793
:101710000A2040424AE7C046F0B5C64600B582B04E
:101720006B46DF1D072306000025984601220B218A
:101730003000FEF7F5FF002204000B213000FEF719
:10174000EFFF3A00044313213000FFF71BF8424635
:1017500064B23B782043013540B2EDB21A4207D063
:10176000032D07D00028E1D002B080BCB846F0BD00
:10177000032DF9D10C204042F6E7C04610B501F028
:1017800013FF10BDF0B5CE46474680B505001600E4
:1017900085B0032960D0042900D0BCE002AC210050
:1017A000FFF74AFCE378002B46D105236B44002762
:1017B0009846424601212800FFF7AAFA041E45D1A7
:1017C00043461A78FA2153019B1A5B019B181A01B0
:1017D000D31AFA22520090461B029844C900404690
:1017E00003F0D4FEFA217401A41BA400A419E400A0
:1017F00024188900404603F0C9FE0100200003F0D0
:10180000C5FEC019002200280CD001380023FF2893
:1018100006D9013340089BB2FF28FAD81B029BB2BD
:101820001B189AB271212800FEF792FF041E0DD1F9
:1018300084235B00EE5009E005236B441A0000216D
:1018400028009846FFF764FA041E53D0200005B024
:10185000C0BCB946B046F0BD05236B4498461A009B
:101860000021FFF755FA43461A78FA2153019B1AD3
:101870005B019B181A01D31AFA22520091461B02EF
:10188000994473019B1B9B009B19DB00C900070057
:1018900004004846984603F079FEFA218044890006
:1018A000484603F073FE0100404603F06FFE00045B
:1018B0000022010C00280CD00139FF292ED9002369
:1018C000013349089BB2FF29FAD81A0292B2521882
:1018D00092B26B46DA8082235B00EA52002FB5D1C8
:1018E00051212800FEF734FF041EAFD188235B008E
:1018F000EE50ABE76B46512128009A1DFEF766FFBC
:10190000041EA3D16B466A46DB8897791B0A9F4069
:101910000137BFB24DE70424644297E70022D6E7BF
:1019200070B582B06B46FA24DE1D002305003370CB
:10193000E40008E03378012B0BD0013C002C0AD0E6
:101940002800FEF7E7FF31002800FFF707FD002819
:10195000F0D002B070BD07204042FAE7F0B545462E
:101960005746DE464E460023E0B595B00B930C93E8
:101970001D33FF33C35C05000F009846072B07D1CA
:10198000002015B0F0BCBB46B246A946A046F0BD4B
:1019900001228021FEF7C4FE01220400FF2128005D
:1019A000FEF7BEFE0022002104432800FEF7B8FE29
:1019B00064B20622FF2104432800FEF7B1FE64B2A0
:1019C0008321044309AA2800FEF7DCFE08AB1A793C
:1019D000042364B21A43832104432800FEF7A0FEC7
:1019E00064B20722FF2104432800FEF799FE64B287
:1019F0000122812104432800FEF792FE64B20443D1
:101A00002800FEF787FF64B20122044380212800EA
:101A1000FEF786FE01231A0064B204433A4064B222
:101A200002923B4203D04246134200D174E20023AB
:101A30000593049302231A003A4001923B4203D0DB
:101A40004246134200D19DE004231A003A4000921E
:101A50003B4203D04246134200D115E30023002647
:101A60009B46002281212800FEF75AFE0622FF2114
:101A700004432800FEF754FE64B28321044309AAFC
:101A80002800FEF77FFE08AB1A79042364B29A435C
:101A9000832104432800FEF743FE64B20122FF21A4
:101AA00004432800FEF73CFE64B2012200210443F7
:101AB0002800FEF735FE64B20022FF21044328000F
:101AC000FEF72EFE64B20443002280212800FEF7B8
:101AD00027FE64B2204340B2002800D051E7029BA9
:101AE000002B02D04346DB072CD5019B002B02D0F4
:101AF00043469B0735D5009B002B1DD043465B0713
:101B00001AD4A2230B9A5B00EA500C9A0433EA50D1
:101B10005B46A6225B025200AB500023002E0AD087
:101B2000DF4B9C46664473019B1B9B009B19DB00AB
:101B30001B095B421BB26B6043468E223B43520043
:101B4000AB541DE740232800049AFF33EA54059A5A
:101B500001335730EA540DA90622FF3004F0AAFBE6
:101B6000C3E708AB5A791E23FF33EA5408AB9A79CE
:101B700028008F2320305B00EA540FA9FF3009F0C2
:101B800037F8B8E7022294212800FEF7C9FD204368
:101B900043B20022832128009946FEF7C1FD0FAE13
:101BA000041E15D100239A46FA23DB009B465446B7
:101BB00003E001345C4500D1DEE3320083212800DC
:101BC000FEF7E0FD33780343DBB2002BF1D00400D5
:101BD000012283212800FEF7A3FD4B4623431C006E
:101BE00008AB5A1D902104432800FEF7CBFD64B2D8
:101BF0007B22942104432800FEF792FD64B2044343
:101C000063B20022832128009946FEF789FD041E55
:101C100015D100239A46FA23DB009B46544603E085
:101C200001345C4500D1B2E3320083212800FEF785
:101C3000A9FD33780343DBB2002BF1D0040001226D
:101C400083212800FEF76CFD4B4623431C0008ABA4
:101C50009A1D902104432800FEF794FD64B2772278
:101C6000942104432800FEF75BFD64B2044363B291
:101C70000022832128009946FEF752FD041E15D14B
:101C800000239A46FA23DB009B46544603E00134C6
:101C90005C4500D159E3320083212800FEF772FD34
:101CA00033780343DBB2002BF1D0040001228321FF
:101CB0002800FEF735FD4B4623431C000AAB1A00F3
:101CC0009021044328000393FEF7AEFD7F210A9B79
:101CD00064B20443980C084000025A0E0243914635
:101CE000D80A08400204484692466E4A64B2104040
:101CF0000200504602431809014012020906120A66
:101D00000A430F927822DB00134008AA1371942132
:101D100078222800FEF704FD044363B200228321E9
:101D200028000093FEF7FCFC814600281BD108AB7D
:101D3000DC1DFA23DB009B4633002E009A4625006B
:101D4000040003E001345C4500D11BE32A00832139
:101D50003000FEF717FD2B780343DBB2002BF1D0E8
:101D6000350081465646012283212800FEF7D8FC23
:101D70004B46009C90211C43039A04432800FEF725
:101D800053FD64B2044363B2994608AA0A9B1279D0
:101D9000590F89187F22980D10400002DC0BC9B240
:101DA00014400143180A2404104000062143014353
:101DB000109159080A40327240229B01134008AA30
:101DC0001371942179222800FEF7AAFC4C460443A3
:101DD00063B20022832128000093FEF7A1FC814614
:101DE00000281BD108ABDC1DFA23DB009B46330027
:101DF0002E009A462500040003E001345C4500D122
:101E0000B2E22A0083213000FEF7BCFC2B780343AA
:101E1000DBB2002BF1D035008146564601228321EA
:101E20002800FEF77DFC4B46009C90211C43039A42
:101E300004432800FEF7F8FC0A9B08A909799A0ECA
:101E4000521872727F22D90C1140B172190B1140D5
:101E5000F17259090A4032737C229B00134064B22C
:101E600008AA137194217A2204432800FEF758FC33
:101E700064B2044363B20022832128000093FEF77A
:101E80004FFC8146002820D108ABDC1DFA23DB0083
:101E90009B4633002E009A462500040008E0C04609
:101EA00000E7FFFFFFFF00FF01345C4500D174E253
:101EB0002A0083213000FEF765FC2B780343DBB258
:101EC000002BF1D03500814656460122832128009F
:101ED000FEF726FC4B46009C90211C43039A0443CA
:101EE0002800FEF7A1FC0A9A08A90979930F5B184C
:101EF0007F217373D30D0B40B373130C0B40F3733B
:101F0000530A0B40337493080B407374002364B27C
:101F1000044364B2B37497E56B2294212800FEF762
:101F2000FFFB204343B20022832128009946FEF79D
:101F3000F7FB041E16D100239A46FA23DB009B46CA
:101F400054460FAE03E001345C4500D117E2320085
:101F500083212800FEF716FC33780343DBB2002B05
:101F6000F1D00400012283212800FEF7D9FB4B4663
:101F700023431C000AAB1A0090210443280003935A
:101F8000FEF752FC0A9B64B25A04520E1B04DB0F8C
:101F9000942104430492280024220593FEF7C0FBF9
:101FA00064B2044363B20022832128009946FEF7FD
:101FB000B7FB041E16D100239A46FA23DB009B468A
:101FC00054460FAE03E001345C4500D1C3E132005A
:101FD00083212800FEF7D6FB33780343DBB2002BC6
:101FE000F1D00400012283212800FEF799FB4B4623
:101FF00023431C009021039A04432800FEF714FC9D
:102000000A9B64B21BBA25229421044328000D9335
:10201000FEF786FB64B2044363B2002283212800EA
:102020009946FEF77DFB041E16D100239A46FA233B
:10203000DB009B4654460FAE03E001345C4500D103
:10204000A8E1320083212800FEF79CFB337803438C
:10205000DBB2002BF1D00400012283212800FEF71F
:102060005FFB4B4623431C009021039A0443280046
:10207000FEF7DAFB0A9B64B20DAA190E04431B0C8F
:1020800064B211715371D5E47B2294212800FEF7CC
:1020900047FB204343B20022832128009946FEF7E4
:1020A0003FFB061E17D100239A4608ABDC1DFA231E
:1020B000DB009B46564603E001365E4500D147E112
:1020C000220083212800FEF75DFB23780343DBB267
:1020D000002BF1D00600012283212800FEF720FB0F
:1020E0004B4633431E00902106430BAA2800FEF7FF
:1020F0009BFB76B27C22942106432800FEF710FB5E
:1021000076B2064373B20022832128009946FEF777
:1021100007FB061E17D100239A4608ABDC1DFA23E5
:10212000DB009B46564603E001365E4500D120E1C8
:10213000220083212800FEF725FB23780343DBB22E
:10214000002BF1D00600012283212800FEF7E8FAD7
:102150004B4633431E00902106430CAA2800FEF78D
:1021600063FB76B27322942106432800FEF7D8FA67
:1021700076B2064373B20022832128009946FEF707
:10218000CFFA061E17D100239A4608ABDC1DFA23AE
:10219000DB009B46564603E001365E4500D101E177
:1021A000220083212800FEF7EDFA23780343DBB2F7
:1021B000002BF1D00600012283212800FEF7B0FA9F
:1021C0004B4633431E000AAB1A00064390212800F9
:1021D0000393FEF729FB0A9B74B21B061B0C7422A7
:1021E0009421044328009B46FEF79AFA64B2044304
:1021F00063B20022832128000693FEF791FA061E9F
:1022000017D10023994608ABDC1DFA23DB009A4660
:102210004E4603E00136564500D1A2E0220083215C
:102220002800FEF7AFFA23780343DBB2002BF1D08E
:102230000600012283212800FEF772FA069C9021F5
:102240003443039A04432800FEF7EEFA5A460A9BE9
:1022500064B21B0E1A43942104439346280075224E
:10226000FEF75EFA64B2044363B2002283212800C1
:102270000693FEF755FA061E17D10023994608ABC0
:10228000DC1DFA23DB009A464E4603E00136564534
:1022900000D18AE0220083212800FEF773FA237818
:1022A0000343DBB2002BF1D006000122832128007A
:1022B000FEF736FA069C90213443039A0443280023
:1022C000FEF7B2FA0A9B64B21B061B0C762294211D
:1022D000044328000693FEF723FA64B2044363B272
:1022E0000022832128000793FEF71AFA061E16D152
:1022F0000023994608ABDC1DFA23DB009A464E46C4
:1023000002E00136564529D0220083212800FEF73D
:1023100039FA23780343DBB2002BF2D00600012206
:1023200083212800FEF7FCF9079C902134430443E5
:10233000039A2800FEF778FA0A9E069B64B20443CB
:10234000360E64B21E43FFF78CFB07246442ADE4F3
:1023500007267642BFE60724644243E60726764214
:10236000DDE70726764264E7073B35009946564687
:1023700054E507267642E6E60724644228E407246B
:102380006442EFE5073B350099465646EBE40724E7
:10239000644254E4072464425EE6073B35009946F4
:1023A000564692E50726764205E7072676427CE701
:1023B000F0B5CE46474680B585B0002315006A4685
:1023C0000600D370938002290CD903294ED004292A
:1023D00028D0002000242860200005B0C0BCB946E9
:1023E000B046F0BD971C3A000021FEF791FC041E98
:1023F00065D0FA213A78890053019B1A5B019B183A
:102400001801C01A0002F530FF3003F0BFF86B4628
:10241000DB7801335843FA21F5308900FF3003F0AF
:10242000B5F8D8E702AC2100FEF706FEE378002BF2
:102430004DD06B469F1C3A0000213000FEF768FC2F
:102440000023041E984666D0FA213A788900530189
:102450009B1A5B019B181801C01A0002F530FF306F
:1024600003F094F8434643431800D4E7971C3A001E
:102470000021FEF74DFC04000020002CABD13A00F7
:1024800000213000FEF744FC041E57D06B466A461C
:10249000FA219B8816793A781B0A9E4053019B1AB1
:1024A0005B019B181801C01A0002F530FF3089004B
:1024B00003F06CF801363604360C7043ABE76B461C
:1024C00046213000DA1CFEF75DF9040091E7002395
:1024D00098466B469F1C3A0001213000FEF718FC1D
:1024E000041E04D04346584283B29846ACE7062304
:1024F0006B4499461A0071213000FEF767F94B468C
:102500001A881B78120A9340424601339B1A9BB2E9
:102510000400984698E701AA51213000FEF756F9C9
:102520006B469A881B79120A934001339BB2041EB2
:102530009846D0D05B429BB2984685E75121300047
:1025400001AAFEF743F90400A0E7C04630B5140025
:1025500083B0002912D001290DD16B46DD1D2A0060
:102560007021FEF70FF9002803D12B7801335B00AF
:10257000237003B030BD04204042FAE76B46DD1DF6
:102580002A005021FEF7FEF8EDE7C046F0B5D6462A
:102590004F464646C0B584B002AD0F002900060084
:1025A000FEF74AFD041E0ED1614B6A7898462B78DF
:1025B000B8441343AA7813430CD1EB78002B55D1C0
:1025C0002B79002B6BD1200004B0E0BCBA46B14699
:1025D000A846F0BD06236B44187099466B4600214F
:1025E00030005A1DFEF794FB002801D00400EAE7F2
:1025F0004A4646213000FEF7C5F86B46FA215A7963
:10260000824653019B1A5B019B181801C01A0002F5
:10261000F5308900FF3002F0B9FF4B46FA211B78F4
:10262000890001335843F530FF3002F0AFFF5346C5
:10263000002B73D12B78002B06D03E4BC318984546
:102640002AD94246D31A9846AB78002B1ED16B7814
:10265000002BB2D0A5239B009C46604480451BD92B
:1026600043461B1A9846EB78002BA9D06A460023F4
:102670000021D38030000532FEF74AFB002817D036
:10268000A52304009B0098459DD805E02A4B9C4655
:10269000604440008045E3D80424644293E7274A1D
:1026A000042130004244FFF76DF8F76004008AE728
:1026B0006B46002130005A1DFEF72AFB8246002897
:1026C0002ED06B46DA889B79120A934001331B04A3
:1026D0001B0C99466B46FA215A79890053019B1AC3
:1026E0005B019B181801C01A0002F530FF3002F0A0
:1026F0004DFF4B46FA215843F530FF30890002F078
:1027000045FFA5239B009C4660448045C4D95346A1
:10271000002B03D143461B1A984651E7544652E713
:102720006B46512130009A1DFEF750F88246C8E7EB
:10273000CAF4FFFF4E020000B2020000DAFDFFFF04
:10274000F0B5CE46474680B5674B85B002AD0B600D
:102750000E0029000700FEF76FFC041E0DD16A78F9
:102760002B781343AA7813430DD1EB78002B5AD161
:102770002B79002B69D13368FB60200005B0C0BC09
:10278000B946B046F0BD01AB187098466B460021C3
:102790003800DA1CFEF7BCFA002801D00400ECE790
:1027A000424646213800FDF7EDFF6B46FA21DA7804
:1027B000814653019B1A5B019B181801C01A000245
:1027C000F5308900FF3002F0E1FE4346FA211B7824
:1027D000890001335843F530FF3002F0D7FE4B46F5
:1027E000002B77D12B78002B05D0404A33689446D4
:1027F00063441B183360AB78002B0AD16B78002B35
:10280000B3D0A52292009446336863441B1833600A
:10281000ABE7374B9C463368604440001B1833607D
:10282000EB78002BA4D06A46002300219380380067
:102830000332FEF76DFA002818D0A52292009446C4
:10284000336804006344336097E701AA0421380029
:10285000FFF7AEFD274A019B9446326863449B18FC
:102860003360002800D187E7040086E76B4600212B
:102870003800DA1CFEF74CFA814600282CD06B4653
:102880009A881B79120A934001331B041B0C98464B
:102890006B46FA21DA78890053019B1A5B019B1879
:1028A0001801C01A0002F530FF3002F06FFE4346F7
:1028B000FA215843F530FF30890002F067FEA52267
:1028C00092009446336863441B1833604B46002BD8
:1028D00000D14DE74C4650E75121380001AAFDF7E1
:1028E00075FF8146CBE7C046360B00004E02000064
:1028F000B202000026020000F0B5C64600B50D7811
:1029000007000E0082B0002D1ED00024631CFF2D96
:1029100007D0042D1AD90420404202B080BCB8462A
:10292000F0BDF35CA21C022B43D024D8002B32D084
:10293000B25C3319DB7812029B18B12252000434C6
:10294000BB52355D002DE1D10020E6E7F35C023497
:1029500098462A00311901A803F0ACFC64192B0039
:102960004146380001AAFDF787FE355D002DD4D021
:102970000028CBD0D1E7032BCDD1B25C3319DB7863
:1029800012029B18B42252000434BB52355D002D54
:10299000BCD10020C1E7B25C3319DB7812029B186E
:1029A000B02252000434BB52355D002DAED1002060
:1029B000B3E7B25C3319DB7812029B18B2225200E3
:1029C0000434BB52355D002DA0D10020A5E7C046E0
:1029D000F0B5C64600B5ACB00EAD0C00290017002E
:1029E000FDF7A4FFEB6B0600A34207D3AB6D3000ED
:1029F0001B0C3B602CB080BCB846F0BD6B6DA34295
:102A000030D9382268461DA903F054FC019B9C4232
:102A10002CD9029B9C422BD9039B9C4224D9049B1A
:102A20009C4227D9059AA242924152420532930014
:102A3000EB18996B9300EB18DB6B98469300EB183F
:102A40005B6D4145D3D09200AD18AD6D581B434628
:102A5000591A090A02F09AFD43461B1B1B0A4343FD
:102A60005B19C4E72B6FC2E70322E0E70122DEE730
:102A70000222DCE70422DAE7F0B55746DE464E468E
:102A80004546E0B50B6989B09A4606AB8946CC68E5
:102A9000D91D07009346FEF7EFFA002804D106ABD4
:102AA000DB79002B00D085E106AB3800D91DFEF79D
:102AB000E3FA8046002834D1802212029446002294
:102AC00063011B1B9B001B19DB0063441B0C009361
:102AD00006ABDB790192002B11D04B469A8ABB6979
:102AE000534380331B0A5A01D21A9200D318DB00D9
:102AF0001A000193C8239B039A4200D970E18623F0
:102B00005B00FA5C1300083B591E8B4102330293B1
:102B1000009B002B0DD1B54B5A461360B6225200D4
:102B2000BB50404609B0F0BCBB46B246A946A046E1
:102B3000F0BD84235B00FB588034039353019B1A40
:102B40005B019B181A01D31A1B021A0088235B0031
:102B5000F958F5324D018C4605916D1AFA21FF3274
:102B600004920433FA5CC90053019B1A5B019B1861
:102B70001E01F61A3602F536FF363000AD00654408
:102B800002F004FDFA21ED002D188900300002F05A
:102B9000FDFC0100280002F0F9FC039BFA219C4691
:102BA0005D01ED1A0600C9000498AD00654402F00D
:102BB000EDFCFA21ED002D188900049802F0E6FCE6
:102BC0000100280002F0E2FCFA21029B3618734350
:102BD000D802F5308900FF3002F0D8FCFA21844B8E
:102BE00089005843F530FF3002F0D0FC5346240AE8
:102BF00044435801C01A80005044C000000C0099A2
:102C0000000402F0C3FC7B4B8034984200D9DDE025
:102C100083001B181D01ED1AED00240A00D1D3E03A
:102C200063001B199B0080241A00E405A408A3423A
:102C3000FCD30026A3197608934201D8D21A36197C
:102C4000A408F7D14B461B7E7600002B00D0B9E0DC
:102C5000FA2252009246009B67481B049A444B4656
:102C60001B896649584302F091FC019B8146FA2179
:102C7000580053468900181A02F088FCFA21030212
:102C800089005046009302F081FC0100009802F098
:102C90007DFC80234A4600025B021B1A5A43130044
:102CA000802212029A1880231B029C46520C624416
:102CB0005243920B93009B189A009A185201624457
:102CC000120C524380231B02EB1880251B0C5B4324
:102CD0009B18ED05AB4202D2AD08AB42FCD32A19DA
:102CE00064089A4201D89B1A6419AD08F7D12004F0
:102CF0006421323002F04AFC310002F047FC404BC4
:102D00005843404B9C46404B604498426AD83F49E8
:102D100002F03CFC40430400059BFA219C46039EC4
:102D2000C9006644F536FF36300002F02FFCC82398
:102D30005B039946FA2181448900300002F026FCA9
:102D40000100484602F022FC8023DB059B089842E4
:102D5000FCD3002B11D0002299185208814201D8CF
:102D6000401AD2189B08F7D1FA211002F530FF3033
:102D7000890002F00BFC404324188023DB059C42B1
:102D800005D29B08A342FCD8002B00D1C4E6EA1868
:102D90006D08A24201D8A41AED189B08F7D16B0167
:102DA0005B1B9B00114A5B19DB00934200D8B3E622
:102DB0001300B1E64B469A8ABB69534380331B0A22
:102DC000E41871E6124A7DE7013429E71800830010
:102DD0001B181D01ED1AED00240A00D020E7F3E7CF
:102DE00001938CE6E124240696E7C046AE878F0265
:102DF00077060000666666009A9906005C1200007D
:102E0000B50B0000881300000F279F241027000037
:102E100000C40900F0B557464E464546DE46E0B5CB
:102E20008BB0984602AB9E1D0023019204AF02AA0C
:102E3000D3715372538133703B7009934906954B9C
:102E40000D0FEB4001221A400092002132000400D5
:102E5000FEF716F933789A46002B5DD000283AD059
:102E60003B78002B61D100239A469B46002399466C
:102E700002AB01212000DA1DFEF702F9002823D160
:102E800033785A42534152461A4313002622A35420
:102E90000123042D04D002ABDB795A425341DBB24B
:102EA0002722A3543B7800205A4253415A461A43E2
:102EB00013002822A35402AB5B7A5A4253414A467C
:102EC0001A4313002922A3540BB0F0BCBB46B246F0
:102ED000A946A046F0BD2000149905AAFFF7CCFD35
:102EE0000028BDD1149B2000196909AAFFF770FDC5
:102EF0000028B5D1099B149A00215381200006AA0D
:102F0000FEF7CAF80022069B9246002B04D0059AD1
:102F100093429B415B429A4600280FD03B78002B9E
:102F200009D000239B469946A2E700239A46002336
:102F30009B4699469CE700239B4697E73A0002216F
:102F40002000FEF79DF83B789B46002B3CD00028E4
:102F5000E7D10221200007AAFEF79EF800280DD035
:102F6000BA2202AB5B8952005B02A350079A002A87
:102F7000E1D09A42924153429B4677E70122FF21DA
:102F80002000FDF7CDFB0028EAD102AA94460A23CF
:102F900063441A00B6212000FDF718FC0028DFD199
:102FA0000022FF212000FDF7BBFBBA22002102AB6B
:102FB0005B8952005B02A350079A8B46002A03D01C
:102FC0009A42924153429B46002800D04EE702AA03
:102FD0009446092363441A0003212000FEF750F8A9
:102FE00002AA527A9146002A16D0002800D03DE766
:102FF00043468146002B05D0019B4146180202F052
:10300000C5FA81460321200008AAFEF745F8089B6F
:1030100099459B415B429946002800D028E7009BD8
:10302000012B23D00A2D18D81B4AAB00D3589F463A
:103030000523159A0121137002AB2000DA1DFEF75B
:103040001FF8002800D03FE733785A4253415246D8
:103050001A4313002622A3541DE75B46012B09D116
:103060000323159A137003E70423E2E7159AFE334E
:103070001370FDE6042D09D04B46012B06D05346B4
:10308000CB46012BD5D0D346D146D2E70223159AA1
:103090001370EDE6A1F000002CB20010F0B5574619
:1030A0004546DE464E46E0B587B01700119A0293BA
:1030B0000500129B002A00D172E000220192043226
:1030C00090460432914608329246039500910724B7
:1030D000109BDD081C402F2B00D9A3E040239B460A
:1030E0003E3B2A009C462900BB5C914200D182E015
:1030F0000120184233D16046184200D08CE00220F3
:10310000002546461E422BD1E81C052D18D04E4600
:103110001E4225D1281D042D12D056461E421FD115
:10312000681D032D0CD020261E4219D1A81D022D8A
:1031300006D05E461E4213D1012D01D0002B6DD169
:103140000132062AD0D1129B109A1A6032204042D6
:1031500007B0F0BCBB46B246A946A046F0BD002071
:10316000D20012181000B430304B80098000C358D0
:103170000099581E83418B42E5D107240123144056
:10318000A3400299D0080C5C23430B54531C1093AA
:10319000019B119A01330193934298D1039D129B95
:1031A000109AB0211A6028000623029AFDF764FAEB
:1031B0000028CDD104AC06232200B0212800FDF761
:1031C00083FA029923780A789A42BFD14A786378C1
:1031D0009A42BBD18A78A3789A42B7D1CA78E37869
:1031E0009A42B3D10A7923799A42AFD14A79637965
:1031F0009A42ADD0AAE7234101251800DBB228424C
:103200000ED1601C072C9BD065461D42A8D1A01C86
:10321000062C95D0250074E70120A1E707209FE741
:1032200020009DE71A00129B1A608FE79012002081
:1032300010B582B06B460C009A1D2821FDF7C6FA26
:1032400000280BD16B46DA8813051B0D120507D534
:10325000054A9446FA2263445343236002B010BDEA
:10326000FA2253432360F9E700F0FFFFF0B5AE25E3
:103270000F0089B06D00C02201210400465DFDF7FA
:103280004FFA002801D009B0F0BD200001A9FEF7D7
:1032900031F90028F7D10122FF212000FDF740FA83
:1032A0000028F0D13A00B6212000FDF78FFA00285F
:1032B000E9D10022FF212000FDF732FA0028E2D1F7
:1032C000320001212000FDF72BFA0028DBD16655E2
:1032D000D9E7C046F0B50E00150087B00122FF21E6
:1032E0000400FDF71DFA002835D0A8210022230094
:1032F00049006250513304316252FF330021002DE6
:1033000011D022488268002A0DD10027511C002FBD
:1033100009D12C2907D0B6329209920087580A00A9
:10332000511C002FF5D005AA0292220057320091BD
:10333000200029000196FF32FFF7B0FE002808D1D7
:1033400042230122FF33E2544023FF33E65401338A
:10335000E55407B0F0BD00224F212000FDF7E0F951
:103360000028C2D12C224E212000FDF7D9F90028D7
:10337000BBD10022FF212000FDF7D2F90028B4D1F3
:10338000B422B6212000FDF7CBF9AEE79012002061
:10339000F0B5DE4657464E464546E0B583B0984602
:1033A0000EAB1B780E009B460FAB1B78FF219A4695
:1033B0006B46DF1D0023914601223B700500FDF79F
:1033C000AFF90022040000212800FDF7A9F900222E
:1033D0000443FF212800FDF7A3F964B204435B46D0
:1033E00064B2002E25D0002B31D15346002B38D1AA
:1033F0000122FF212800FDF793F901220021044357
:103400002800FDF78DF964B20022FF210443280053
:10341000FDF786F910223B7864B2934320430D9A5E
:1034200040B2137003B0F0BCBB46B246A946A046FA
:10343000F0BD002B1DD15346002BD9D0434680222E
:10344000EE212800FDF718FA044364B2D0E7CB213F
:1034500028000C9AFDF796F95346044364B2002BFA
:10346000C6D03A00EE212800FDF78CF9044364B27F
:10347000BEE74A46CB212800FDF752F953460443E4
:1034800064B2002BB4D0D9E7F0B54746CE4680B53C
:103490001F00AE235B00C35C87B0994600266B46D5
:1034A0008846150001210122DE750400FDF738F978
:1034B000002806D043461E7007B0C0BCB946B046CF
:1034C000F0BD412200212000FDF72AF9002803D099
:1034D000002342461370EFE72000FEF721FA002890
:1034E000F6D100212000FEF717F90028F0D10022C4
:1034F00000212000FDF714F90028E9D1012F33D075
:1035000042461070022201212000FDF709F900282F
:1035100002D000232B70CFE7012200212000FDF70D
:10352000FFF80028F5D12000FEF7FAF90028F0D1C5
:1035300000212000FEF7F0F80028EAD10022002147
:103540002000FDF7EDF80028E3D1012F1CD02870F2
:103550004A4601212000FDF7E3F80028ACD1AE2354
:103560004A465B00E254A7E717236B4401934346A6
:103570000390009300220023012120000297FFF70F
:1035800007FF0028BED097E717236B4402900093F3
:10359000002200230121200003970195FFF7F8FE88
:1035A0000028D5D088E7C046F0B54546DE465746E8
:1035B0004E460023E0B58FB0170006AA137453746B
:1035C000B4220B935200825A0E009046A822520059
:1035D000835004328352543AFF21FF3A0500FDF72D
:1035E0009FF8041E07D020000FB0F0BCBB46B246C7
:1035F000A946A046F0BD00224F212800FDF790F813
:10360000041EF0D12C224E212800FDF789F8041E5B
:10361000E9D10022FF212800FDF782F8041EE2D143
:10362000B422B6212800FDF77BF8041EDBD100226E
:1036300080212800FDF774F8041ED4D106A98C4619
:1036400011220023280062440AA9FFF71DFF041E6F
:10365000C9D1A8235B009C46AC4463460493AB23CA
:103660005B009946543BFF3B9C4605339B464346D3
:10367000A944069363460020BC46B2464F460593D4
:1036800007950723C5081840062D33D00223984616
:103690000233290099462A007B5C914200D1ACE0BC
:1036A00001241C4229D144461C4200D0C2E04C46B1
:1036B0001C4200D0BCE0002503245E461E421DD102
:1036C0002C1D042D13D010261E4217D16C1D032D66
:1036D0000DD010361E4211D1AC1D022D07D0203660
:1036E0001E420BD1012D02D0002B00D0A4E00131ED
:1036F0000629D1D13224644275E70024C80000199C
:103700000300B433C9499B099B00CB58002BF1D16E
:10371000072501230540AB40049AC408155D01301C
:103720002B431355059B013B0593002BA9D1069B09
:10373000079D05900B909846564606238A4628001A
:10374000B021B9466746FCF797FF041E00D04AE750
:1037500006230CAAB0212800FCF7B6FF06AB1A7EA0
:10376000A8235B00EB5C04009A42C3D106AB5A7EEF
:103770005223FF33EB5C9A42BCD106AB9A7EA9235D
:103780005B00EB5C9A42B5D106ABDA7E5423FF3383
:10379000EB5C9A42AED106AB1A7FAA235B00EB5CCE
:1037A0009A42A7D15623FF33EA5C06AB5B7F9A426D
:1037B000A0D1002800D016E706AA9446122363443D
:1037C00019002800FFF752FD041E00D00BE706ABDE
:1037D0005B8A434546D9A82352465B00E8500599C9
:1037E0000433E8520B00B4339B099B00D358002BE1
:1037F00026D12B2924D80131F4E7034101251C00EF
:10380000DBB22C421AD1441C072800D16FE7454691
:103810001D4200D072E7841C062800D167E75D07CF
:1038200000D56BE7C41C052800D160E7050044E71C
:10383000022463E7012461E707245FE704005DE7F2
:103840000BAB0293032392469B46019300914A4699
:1038500001212800049BFFF721FC002800D1E7E0AC
:103860000400C0E600220692984500D8D5E06A46DA
:10387000127E089242469B1ADA179B18534009930E
:1038800003230793062204990CA802F013FD059B5D
:10389000DA08934607221A4094462F2B00D929E7CD
:1038A0005B4622001C006346944605934A46115D20
:1038B000A3456BD001220A427AD101320A427BD160
:1038C000002004230B4223D1C21C052819D0043345
:1038D0000B421DD1021D042813D008330B4217D10F
:1038E000421D03280DD010330B4211D1821D022836
:1038F00007D020330B420BD1012802D0002900D081
:103900008FE00134062CD1D13220404204006AE617
:1039100023006446DB009B181A005146B43292091A
:1039200092008A58511E8A4106998A4261D1079AAB
:103930000720013293460122184082400498D9089A
:10394000405C01330243049805934254062302006D
:10395000B0212800FCF790FE002881D106AA12238E
:103960009446634419002800FFF780FC002800D02B
:1039700076E706AB5A8A4346D31AD9175B184B40F1
:10398000424523D85A46099307927BE70A00059BD4
:1039900001201A41D1B2024212D15A1C072BB0D0D9
:1039A00002200842B4D19A1C062BAAD0180088E73E
:1039B000230000226446ADE7230001226446A9E704
:1039C00062469C46230014006246A3E7099A9A4285
:1039D00012D35B463360089B01223B704223FF33C6
:1039E000EA5440233268FF33EA543A780133EA5408
:1039F000F9E5079B9B46ECE70623B0210CAA2800BB
:103A0000FCF73AFE8046062204980CA902F052FC0C
:103A10004346002BEDD04446E5E500239B46089342
:103A2000D7E723000722644674E7C04690120020BF
:103A30000B9B06AA944605931223634419002800A1
:103A4000FFF714FC002800D00AE706AB5B8A434569
:103A500002D80122069207E701230893B9E7C0467E
:103A6000D0231B061B68AC4A9900F0B5DE468B4696
:103A700051585A4253412F2257464E4645465B42C3
:103A800093439A46A54BE0B59C4683B0002601912E
:103A9000E244002938D0A24B99465246F308083335
:103AA0009B009D580123340098460836002D22D0F3
:103AB0000F212000294001342D09002919D04B463F
:103AC0005A469A580300C240203BDB171340424637
:103AD00013420CD107220F000240920097403A0097
:103AE000C308904F3C339B00DA51019B9847002D4F
:103AF00001D0B442DCD3202ECFD103B0F0BCBB4602
:103B0000B246A946A046F0BD854E5F4600210F2370
:103B1000B346CC0822005046083292001258002AC0
:103B200000D1D0E0180010408046100913421AD08E
:103B30005D46ED59A94620256D42AC468C4465464C
:103B4000ED17AC464D46CD40A94665464E4635403C
:103B50000126354204D14646724D3C34A4006651DC
:103B6000002800D1AFE01C000440A446140A034220
:103B70001AD0481C80465846C059464681464D4694
:103B80000800F5401F38C01728400125284208D1F9
:103B900065462D01AC46F0086646624D3C3080001B
:103BA0004651002C00D18EE0180020408446100BB6
:103BB000234211D08C1CA0465C46E4594646A146DF
:103BC0004D460C00F5401E3CE4172C4001252C42CC
:103BD00000D182E0002876D01C000440A446140CDA
:103BE000034210D0C81C80465846C05946468146FC
:103BF0004D460800F5401D38C017284001252842D1
:103C000075D0002C5FD0180020408046100D234254
:103C10000ED00C1DA4466546414CE459EC40A1462B
:103C20000C004D461C3CE40F2C426AD000284AD0C0
:103C30001C000440A446140E034218D0481D8046C0
:103C400045463748C059E840814608004D461B3874
:103C5000C00F284209D165462D05AC464046664650
:103C6000C008304D3C3080004651002C2BD018004D
:103C700020408446120F23422AD029488C1D8146B9
:103C8000C059E0408046080045461A38C00F284217
:103C900006D1E0086446234D3C30240680004451A0
:103CA000002A10D04846C059CC1DE0408446080088
:103CB00065461938C00F284205D1E0083C30194C40
:103CC0001207800002510831202900D021E714E7B3
:103CD000002AF8D012488146E4E765462D02AC463A
:103CE000F40866460F4D3C34A400665172E7654601
:103CF0002D03AC46F00866460A4D3C308000465124
:103D00007FE745462D04A84664464646E408054D2F
:103D10003C34A400665189E7981D002030410140E1
:103D2000CC23002000400140094A83009A1810B5B6
:103D300014684022544080322240064CC000A44601
:103D400063441A60044B9C466044416010BDC04609
:103D500004C0014004D0014000400140074B8000F6
:103D6000C3181B68C90092000A435A400C23134031
:103D7000034A9446604403607047C04604C0014053
:103D800004D00140F8B545469846D0231B06DE46D0
:103D90001C689B462B4B57469A46A3004E469946B5
:103DA000E0B5534616004A469B5807000D00002B0D
:103DB00034D04346002B3FD053464A4641469950A3
:103DC000D0231B061C6863425C412F2207206342FC
:103DD00093431D4A38409446FA08110080008540FC
:103DE0003C311A486344890092000D509B18002E04
:103DF0000ED0802292019446634401210D201D6063
:103E000000F00AF9F0BCBB46B246A946A046F8BD90
:103E1000C0229201944663441D60F3E74346002BA1
:103E2000D1D0534641460D2099500022084900F058
:103E300055F95B461C68C6E70D20054900F048FAB5
:103E4000BAE7C046981D00203041014000400140C3
:103E5000613A00100123D0228340120693629361DD
:103E6000094A83009A1811684022514080320A4062
:103E70000649C0008C4663441A60054B9C460523E6
:103E8000604443607047C04604C0014004D0014014
:103E9000004001408023DB051868000F7047C046D2
:103EA0000FB400B5084883B004F062F8049B002BFF
:103EB00007D005A91800019103F064FE034804F03F
:103EC00057F8012003F076FE64B0001074B00010C3
:103ED00070B5EFF3108C72B60D4D2B68002BFCD033
:103EE000BFF35F8F0724CB08C618C05C01230C40CA
:103EF000A3401C000440034207D118433070BFF3B5
:103F00005F8F2C608CF3108870BD1000FFF7C8FF26
:103F10002C0100D0F8B54746CE46884680B5EFF371
:103F2000108C72B61C4D2C68002CFCD0BFF35F8F38
:103F30009A4222D807210126894602E001329342A3
:103F400018D34D4637001540AF40D4080119045D21
:103F50002742F3D110003C430C70BFF35F8F002267
:103F60000D4B1A608CF3108800280EDBC0BCB946DC
:103F7000B046F8BD01204042EFE7BFF35F8F00235A
:103F80002B608CF31088012040424346002BEDD07B
:103F90000898FFF785FFC0462C0100D0044A10782E
:103FA000431CDBB2172B00D9102313707047C04697
:103FB000A012002010B5064B064C82B00100009301
:103FC00018221F232000FFF7A5FF02B010BDC04636
:103FD00078B00010A81D00200021044B044ABFF354
:103FE0005F8F02C39342FAD17047C046000100D0F0
:103FF000800100D0054B064A1360064A13605360E7
:104000009360D360136153619361704780808080B7
:1040100000E400E004E400E01F2318401E3B83405E
:10402000002905D0C021044A49005350136070474D
:10403000802201498B50FAE700E100E00122824032
:10404000034B1B6813405A1E9341D8B27047C046B9
:1040500000E100E001238340014A13607047C0463D
:1040600000E200E0064B10309B688000C358054A10
:1040700000209B1A2F229A424041C0B27047C0468E
:1040800000ED00E0A412002070B50D00EFF31086E3
:1040900072B60F4A1368002BFCD0BFF35F8F0D4B35
:1040A00010309B6884001B590B4A934203D09D42F9
:1040B00001D001F019F9074B9B681D51BFF35F8FC9
:1040C000BFF35F8F0022024B1A6086F3108870BD29
:1040D000240100D000ED00E0C1010010F0B557460A
:1040E0004E46DE464546E0B585B006000091170015
:1040F000EFF3108B72B66A4A1368002BFCD0BFF343
:104100005F8F0025674B5D579A46002D00DAA9E0C6
:104110006B00654C01935B199B009846A146C14416
:104120004B4652469B7910361370604BB6009B6825
:1041300099590B1B2F2B33D95D4B994200D0ACE022
:10414000019B42469C465B4B6544AD0063535A4B12
:104150000232A218043B9B1A1B05584A5B0D6519D5
:1041600013436B80564B0121AB80FF23AB71009B47
:10417000EF71AB604B460B4319004C4B9B68995158
:10418000BFF35F8FBFF35F8F0022454B1A608BF345
:10419000108805B0F0BCBB46B246A946A046F0BDAB
:1041A00001200A008243D3798C46BB4231D8454670
:1041B000130044491B1B5B415943090D3D4B63539D
:1041C0003D4B02356519043B5B1B1B053B4D5B0DED
:1041D0002B43AA464D466B800425AC465546E04429
:1041E000131F44441B1B1B055B0D1D434B4699715C
:1041F00000999D8099604946DF71334B01431360FC
:10420000BBE75800C01880002018C179B9422FD9E7
:1042100002000623D356002BF3DA02932B4B6146A0
:104220000393131D9A4604235B429C46E144504687
:104230004B461B1A1B055B0D9C46204B95719846FF
:104240006346404603439380019B5A199200039BA7
:10425000A418A380029B1C4AA371009B2260E771F3
:10426000A3608AE701F040F8002553465D574FE709
:10427000908802934005131D9A46031561469C469B
:104280004046D444634604302018181AE023000541
:10429000400D1B0218430390C5E701F025F84FE7D6
:1042A000240100D002240020A412002000ED00E030
:1042B000C101001000A1FFFFD412002000E0FFFFA9
:1042C00001BDFFFFAAAA00000148804701BD000010
:1042D000F0B5DE4657464E464546E0B50C0083B085
:1042E000EFF3108872B6634A1368002BFCD0BFF35B
:1042F0005F8F614B61499A68030010339F00D55965
:1043000001938D4243D0A54254D05D4EAA1B2F2A63
:104310003DD85C4B9B461B68994601231A009C467E
:1043200082404B4613401F22994663460240934009
:104330009A4680225B4650469850BFF35F8FEFF35A
:1043400005839B46002B37D0019B5B4501D000F0D5
:10435000CBFF01232A009A439068844208D176E07B
:104360004B005B189B00F3189868844236D01A0003
:10437000062151560029F3DA844254D04B46002BD3
:1043800027D0C02251463F4B5200995019603A4BFA
:104390009B68DD51BFF35F8FBFF35F8F0022354B0A
:1043A0001A6088F3108803B0F0BCBB46B246A94639
:1043B000A046F0BD0D00EAE72A0063469A439068E4
:1043C0008442D5D106201056130000280ADA0D00C9
:1043D00031E0802351462B4AD150D8E706201856A9
:1043E000002821DB42001118890074188B46A1684F
:1043F0009960E179D971062161569971002924DB10
:10440000A488F11A640524155C44091909051E4C99
:10441000490D2143998013181C4A9B001178F31809
:1044200099711070AAE713005946002914D1FF3181
:1044300091711749918015490A789A71154A9B1B09
:104440005B415A43120D0A7098E71149E2E70620D2
:10445000105613000028C5DA0F4A1049D21A083A3C
:104460005002400D014399800D4952080A43DA80F9
:1044700084E7C046240100D000ED00E0C101001037
:10448000A412002000E100E000E0FFFF0224002071
:1044900001BDFFFFAAAA0000DE12002000F0FFFF0E
:1044A00000F8FFFF70B501240443EFF30581EFF33B
:1044B000108C72B6214A1368002BFCD0BFF35F8FBB
:1044C0001F4B05001F4AED1A6D416A43120D1E4D28
:1044D0008900AE6852B27658A6421CD006215956C1
:1044E00091421CD012215956914222D01E21595678
:1044F000914220D02A2159560324914210D0134BC7
:1045000019781A708171BFF35F8F00220B4B1A600C
:104510008CF3108870BDAB680D4C5C50EFE7002445
:104520006100091989005B18FF2199710949998077
:10453000E5E70124F4E70224F2E7C046240100D0B5
:10454000A4120020AAAA000000ED00E0022400202E
:10455000C101001001BDFFFF10B5084B084C82B02F
:1045600001000093002205232000FFF7D3FC002860
:1045700001DB1F23181A02B010BDC04694B0001012
:1045800006240020024B9C4661448900016070476C
:104590004000003470B5114C114DAC420FD2FF26D3
:1045A0002368002B0CD0FFF7F9FC01002000FFF777
:1045B000E9FFA680BFF35F8F0834AC42F0D370BD33
:1045C000FFF7ECFC01002000FFF7DCFF2671BFF3D2
:1045D0005F8F0834AC42E3D3F1E7C046701300208C
:1045E0007813002010B50400FFF7D8FC010020006C
:1045F000FFF7C8FFFF232371BFF35F8F10BDC046D5
:1046000010B504000120FFF7D5FC034BC3189B0035
:104610002360BFF35F8F10BD40000034034B9C4606
:10462000614489000160BFF35F8F70474000003430
:104630000A4B1968EFF3108072B60A68002AFCD0A2
:10464000BFF35F8F1B68BFF35F8F00221A6080F398
:10465000108840BF002000217047C046E0230020A2
:10466000F0B5DE4657464E464546E0B587B0EFF317
:104670000583032201251A40954091008846A946EA
:10468000B14B03925C58B14B1D60B14B04934B4648
:10469000B04843630823E55E002D37DAA3881BB2D8
:1046A000002B00DBADE0A379002B00D0EEE0082367
:1046B000E15E002920DB4B0062695B18DB00D31848
:1046C0009E68DD68731C00D10DE1A24801004144E1
:1046D000826A0B69B71A9B1A9F4215D30123026A9B
:1046E000039883401A420FD09A4800F0B1FB8D42E4
:1046F00002DCCCD18642CAD940BF07B0F0BCBB4671
:10470000B246A946A046F0BD0E61EDE762696B00B6
:1047100092465B19DB009A4453469E68DF6800F0BE
:1047200097FB8F42BADC00D1FFE0002F00DAE4E013
:104730005246534652691B699346049A934200D1EC
:10474000D5E052460821605E528800045946104365
:104750009847009001910099019A0B0010001343B3
:1047600000D1CAE013000A00B61A9F41002806DBF8
:10477000784800F06DFB009E019F36184F4153466C
:104780009E60DF6000229A5E002A00DA86E753000E
:1047900099186069C900411802938B68C9689B46E3
:1047A000B94200DD7AE702D1B34200D976E70823A7
:1047B0009C46A444059565462281A446029B2C0094
:1047C00006E053009918C90041188D68C968AB46C6
:1047D0009B18DB00C318B94206DC00D1AFE01C0017
:1047E0000023E25E002AECDA230064469C4653462E
:1047F0001A806346059D1D80A3881BB2002B00DA3A
:1048000051E72269EFF3108172B61368002BFCD0D8
:10481000BFF35F8F0123A7885B42A3803FB2236968
:10482000BFF35F8F00221A6081F31088002F00DA37
:1048300039E72300083322009A4666697B00DB19BA
:10484000DB00F318996850468C460824115FDD6838
:10485000002910DB029306E0AB4240D00023E15E6A
:104860002000002906DB4C006418E4003419E368DA
:10487000AB42F1DD029B078000201F5E1980002FF4
:10488000DCDA1400A379002B00D110E70023A37118
:1048900026000823E15E08364B1C00D12CE7B44605
:1048A000656903E084464B1C00D100E74B005B18B0
:1048B000DB00E8180A00E95E43881BB2002BF1DA3E
:1048C00001267642F7178660C7600826A35F9342E9
:1048D000E9D063461980238903802281E3E7A36836
:1048E0006345BBD9C6E76B1C00D0EEE6FCE65B4631
:1048F00058461B69984700281BD153461B882269DC
:104900002381EFF3108372B611680029FCD0BFF346
:104910005F8F514662880A8022696580BFF35F8F8E
:104920000021116083F31088B8E6864200D8FCE6C7
:10493000B4E65B461A685B68009201930BE7B345E7
:1049400000D84CE750E7C046BC2300203C7005402F
:10495000614600100040054070B52E4C2569002DC1
:1049600004D00A212C48FFF70DFE70BD2B4E032109
:10497000300000F063FAE660FFF710FB284B0322DB
:104980009C46D02322701B061B6801216370254BB7
:104990006044A3600F23800020610220638063696C
:1049A0004942A18019800231198647311D8358522E
:1049B00018315A5275325C39995218320131995274
:1049C0001832013199521832013199520835183292
:1049D0009D520231183299521832013199521832CF
:1049E00001319952183201319952183201319952DC
:1049F0001832013199520C4B0C49DC6001303562A0
:104A0000FFF742FB01210320FFF706FB084B1D6067
:104A1000A7E7C046EC120020E0230020004005403C
:104A200040000034FFFF1000BC230020614600104E
:104A30003860054000487047EC120020F8B51F00B0
:104A400008AB1B7804001600002B08D100F008FA10
:104A500032003B00121A8B41002B00DA52E022692F
:104A6000EFF3108072B61368002BFCD0BFF35F8F9A
:104A70000223E15E63694A005218D2009B18226942
:104A8000002936DB1D886580BFF35F8F0025156028
:104A900080F31088069A9E60DF601A61079A5A6157
:104AA0005A8801325204520C101C002A1FD082B2C4
:104AB0005880080410432669EFF3108772B63268F5
:104AC000002AFCD0BFF35F8FA2881A80A1802369DF
:104AD000BFF35F8F00221A6087F310880A4923789A
:104AE0008C4601329A40E36863441A60F8BD0120A5
:104AF000DDE7BFF35F8F0023136080F31088012090
:104B00004042F3E70020F1E73C20000070B50100CF
:104B10000469EFF3108C72B620680028FCD0BFF354
:104B20005F8F02200D5E4C6968004019C000241898
:104B30000869002D36DB26884E80BFF35F8F002684
:104B400006608CF31088E360638804980133206169
:104B50005B0405985B0CA26060611A1C002B1FD0DF
:104B600093B22804628018430A69EFF3108C72B67E
:104B70001368002BFCD0BFF35F8F8B8823808D8060
:104B80000B69BFF35F8F00221A608CF310880B78DB
:104B900001329A40CB6808498C4663441A6070BD64
:104BA0000122DDE7BFF35F8F002303608CF31088E1
:104BB00001204042F3E7C0463C20000010B5438985
:104BC0000A1493421ADD53009B184269DB00D31884
:104BD0000469EFF3108C72B62268002AFCD0BFF390
:104BE0005F8F5A88090494B2090C8A4208D003697D
:104BF000BFF35F8F00221A608CF31088002010BD75
:104C00008022120214435C80012302698371BFF386
:104C10005F8F002111608CF31088044902788C4664
:104C20009340C268012062441360E8E73C20000022
:104C300040787047F0B5C64600B582B0040000F079
:104C40000FF9FA2206000F00200000230021920035
:104C500001F0C0FA8019794104000D1E02DA012426
:104C60002E4D644206267642F71736196F41AF4241
:104C700014D811D000F0F4F832003B00121A8B4126
:104C8000002B15DC002B46D02000290000F026F96F
:104C900002B080BCB846F0BDA642EBD90026002782
:104CA00000F0DEF832003B00121A8B41002BE9DDE8
:104CB00000F0D6F832003B00121A8B41002B0ADBC1
:104CC00000230193164B3200009316483B00FFF778
:104CD0001DFF0130D8D000233900B0469C46124A4F
:104CE0001248536A994204D8966A4645CCD29942F2
:104CF000CAD10668EFF3108772B63368002BFCD078
:104D0000BFF35F8F0368BFF35F8F66461E6087F354
:104D1000108820BFE5E7002AB6D0C9E7FFFFFF7F74
:104D200031460010EC12002000400540E023002036
:104D3000F0B557464E46DE464546E0B506000F0044
:104D400085B0EFF3058399468B46002B12D0384986
:104D500000204B6ABB4206D38A6ADB1B591E8B417B
:104D6000B2424041184305B0F0BCBB46B246A9462A
:104D7000A046F0BD2F4B9A46DB68984653461B78F9
:104D80004046039300F064F84246039B040004335A
:104D90009B009B580D001B1A39003000001BA941D5
:104DA000894510DC0DD020BF214A0020536A5B45A5
:104DB000D9D3926ADB1B591E8B41B2424041184342
:104DC000D1E78342EFD900F04BF832003B00121AD2
:104DD0008B41002B1ADB00230193174B3200009309
:104DE00050463B00FFF792FE011E0FDD104B5A6A42
:104DF0005A451BD39B6AB34216D35046FFF7DEFEDB
:104E00000B4A0020536A5B45ADD3D2E7084A002025
:104E1000536A5B45A7D30020926ADB1BB242404134
:104E20005A1E934118439EE75A45E6D120BFE4E756
:104E300000400540EC1200203146001010B5024A37
:104E40000248FFF745F810BDB0B00010AC1D0020BF
:104E50000300416A0A00986A596A8A42FAD1704787
:104E6000034B596A0A00986A596A9142FAD170470D
:104E70000040054070B504000D00174A536A190040
:104E8000966A536A8B42FAD13000190024184D41BA
:104E9000AB4216D813D0104B2A005B6A9D4203D94F
:104EA0000D494B6A9342FCD3934207D10A4A02E070
:104EB000516A994202D1916AA142F9D370BDA642CA
:104EC000E9D9054B5B6A1C005A1CEFD00122012472
:104ED0006442E5175242E3E700400540064A536A40
:104EE0009942FCD807D1044B02E05A6A914202D1A0
:104EF0009A6A9042F9D8704700400540F8B5DE46FE
:104F00004E4657464546E0B58B4605000A991800BF
:104F1000160000F03BFB0A9B6C001F02324B641929
:104F20009C46A4006444636881469F4200D9676040
:104F30002B1FDBB29846012B30D9C02380229B0166
:104F4000E31812011A60294BAD0059599A460029FD
:104F50001BD17301E026226853401E408023424645
:104F60005B01E3181E60012A30D9802380229B0157
:104F7000E31812011A6053464A4667605A51F0BC62
:104F8000BB46B246A946A046F8BD586900F0FEFAF5
:104F9000013043001B18033BFDD2DAE75B46012BCF
:104FA000CBD1C02303229B01E3181A60023AA36805
:104FB0001A42FCD07301E0262268AD0053401E4027
:104FC00080230A4A5B019246E3181E605A46216814
:104FD000514003220A401A6001225B469A40A368AE
:104FE0001A42FCD0C1E7C04600800040B01D00203E
:104FF000F0B546464F46D646C0B51F00344B440078
:105000009C462418A4006444636888461600FF2B5D
:1050100002D880235B006360031FDBB29A46012B3A
:1050200030D9C02380229B01E31812011A60294B5A
:1050300085005959994600291BD17301E026226841
:1050400053401E40802352465B01E3181E60012A34
:1050500030D9802380229B01E31812011A6080233B
:105060005B0063604B465F51E0BCBA46B146A84660
:10507000F0BD586900F08AFA013043001B18033B69
:10508000FDD2DAE74346012BCBD1C02303229B019B
:10509000E3181A60023AA3681A42FCD07301E026B2
:1050A0002268850053401E4080230A4A5B019146D6
:1050B000E3181E6042462168514003220A401A60EC
:1050C000012342469340A2681342FCD0C1E7C04688
:1050D00000800040B01D0020014B8000C058704788
:1050E000B01D0020F8B5040021481E0017000D0077
:1050F00000F04CFA0100380000F048FA069B360434
:105100001B031E432368002B20DB1A4B1A49E318AC
:105110005A1E93418022920194465B421B0B174A10
:105120001B0363441360164A13601F000A68974309
:10513000FBD1144B2560E2182123A0601360236883
:10514000002BFCDA0823E6601360F8BD3F232268D9
:105150001340AB42D9D1A3681B051B0D8342D4D1A8
:10516000EE22E368D2021340B342CED1EDE7C0464F
:10517000001BB7000040FDBF08C0004000E0004039
:1051800000F000400430000010B580241C4BE40502
:105190001C6000281AD001231A4C18431A4BDC61FA
:1051A0001A4C44401C62596298628021144BC90514
:1051B0001960174817490860E021C9041960002ADE
:1051C00007D18022144B12061A6010BD0E4BD86115
:1051D000EBE753019B1A9B009A18802312015B0492
:1051E0009A4209D213000D490B60074B5A60802286
:1051F000094BD2051A60E8E7094B1A00F3E7C046ED
:1052000000B00540D3C007B0008005402D3FF84FE7
:10521000FCFF01000820014000A00540942300206D
:10522000FFFFFF008023024A9B000B43D3627047BD
:1052300000800540002310B50100988A1B8B984719
:1052400010BDC046162310B50100188802331B8814
:10525000984710BDF8B54746CE4680B50F1E18D00A
:1052600014239946043304000025012698464B4632
:105270001888434621681B88984701C4431E9841FB
:1052800001350640AF42F2D13000C0BCB946B0464D
:10529000F8BD0126F8E7C046002370B504000D00F4
:1052A000988A05491B8B984703000020002C01DBDE
:1052B0000130A0402900984755420000AA23064A21
:1052C0001B0113608D235B00D3600449044B1960FC
:1052D0005368002BFCDA70470040024000B0FA002F
:1052E000006002407047C04610B50148FEF7D8FD87
:1052F000D4B0001070B5074D074EB54209D2002456
:10530000013E761BB60808CD984723000134B3420E
:10531000F9D170BD20AD00105CAD0010054B064A00
:1053200006491A60064A074B1A6010000B6898433A
:10533000FBD1704700E00040BFCDFBFE08C000403D
:10534000FE7F3C0000F00040044BDB6C002B03D1DF
:105350008022034BD2021A607047C04600001150F1
:105360004C201150044A054B1A60054A1368DB01B2
:105370008033FBD17047C046FFFFFF0100F00040C3
:1053800008C000404022034B9A675A671A67DA66E2
:105390007047C04600F0014010B5FEF71DFE10BD7D
:1053A000F8B52749274C284D641AA6103200302E34
:1053B00000D930222800920000F07CFFBC2C3BD8A2
:1053C00030202F232C196407204A801BE40F9B1BDD
:1053D000052B16D93700002C02D0B300771CEA50F9
:1053E000001B33199B004108EB18C900C9181A604B
:1053F0005A6008339942FAD1012303421CD09843E2
:10540000C619B300EA50731C2F2E15D09B00EA502A
:10541000B31C2E2E10D09B00EA50F31C2D2E0BD067
:105420009B00EA50331D2C2E06D09B00EA50731DC2
:105430002B2E01D09B00EA50054B9D60F8BDC04665
:1054400000010010C001001000000020C101001088
:1054500000ED00E0002310B5294C82B0A367FFF7F0
:105460002DFF0122274B1A60636C012BFCD1032214
:10547000254B1A60224A936B012BFCD10133009318
:105480000121224A22480433FFF72CFE0523012183
:105490000093204A2048FFF725FE00220221042025
:1054A0001E4BFFF7A5FD0022012105201C4BFFF735
:1054B0009FFD0022002107201A4BFFF799FD0022D3
:1054C00000210820174BFFF793FD8023DB0000939A
:1054D000002200210920134BFFF710FD0022104B82
:1054E00000210620FFF784FD0420FFF7F5FD0E499B
:1054F00000F04CF801000020FFF794FE02B010BD50
:10550000008000403CB0004030B00040002F68599F
:1055100000800240008C864700C00240001BB7009C
:1055200040597307006CDC0240420F00014804211F
:10553000014B18471013002055520010124A936F68
:105540009B0815D29066D166002905D0FFE7FFE7DA
:10555000FFE7516F106F704704B580210906C2172D
:105560005140002800D0C84305F092FB002104BD43
:10557000F0B5146E556E576F166FFFF7E3FF1466A4
:10558000556657671667F0BD000000D0114A936F4B
:105590009B0813D210665166002905D0FFE7FFE78C
:1055A000FFE7516F106F704704B5002801D000204D
:1055B000C04305F06DFB002104BDC046F0B5146E7C
:1055C000556E576F166FFFF7E5FF14665566576700
:1055D0001667F0BD000000D094464A4A926F9208C8
:1055E000624601D228E0C046F0B5464E346E756E74
:1055F000776F366F00F020F89446424A146655667D
:10560000576716676246F0BD94463E4A926F92080D
:10561000624601D254E0C046F0B53A4E346E756E23
:10562000776F366F00F04CF89446364A146655662C
:10563000576716676246F0BD002B24DB11D00029A6
:105640003EDA00B5C943404200D1013100F038F8DC
:10565000C943404200D10131DB43524200D1013302
:1056600000BD002AEBD1002801D1002905D000207F
:10567000C90FC90701D1C043410800B505F000FBBF
:105680000022002300BD00B500290ADBDB435242A3
:1056900000D1013300F014F8C943404200D1013178
:1056A00000BDC943404200D10131DB43524200D129
:1056B000013300F005F8DB43524200D1013300BD55
:1056C000002923D1002B18D1002A0CD0BC460D4F45
:1056D00038667A6600210023FFE7FFE7FFE77A6F6D
:1056E000386F67467047002801D00748010000B5B1
:1056F00005F0C6FA0022002300BD02000B000020C6
:1057000000217047000000D0FFFFFFFF002B00D0FA
:10571000BFE0130C28D1002AE7D080B4114F3966BE
:105720007A66FFE7FFE730B4040C7B6F396F1B0428
:1057300023433B667A66FFE7FFE7FFE7C04684B294
:105740007B6F3D6F1B0423433B667A66FFE7FFE7F1
:10575000C04600232C042D0C7A6F386F0019694164
:10576000B0BC7047000000D0F0B594460025140E80
:1057700001D112020835140F01D112010435940F22
:1057800001D192000235D40F01D152000135D40B62
:105790000134254F7C66254C3C660E0C93B2FFE726
:1057A000FFE7FFE73C6F6643360C7703BE46734363
:1057B000DF0B5B04C01AB941130C7343DB18C91A21
:1057C000CE086643360CB64493B273431F0F1B01D9
:1057D000C01AB941130C73431F0B1B05C01AB94102
:1057E000860D8F023E436643360C092D24DB520A98
:1057F0007243801A7703460A6643360C16235B1BF6
:10580000DE40DF40BF1964466643821B70460435A4
:1058100006330100D940A840C01900D30131A2428B
:1058200006D20023F0BD0000000000D0FFFFFFFF04
:10583000121B0130F3D3F1E709277F1BFE406446BA
:10584000A2B27243801A00D20139220C7243130CA7
:105850001204821A99410B00704604351337010077
:10586000F940A840801900D30131002B02D1A24297
:105870000AD2F0BD013000D30131121BFAD2013B34
:10588000F8D1A24200D2F0BD013000D30131121B89
:10589000F7E7F0B51C0C00D080E00CB400251C0A22
:1058A00004D11B02160E3343120208351C0B04D11F
:1058B0001B01160F3343120104359C0B04D19B00CE
:1058C000960F334392000235DC0B02D192185B41F4
:1058D00001351C00971864410134464F7C66464CE4
:1058E0003C660E0CFFE7FFE7FFE7C0463C6F6643F0
:1058F000360C7703BE4697B27743C01B00D20139FE
:10590000C01B00D201399FB27743C91BC91B170CBA
:1059100077437E04FF0B801BB941CE086643360CEB
:105920000C2D33DBB644120B1F053A431B0B97B209
:105930007743C01B00D201399FB27743C91B170CB4
:1059400077433E043F0C801BB941860D8F023E43D6
:10595000664329277F1BFE400C3D7746AF40BF19A9
:1059600030BCA2B2ABB272437343801A9941220C8D
:105970007243130C1204801A994102000B00013784
:10598000001BA941F9D2781E0021F0BD0C277F1B16
:10599000FE4077467F0BAF40FF19E0E700245D1C17
:1059A00007D0144F7D663966FFE7FFE7FFE7FFE7A3
:1059B0003C6F95B29EB265436643401BB141150CE6
:1059C0001E0C6543664336042F0C3E432D04401BDA
:1059D000B141994204D202000B0020000021F0BD29
:1059E00001D19042F7D3801A994101349942F2D300
:1059F000F6E70000000000D0FFFFFFFF48404140F5
:105A0000484018B41B4B5B68FC46019308BD04DF9B
:105A1000A75C001018B4174B1B68FC46019308BD27
:105A200000DFB15C00109446134A926F920809D2CD
:105A3000624618B40F4BDB68FC46019308BD0CDFCF
:105A4000695F00100C4AF0B5146E556E576F166FF3
:105A50006246FFF7EEFF084A1466556657671667F9
:105A6000F0BD18B4034B9B68FC46019308BD08DFEA
:105A70000D5E001000150020000000D0FFB5504062
:105A80004240504059404B40594000E0FFB5154F4F
:105A90004C00640D03D0BC4204D10C0314D8002088
:105AA000090D09055C00640D03D0BC4204D11C0340
:105AB0000AD800221B0D1B0501264B4009D44B4080
:105AC00003D58B4200D18242FFBD9942FCD1904266
:105AD000FFBD0B43DB1803431343F5D0C9434918FB
