:020000041000EA
:1000000000B5324B212058609868022188439860DF
:10001000D860186158612E4B002199600221596106
:100020000121F02299502B49196001219960352056
:1000300000F044F80222904214D00621196600F024
:1000400034F8196E01211966002018661A6600F04E
:100050002CF8196E196E196E052000F02FF8012189
:100060000842F9D1002199601B49196000215960AB
:100070001A491B48016001219960EB211966A021F2
:10008000196600F012F800219960164914480160C1
:100090000121996001BC002800D000471248134993
:1000A000086003C880F30888084703B5996A0420EC
:1000B0000142FBD001200142F8D103BD02B5186610
:1000C0001866FFF7F2FF186E186E02BD00000240BE
:1000D000000000180000070000035F00212200005C
:1000E000F4000018222000A00001001008ED00E03C
:1000F00000000000000000000000000074B24E7A12
:1001000000200420F7010010CB010010CD010010E9
:10011000C9010010C9010010C9010010C901001077
:10012000C9010010C9010010C9010010CF01001061
:10013000C9010010C9010010D1010010D301001045
:10014000C1010010C1010010C1010010C101001067
:10015000C1010010C1010010C1010010C101001057
:10016000C1010010C1010010C1010010C101001047
:10017000C1010010C1010010C1010010C101001037
:10018000C1010010C1010010C1010010C101001027
:10019000C1010010C1010010C1010010C101001017
:1001A000C1010010C1010010C1010010C101001007
:1001B000C1010010C1010010C1010010C1010010F7
:1001C000EFF30580103800BE00BE00BE00BE00BECA
:1001D00000BE00BEF2EB8871BCB30010DCB30010AF
:1001E0003802001090A31AE71E481F49086006C88D
:1001F00081F3088810471D480068002801D019487D
:10020000F3E70DA40ECC002902D000F012F8F9E7B4
:100210001749184A002000E001C19142FCD116495B
:100220008847164988471649884700BEFDE701C937
:1002300001C29A42FBD37047DCB30010C00000201B
:100240006813002084C60010000004200000042071
:1002500084C60010001004200010042000000000DC
:10026000704700000000000008ED00E0000000D032
:1002700068130020F8230020157A0010E502001012
:100280000D7A0010F8B5C04606480749091A8B10C8
:10029000C90FC91810B5491003D0044B002B00D06A
:1002A000984710BD6813002068130020000000006C
:1002B000054B10B5002B03D00449054800E000BFF2
:1002C000FFF7E2FF10BDC046000000008C230020B5
:1002D00024AB0010062802D10122014B1A7070478E
:1002E000F1230020F0B5CE46474680B583B007F035
:1002F000CFFCC82004F0FCFB2F4807F017FD2F4966
:100300002F480AF097FA0321042003F06BFC032125
:10031000052003F067FC00220121042003F07CFC8F
:1003200000220121052003F077FC0021072000F0C6
:1003300055F8052004F0DCFB0121072000F04EF801
:10034000052004F0D5FB062003F0E2FCD023402278
:100350001B069A6201210022062003F05DFC0122A7
:1003600004210620174B03F06BFC174E29213000A7
:1003700000F044F8011E1AD16B469D1D134B002757
:100380009846134B134C99462378002BFCD0290038
:100390003000277000F0CEF8011E04D140462988B5
:1003A00007F048FDF0E7484607F044FDECE70A484F
:1003B00007F040FDFEE7C04628AB0010A086010014
:1003C00058130020D5020010F01D002088AB00104B
:1003D0009CAB0010F123002064AB001070B504004A
:1003E0000D0003F095FC0123D022A34012065362B6
:1003F000002D01D0536170BD9361FCE770B504001E
:100400000E0084B0002800D17DE0C0235B00C15401
:1004100000F0D0FA051E3ED1200000F073FC051E4E
:1004200030D1092220006A4403A901F005F9051E14
:1004300041D10B220A2120006A44694400F0F4FDF6
:10044000051E30D10121200000F0DAFB051E3AD153
:100450000090042301220021200000F0F1FF051E7E
:1004600041D12000294900F0D9FB051E43D12000CD
:1004700000F050FE041E2ED13100254807F0DAFCB2
:10048000002006E02900234807F0D4FC6E204042FB
:10049000401B04B070BD29001F4807F0CBFC64204E
:1004A0004042401BF5E729001C4807F0C3FC8220AE
:1004B0004042401BEDE72900194807F0BBFC7820BB
:1004C0004042401BE5E72900164807F0B3FC8C20AA
:1004D0004042401BDDE72100134807F0ABFCAA2097
:1004E0004042001BD5E72900104807F0A3FC9620E6
:1004F0004042401BCDE729000D4807F09BFCA0209F
:100500004042401BC5E701204042C2E7E8800000AE
:10051000D0AC0010D0AB0010B0AB001018AC001085
:10052000F0AB00103CAC0010A8AC001060AC0010A8
:1005300084AC0010F0B504000E0089B0002926D06C
:10054000002824D001AF1C220021380005F0D6FD80
:100550003900200000F090FE00210500200001F08D
:1005600039F8002D09D1387E002804D100203B89BC
:10057000338009B0F0BD3580FBE7142D03D0C820CF
:100580004042401BF5E7034807F0D0FBF7E70120A6
:100590004042EEE704AD0010F0B583B06E460400B3
:1005A0005D1C080011001A000833DB08DB00F31A99
:1005B00002AF9D4602AE30700920684405F0A4FDEC
:1005C000C0235B00E15C00233200009305482B0050
:1005D0000AF058F9C0431423BD46C0171840143818
:1005E00001B0F0BD58130020F0B5C64615000F222B
:1005F0001E00C02300B584B06A445B001170C15C6A
:1006000098460E4F803BFF3B0400009338000AF0F1
:1006100039F900280FDB4346E15C00232A000093F0
:10062000380033000AF038F9002804DB002004B059
:1006300080BCB846F0BD14204042F8E758130020B3
:10064000130000B585B003AA5370C02311705B007E
:10065000C15C00230548009302330AF013F9C0433C
:100660001423C0171840143805B000BD58130020DB
:10067000130000B585B003AA11709370190AC02346
:1006800051705B00C15C00230548009303330AF0FE
:10069000F9F8C0431423C0171840143805B000BD42
:1006A00058130020F0B515000F22C027012385B094
:1006B0000D4E6A4411707F00C15D0400009330004C
:1006C0000AF0E0F800280CDB0023E15D2A0000932B
:1006D000300001330AF0E0F8002802DB002005B00A
:1006E000F0BD14204042FAE758130020F0B5C6468A
:1006F00015000B22C027012300B584B0114E6A44B7
:1007000011707F00C15D0400009330000AF0BAF858
:1007100003AB9846002812DB0023E15D42460093BC
:10072000300002330AF0B8F8002808DB0020434606
:100730001B885BBA2B8004B080BCB846F0BD142087
:100740004042F4E758130020F0B515000B22C027F3
:10075000012385B00F4E6A4411707F00C15D040013
:10076000009330000AF08EF800280FDB0023E15DD3
:100770003000009303AA04330AF08EF8002805DB4A
:100780000020039B1BBA2B6005B0F0BD1420404233
:10079000F7E7C04658130020F0B54E464546574689
:1007A000DE469946224BE0B5C0279846012387B024
:1007B00005AD039229707F0004000E002A00C15D80
:1007C000404600930AF05EF800282EDB02AA944609
:1007D0000B2363449A460023E15D9B4600935246F7
:1007E000404601330AF058F800281EDB5346039AAE
:1007F0001B782E7013404A461A43130052466B7002
:1008000013705B46E15D2A000093404602330AF014
:1008100039F8C0431423C0171840143807B0F0BC8F
:10082000BB46B246A946A046F0BD14204042F5E7BB
:100830005813002010B5052004F05AF9002010BD0F
:10084000F0B5DE464E4645465746E0B5037A83B0DE
:100850000B706B460E009A1CF8210500FFF746FF4F
:10086000041E07D0200003B0F0BCBB46B246A94628
:10087000A046F0BD01AB1A00042128009846FFF7FE
:1008800063FF041EEED16B465988002960D1B06821
:10089000002328614246202128003373FFF726FFFA
:1008A000041EDFD143461B88002B56D1AB69336150
:1008B0000023310028002B75143102F017FC041EB0
:1008C000D0D1202224239346083A99469246002705
:1008D000EB6AB144AB44B2444A4608C25B46914617
:1008E0005246DB5DD3550137062F3BD0032F10D086
:1008F00004DC012F0FD002276B6BEDE74246642129
:100900002800FFF7F3FE041EACD143461B885B02B0
:10091000E2E7AB6BE0E7424644212800FFF7E6FE42
:10092000041E9FD143461B885A02002B0CD12B6B0F
:10093000B36200232122AB545B4652465B7853706E
:1009400004239C46E144D6E7B26201232A63F1E71F
:10095000019804F045FDB0609AE7DB003361AB61BC
:100960000123A6E7424601212800FFF79BFE041E53
:1009700000D077E74346AE221B785200AB54DB0928
:10098000E83AB35408322800AB54311D01F036FE6A
:10099000041E00D066E7290030001C2244313C30A0
:1009A00009F084FF290030001C226031583009F022
:1009B0007DFF57E7F0B5CE46474680B50022A1B08F
:1009C00088210500FFF73CFE8E220023FA21520009
:1009D000AB5489006232A95280497E3A02AEA950D6
:1009E00028003100AB61FFF72BFF041E28D19623AE
:1009F000DB04B3657A4B308033647A4BF063F36584
:100A000080239B027364E1239B043366764B2800AA
:100A1000B364764B78227366754B3100F364754B83
:100A20000830B366A0231B033365FA235B04F36627
:100A3000F0231B037365C8235B04336705F064FB75
:100A4000B0236D4A5B00EA50FA2204335200EA52A6
:100A5000A02204331201EA5201221433EA54802105
:100A60002800FFF7EDFD01220600FF212800FFF717
:100A7000E7FD0022064300212800FFF7E1FD6B4659
:100A8000344364B2DE1D3200912104432800FFF795
:100A900009FEB32332785B0064B2EA5400210122DC
:100AA00004432800FFF7CCFD64B20022FF21044379
:100AB0002800FFF7C5FD64B204430022802128000E
:100AC000FFF7BEFD2E0064B2204340B22C36002852
:100AD00014D1202399461F3B00249846474FA94430
:100AE000A3B2052B33D89B00FB589F460023EF226F
:100AF00060212800FFF750FE00282CD021B0C0BC98
:100B0000B946B046F0BD0023FE2260212800FFF761
:100B100043FE0028F2D12B00012220331A5504365F
:100B20000134DDE723230122EA544B4642460436D2
:100B30001A550134D4E722230122EA54F5E732683A
:100B40004421520A280092B2FFF792FDE1E72023E8
:100B50000122EA54E9E72B00012220335A71602177
:100B6000688402232800FD320024FFF715FE0028C8
:100B7000C4D12423EF22EC5460212800143BFFF75A
:100B80000BFE0028BAD12523EC5490235B03EB62C3
:100B90002123EB5C002B19D18023DB012B638C23F9
:100BA0009B036B630023FF22AB635D33FF33EA5487
:100BB00001212800FFF744FDAF2301225B00EA5426
:100BC00000289BD14223FF33E85497E72022442199
:100BD0002800FFF74DFD0028DED08FE7A470090044
:100BE00033B3000000004C04CCCC03000000EE0244
:100BF000CC4C0700000026026400840394AE001071
:100C0000152906D8044BCB40DB0702D50172002022
:100C1000704708204042FBE70B00300010B501F0A0
:100C200013FC10BD10B501F0EFFB10BDF0B583B0A3
:100C3000002317006A460D00D37101210732060018
:100C4000FFF730FD041E1CD16B46DB79012F1BD052
:100C5000042D50D8294AAD00525997467F251D4092
:100C60005BB2002B0DDA2A0001213000FFF7E8FC0F
:100C7000041E06D1AE235B00F5543000F16801F08C
:100C8000E3FB200003B0F0BD042D34D81C4AAD00B6
:100C90005259974640221D0095431A42E3D1F0E78E
:100CA00004221D0095431A42DDD1EAE728221D00E7
:100CB00095431A42D7D1E4E710221D0095431A420A
:100CC000D1D1DEE740251D43AB42CCD1D9E7042585
:100CD0001D43AB42C7D1D4E728251D43AB42C2D147
:100CE000CFE710251D43AB42BDD1CAE780251D4388
:100CF000AB42B8D1C5E704246442C2E7ACAE0010F1
:100D0000C0AE0010F0B5C64600B5A2B0050078220E
:100D1000002104A805F0F2F900230022694628000A
:100D2000CB80CA700A710121029300F075FDA023E7
:100D30005B00EA5C012A06D84023FF33E95C012A04
:100D400051D00C2951D9280001AA02A902F08AFB2E
:100D5000002840D1BE235B00EB5C002B3FD07A49DA
:100D6000280001F027FD002835D104220A2128009F
:100D7000FFF766FC00282ED10023EF2284212800F3
:100D8000FFF70AFD002826D1832304225B00EA54E2
:100D9000FF3B0026984603AF01220B212800FFF7F6
:100DA0004FFC002204000B212800FFF749FC3A0009
:100DB000044313212800FFF775FC424664B23B78D8
:100DC0002043013640B2F6B21A4212D0032E00D1AF
:100DD000B6E00028E0D022B080BCB846F0BD793340
:100DE000FF33E958BCE72029ADD8280002F0D0F93C
:100DF000AEE7032E00D1A3E00028ECD10122FF21B1
:100E00002800FFF71DFC6B4604009A1D8421280072
:100E1000FFF76CFC00220443FF212800FFF710FCC1
:100E200064B2204340B20028D5D16B468022DB88D3
:100E300052001B012800AB5004A9FFF701FD002858
:100E4000C9D16B4609212800DA1CFFF72BFC0028CA
:100E5000C1D16B46DA78012313406A46D3705E2213
:100E60002800FF32AB5404A9E53A083005F04CF9EC
:100E70006B4601212800DA1CFFF714FC0028AAD1D8
:100E80006B46DA78AE235B00EA5438703A000121F1
:100E90002800FFF707FC00289DD110233C781C4256
:100EA0000FD09C43220001212800FFF7C9FB002836
:100EB00000D090E7AE235B00EC542800E96801F015
:100EC000C3FA002202212800FFF7B0FE002800D05C
:100ED00081E7AF2303265B00EE546B465C1D0100E7
:100EE0002200280001F090FA002800D073E78A233E
:100EF00022785B00EA5401212200280001F084FAE4
:100F0000002800D067E7862322785B00EA5431008E
:100F10003A00280001F0AAF9002800D05BE78823F6
:100F2000039A5B00EA5004213A00280001F09EF980
:100F3000002800D04FE78423039A5B00EA504AE779
:100F40000C20404247E7C0469811002010B582B0FF
:100F50006A4600230C00D37101210732FFF7A2FB80
:100F6000002810D16B460122DB7919111140217044
:100F7000D9101140A17099101140617099110A4067
:100F8000DB09E270237102B010BDC046037D002072
:100F90000B707047052905D84018203003780020D1
:100FA00013707047042000234042F9E770B5040035
:100FB000150082B0052931D81A4B89005B589F462D
:100FC0006B4664219A1DFFF791FB002804D16B4604
:100FD000DB885B022B60002002B070BDC36A2B600F
:100FE000F9E7436B2B60F6E7836B2B60F3E76B4607
:100FF0009E1D32004421FFF779FB0028ECD1338895
:101000005A02002B04D1236B2B602123E254E2E728
:101010002A60212322630122E254DCE704204042BB
:10102000DAE7C046D4AE001010B5012302F08AF909
:1010300010BDC046832370B55B00C35C04000D0087
:1010400082B0022B24D0032B0CD00020012B07D11F
:101050006B460E2120009A1DFFF748FB002829D07F
:1010600002B070BD6B460E219A1DFFF73FFB0028B2
:10107000F6D16B460C2120009A1DFFF737FB0028A4
:10108000EED1002D25D02000204901F093FBE7E7A9
:101090006B460E219A1DFFF729FB0028E0D16B4615
:1010A0000C219A1D2000FFF721FB6B46DB881B05F6
:1010B000D6D0E4E76B460C21DE889A1D2000FFF7AE
:1010C00015FB134B76041E40FF231B049E42C7D919
:1010D000D5E70422FF212000FFF7B2FA0022050025
:1010E00070212000FFF7ACFA0022FF210543200009
:1010F000FFF7A6FA6DB20543002280212000FFF71A
:101100009FFA6DB2284340B2AAE7C046E00F002024
:101110000000FE1FF0B5C646040000B5012282B0F3
:101120008021057AFFF78CFA0122FF212000FFF7CA
:1011300087FA002200212000FFF782FAB3235B0028
:10114000E25C91212000FFF77BFA012200212000C0
:10115000FFF776FA0022FF212000FFF771FA002244
:1011600080212000FFF76CFA012D34D0032D24D00C
:10117000002D3ED1012200212000FFF761FA6B46CD
:10118000DE1D01233370002813D1FA23DB00012573
:1011900001279846320000212000FFF783FA3378B8
:1011A00001351F4232D0002830D14545F2D1072009
:1011B000404202B080BCB846F0BD002821D00422D5
:1011C00000212000FFF73CFA0028F2D1AF230422CF
:1011D0005B00E254EDE700280ED00222002120003F
:1011E000FFF72EFA0028E4D1AF2304225B00E2547B
:1011F000DFE708204042DCE701212000FFF71AFF6B
:10120000EBE701212000FFF715FFD8E7FA23DB0009
:101210009D42CED1CBE7C046832330B55B00C35C93
:101220000C0083B0042B0ED06B461421DA1DFFF79F
:1012300039FA002805D16A460123D279134213D026
:10124000237003B030BD6B46DD1D2A001321FFF76C
:1012500029FA072318212A781340114209D1042BB7
:1012600004D000232370ECE72070EAE7033B2370EF
:10127000E7E706204042F2E7F0B5DE46574645462E
:101280004E46E0B591B006AF0C230C003A00142195
:101290000500FFF7A9F9031E77D163603B89FA21A6
:1012A0005BBA9BB25B0223617B88FE885BBA9AB211
:1012B000A3823B7890469946BF235E2276BAB6B2A7
:1012C0007602A0752060E66078895B00EB5A40BA30
:1012D000FF32AF5C80B289008B4214D05843F530A6
:1012E000FF3004F055F82B7D002B0BD04346298BA3
:1012F00059430912B1424FD00004000C7043711AD7
:1013000004F06EF880B2002F02D08701FFB280088F
:1013100002ABE7759C460F276744208143463200A5
:10132000494628000197009401F0D2FC00282CD1F6
:1013300009AA93462A0059463B78803203932376C4
:10134000C8CAC8C1C8CAC8C1176880350F60E66876
:10135000A768B1462669BA46B046A68AE77DB44674
:101360005E466468039B746054460B944C460C9430
:1013700044460D94644633765B46B482F775D0CB11
:10138000D0C5D0CBD0C50B68136011B0F0BCBB4644
:10139000B246A946A046F0BD002F02D00027024861
:1013A000B6E70248B4E7C046AE080000E08A000095
:1013B000F0B5C646002300B582B0037205000C00EC
:1013C000FFF7A8FE00280ED1280000F007FA002839
:1013D00009D1AF2303225B0021002800EA54FFF764
:1013E0004BFF002803D002B080BCB846F0BD6B466E
:1013F000DF1D07230026984601220B212800FFF756
:101400001FF9002204000B212800FFF719F93A0008
:10141000044313212800FFF745F9424664B23B78A4
:101420002043013640B2F6B21A4204D0032E04D053
:101430000028E1D0D7E7032ED5D10C204042D2E7D7
:10144000F0B5C64600B582B01F0008AB05000E001F
:101450001C78002900D0B9E0142A09D0152A47D0F9
:10146000042F0FD90B20404202B080BCB846F0BD1B
:10147000631E9C410E2362429A4384211032FFF77F
:10148000DFF8F1E73A000A21FFF7DAF80028EBD19C
:10149000631E9C41EF22842128002301FFF77CF981
:1014A0000028E1D183235B00EF546B46DF1D072347
:1014B000984601220B212800FFF7C2F80022040001
:1014C0000B212800FFF7BCF83A0004431321280041
:1014D000FFF7E8F8424664B23B782043013640B259
:1014E000F6B21A426CD0032E6DD00028E1D0BBE7D3
:1014F000FF21143AFFF7A4F800220400002128007D
:10150000FFF79EF80022FF2104432800FFF798F818
:1015100064B20122802104432800FFF791F864B2ED
:101520000222852104432800FFF78AF864B20422CE
:10153000FF2104432800FFF783F864B20022CD2185
:1015400004432800FFF77CF864B21122CC21044345
:101550002800FFF775F864B20722FF210443280032
:10156000FFF76EF864B20022BE2104432800FFF7A3
:1015700067F864B20622FF2104432800FFF760F8F1
:1015800064B20922CC2104432800FFF759F864B261
:101590000022FF2104432800FFF752F864B2012221
:1015A000FF2104432800FFF74BF864B204430022F4
:1015B00000212800FFF744F864B2204340B253E70B
:1015C000032E00D050E70C2040424DE70A20404255
:1015D0004AE7C046F0B5C64600B582B06B46DF1D8F
:1015E000072306000025984601220B213000FFF753
:1015F00027F8002204000B213000FFF721F83A0001
:10160000044313213000FFF74DF8424664B23B78A3
:101610002043013540B2EDB21A4207D0032D07D066
:101620000028E1D002B080BCB846F0BD032DF9D14E
:101630000C204042F6E7C04610B501F013FF10BD84
:10164000F0B5CE46474680B50500160085B00329A3
:1016500060D0042900D0BCE002AC2100FFF776FC8A
:10166000E378002B46D105236B4400279846424679
:1016700001212800FFF7D6FA041E45D143461A7807
:10168000FA2153019B1A5B019B181A01D31AFA2203
:10169000520090461B029844C900404603F0A0FE49
:1016A000FA217401A41BA400A419E40024188900E1
:1016B000404603F095FE0100200003F091FEC019A2
:1016C000002200280CD001380023FF2806D901335E
:1016D00040089BB2FF28FAD81B029BB21B189AB293
:1016E00071212800FEF7C4FF041E0DD184235B0086
:1016F000EE5009E005236B441A00002128009846AB
:10170000FFF790FA041E53D0200005B0C0BCB946C4
:10171000B046F0BD05236B4498461A000021FFF740
:1017200081FA43461A78FA2153019B1A5B019B18F0
:101730001A01D31AFA22520091461B0299447301EE
:101740009B1B9B009B19DB00C90007000400484657
:10175000984603F045FEFA2180448900484603F08C
:101760003FFE0100404603F03BFE00040022010C56
:1017700000280CD00139FF292ED900230133490854
:101780009BB2FF29FAD81A0292B2521892B26B4653
:10179000DA8082235B00EA52002FB5D15121280064
:1017A000FEF766FF041EAFD188235B00EE50ABE767
:1017B0006B46512128009A1DFEF798FF041EA3D105
:1017C0006B466A46DB8897791B0A9F400137BFB298
:1017D0004DE70424644297E70022D6E770B582B053
:1017E0006B46FA24DE1D002305003370E40008E098
:1017F0003378012B0BD0013C002C0AD02800FFF7D6
:1018000019F831002800FFF707FD0028F0D002B0DA
:1018100070BD07204042FAE7F0B545465746DE4620
:101820004E460023E0B595B00B930C931D33FF3368
:10183000C35C05000F009846072B07D1002015B0A8
:10184000F0BCBB46B246A946A046F0BD01228021AD
:10185000FEF7F6FE01220400FF212800FEF7F0FE4D
:101860000022002104432800FEF7EAFE64B20622AB
:10187000FF2104432800FEF7E3FE64B28321044302
:1018800009AA2800FEF70EFF08AB1A79042364B2F8
:101890001A43832104432800FEF7D2FE64B20722D4
:1018A000FF2104432800FEF7CBFE64B20122812110
:1018B00004432800FEF7C4FE64B204432800FEF788
:1018C000B9FF64B20122044380212800FEF7B8FE6C
:1018D00001231A0064B204433A4064B202923B42CC
:1018E00003D04246134200D174E2002305930493CF
:1018F00002231A003A4001923B4203D0424613426F
:1019000000D19DE004231A003A4000923B4203D0EC
:101910004246134200D115E3002300269B460022D5
:1019200081212800FEF78CFE0622FF2104432800B7
:10193000FEF786FE64B28321044309AA2800FEF75D
:10194000B1FE08AB1A79042364B29A43832104439D
:101950002800FEF775FE64B20122FF21044328002F
:10196000FEF76EFE64B20122002104432800FEF758
:1019700067FE64B20022FF2104432800FEF760FEE8
:1019800064B20443002280212800FEF759FE64B2AD
:10199000204340B2002800D051E7029B002B02D028
:1019A0004346DB072CD5019B002B02D043469B0707
:1019B00035D5009B002B1DD043465B071AD4A223CC
:1019C0000B9A5B00EA500C9A0433EA505B46A6225D
:1019D0005B025200AB500023002E0AD0DF4B9C4626
:1019E000664473019B1B9B009B19DB001B095B4238
:1019F0001BB26B6043468E223B435200AB541DE743
:101A000040232800049AFF33EA54059A01335730E3
:101A1000EA540DA90622FF3004F076FBC3E708ABB9
:101A20005A791E23FF33EA5408AB9A7928008F2392
:101A300020305B00EA540FA9FF3008F0B7FFB8E789
:101A4000022294212800FEF7FBFD204343B200222E
:101A5000832128009946FEF7F3FD0FAE041E15D131
:101A600000239A46FA23DB009B46544603E00134E8
:101A70005C4500D1DEE3320083212800FEF712FE30
:101A800033780343DBB2002BF1D004000122832121
:101A90002800FEF7D5FD4B4623431C0008AB5A1D1A
:101AA000902104432800FEF7FDFD64B27B229421BF
:101AB00004432800FEF7C4FD64B2044363B200226D
:101AC000832128009946FEF7BBFD041E15D1002393
:101AD0009A46FA23DB009B46544603E001345C45FA
:101AE00000D1B2E3320083212800FEF7DBFD33781A
:101AF0000343DBB2002BF1D0040001228321280034
:101B0000FEF79EFD4B4623431C0008AB9A1D902117
:101B100004432800FEF7C6FD64B2772294210443F3
:101B20002800FEF78DFD64B2044363B200228321D6
:101B300028009946FEF784FD041E15D100239A461D
:101B4000FA23DB009B46544603E001345C4500D198
:101B500059E3320083212800FEF7A4FD33780343C4
:101B6000DBB2002BF1D00400012283212800FEF714
:101B700067FD4B4623431C000AAB1A009021044327
:101B800028000393FEF7E0FD7F210A9B64B2044323
:101B9000980C084000025A0E02439146D80A0840A9
:101BA0000204484692466E4A64B210400200504613
:101BB00002431809014012020906120A0A430F9251
:101BC0007822DB00134008AA1371942178222800A0
:101BD000FEF736FD044363B2002283212800009300
:101BE000FEF72EFD814600281BD108ABDC1DFA2331
:101BF000DB009B4633002E009A462500040003E0DC
:101C000001345C4500D11BE32A0083213000FEF73C
:101C100049FD2B780343DBB2002BF1D03500814620
:101C20005646012283212800FEF70AFD4B46009C00
:101C300090211C43039A04432800FEF785FD64B2FB
:101C4000044363B2994608AA0A9B1279590F89186E
:101C50007F22980D10400002DC0BC9B214400143F2
:101C6000180A24041040000621430143109159082A
:101C70000A40327240229B01134008AA137194213A
:101C800079222800FEF7DCFC4C46044363B20022B4
:101C9000832128000093FEF7D3FC814600281BD146
:101CA00008ABDC1DFA23DB009B4633002E009A466E
:101CB0002500040003E001345C4500D1B2E22A00B3
:101CC00083213000FEF7EEFC2B780343DBB2002BC0
:101CD000F1D0350081465646012283212800FEF7C7
:101CE000AFFC4B46009C90211C43039A0443280000
:101CF000FEF72AFD0A9B08A909799A0E52187272FA
:101D00007F22D90C1140B172190B1140F17259099F
:101D10000A4032737C229B00134064B208AA1371FC
:101D200094217A2204432800FEF78AFC64B204431B
:101D300063B20022832128000093FEF781FC8146D4
:101D4000002820D108ABDC1DFA23DB009B463300C2
:101D50002E009A462500040008E0C04600E7FFFF79
:101D6000FFFF00FF01345C4500D174E22A008321AB
:101D70003000FEF797FC2B780343DBB2002BF1D049
:101D8000350081465646012283212800FEF758FC83
:101D90004B46009C90211C43039A04432800FEF705
:101DA000D3FC0A9A08A90979930F5B187F217373F2
:101DB000D30D0B40B373130C0B40F373530A0B405A
:101DC000337493080B407374002364B2044364B209
:101DD000B37497E56B2294212800FEF731FC204371
:101DE00043B20022832128009946FEF729FC041EF5
:101DF00016D100239A46FA23DB009B4654460FAEC9
:101E000003E001345C4500D117E232008321280051
:101E1000FEF748FC33780343DBB2002BF1D004001B
:101E2000012283212800FEF70BFC4B4623431C00B4
:101E30000AAB1A009021044328000393FEF784FCA8
:101E40000A9B64B25A04520E1B04DB0F9421044314
:101E50000492280024220593FEF7F2FB64B20443A7
:101E600063B20022832128009946FEF7E9FB041E95
:101E700016D100239A46FA23DB009B4654460FAE48
:101E800003E001345C4500D1C3E132008321280026
:101E9000FEF708FC33780343DBB2002BF1D00400DB
:101EA000012283212800FEF7CBFB4B4623431C0075
:101EB0009021039A04432800FEF746FC0A9B64B273
:101EC0001BBA25229421044328000D93FEF7B8FB8A
:101ED00064B2044363B20022832128009946FEF7CE
:101EE000AFFB041E16D100239A46FA23DB009B4663
:101EF00054460FAE03E001345C4500D1A8E1320046
:101F000083212800FEF7CEFB33780343DBB2002B9E
:101F1000F1D00400012283212800FEF791FB4B46FB
:101F200023431C009021039A04432800FEF70CFC75
:101F30000A9B64B20DAA190E04431B0C64B2117102
:101F40005371D5E47B2294212800FEF779FB2043CE
:101F500043B20022832128009946FEF771FB061E3A
:101F600017D100239A4608ABDC1DFA23DB009B4601
:101F7000564603E001365E4500D147E12200832149
:101F80002800FEF78FFB23780343DBB2002BF1D050
:101F90000600012283212800FEF752FB4B46334303
:101FA0001E00902106430BAA2800FEF7CDFB76B257
:101FB0007C22942106432800FEF742FB76B20643BA
:101FC00073B20022832128009946FEF739FB061ED2
:101FD00017D100239A4608ABDC1DFA23DB009B4691
:101FE000564603E001365E4500D120E12200832100
:101FF0002800FEF757FB23780343DBB2002BF1D018
:102000000600012283212800FEF71AFB4B463343CA
:102010001E00902106430CAA2800FEF795FB76B21D
:102020007322942106432800FEF70AFB76B206438A
:1020300073B20022832128009946FEF701FB061E99
:1020400017D100239A4608ABDC1DFA23DB009B4620
:10205000564603E001365E4500D101E122008321AE
:102060002800FEF71FFB23780343DBB2002BF1D0DF
:102070000600012283212800FEF7E2FA4B46334393
:102080001E000AAB1A000643902128000393FEF7B6
:102090005BFB0A9B74B21B061B0C74229421044345
:1020A00028009B46FEF7CCFA64B2044363B20022D8
:1020B000832128000693FEF7C3FA061E17D10023DA
:1020C000994608ABDC1DFA23DB009A464E4603E036
:1020D0000136564500D1A2E0220083212800FEF7F8
:1020E000E1FA23780343DBB2002BF1D00600012292
:1020F00083212800FEF7A4FA069C90213443039A1A
:1021000004432800FEF720FB5A460A9B64B21B0ECC
:102110001A4394210443934628007522FEF790FA4F
:1021200064B2044363B20022832128000693FEF7C1
:1021300087FA061E17D10023994608ABDC1DFA2347
:10214000DB009A464E4603E00136564500D18AE050
:10215000220083212800FEF7A5FA23780343DBB28F
:10216000002BF1D00600012283212800FEF768FA37
:10217000069C90213443039A04432800FEF7E4FAB6
:102180000A9B64B21B061B0C762294210443280090
:102190000693FEF755FA64B2044363B2002283212A
:1021A00028000793FEF74CFA061E16D10023994625
:1021B00008ABDC1DFA23DB009A464E4602E00136EE
:1021C000564529D0220083212800FEF76BFA237898
:1021D0000343DBB2002BF2D006000122832128004A
:1021E000FEF72EFA079C902134430443039A2800FB
:1021F000FEF7AAFA0A9E069B64B20443360E64B246
:102200001E43FFF78CFB07246442ADE407267642A9
:10221000BFE60724644243E607267642DDE7072649
:10222000764264E7073B35009946564654E5072653
:102230007642E6E60724644228E407246442EFE598
:10224000073B350099465646EBE40724644254E4C4
:10225000072464425EE6073B35009946564692E500
:102260000726764205E7072676427CE7F0B5CE469C
:10227000474680B585B0002315006A460600D37036
:10228000938002290CD903294ED0042928D000209C
:1022900000242860200005B0C0BCB946B046F0BD9F
:1022A000971C3A000021FEF7BDFC041E65D0FA2100
:1022B0003A78890053019B1A5B019B181801C01AD8
:1022C0000002F530FF3003F08BF86B46DB7801330A
:1022D0005843FA21F5308900FF3003F081F8D8E740
:1022E00002AC2100FEF732FEE378002B4DD06B46A6
:1022F0009F1C3A0000213000FEF794FC0023041ECE
:10230000984666D0FA213A78890053019B1A5B01FE
:102310009B181801C01A0002F530FF3003F060F876
:10232000434643431800D4E7971C3A000021FEF7C8
:1023300079FC04000020002CABD13A0000213000D1
:10234000FEF770FC041E57D06B466A46FA219B8844
:1023500016793A781B0A9E4053019B1A5B019B1821
:102360001801C01A0002F530FF30890003F038F878
:1023700001363604360C7043ABE76B46462130001D
:10238000DA1CFEF78FF9040091E7002398466B46AC
:102390009F1C3A0001213000FEF744FC041E04D0CB
:1023A0004346584283B29846ACE706236B449946AD
:1023B0001A0071213000FEF799F94B461A881B78F4
:1023C000120A9340424601339B1A9BB2040098467E
:1023D00098E701AA51213000FEF788F96B469A88E8
:1023E0001B79120A934001339BB2041E9846D0D049
:1023F0005B429BB2984685E75121300001AAFEF767
:1024000075F90400A0E7C04630B5140083B0002978
:1024100012D001290DD16B46DD1D2A007021FEF777
:1024200041F9002803D12B7801335B00237003B0FE
:1024300030BD04204042FAE76B46DD1D2A005021E2
:10244000FEF730F9EDE7C046F0B5D6464F464646B2
:10245000C0B584B002AD0F0029000600FEF776FD7E
:10246000041E0ED1614B6A7898462B78B84413430A
:10247000AA7813430CD1EB78002B55D12B79002B84
:102480006BD1200004B0E0BCBA46B146A846F0BD0E
:1024900006236B44187099466B46002130005A1D84
:1024A000FEF7C0FB002801D00400EAE74A464621B7
:1024B0003000FEF7F7F86B46FA215A79824653014D
:1024C0009B1A5B019B181801C01A0002F5308900A5
:1024D000FF3002F085FF4B46FA211B78890001335B
:1024E0005843F530FF3002F07BFF5346002B73D189
:1024F0002B78002B06D03E4BC31898452AD942466C
:10250000D31A9846AB78002B1ED16B78002BB2D033
:10251000A5239B009C46604480451BD943461B1A5B
:102520009846EB78002BA9D06A4600230021D3807F
:1025300030000532FEF776FB002817D0A5230400F3
:102540009B0098459DD805E02A4B9C46604440007E
:102550008045E3D80424644293E7274A04213000ED
:102560004244FFF76DF8F76004008AE76B460021EC
:1025700030005A1DFEF756FB824600282ED06B46CF
:10258000DA889B79120A934001331B041B0C99468D
:102590006B46FA215A79890053019B1A5B019B18FB
:1025A0001801C01A0002F530FF3002F019FF4B4647
:1025B000FA215843F530FF30890002F011FFA523BE
:1025C0009B009C4660448045C4D95346002B03D1F0
:1025D00043461B1A984651E7544652E76B46512131
:1025E00030009A1DFEF782F88246C8E7CAF4FFFF62
:1025F0004E020000B2020000DAFDFFFFF0B5CE4649
:10260000474680B5674B85B002AD0B600E002900D0
:102610000700FEF79BFC041E0DD16A782B7813434C
:10262000AA7813430DD1EB78002B5AD12B79002BCC
:1026300069D13368FB60200005B0C0BCB946B04624
:10264000F0BD01AB187098466B4600213800DA1CCB
:10265000FEF7E8FA002801D00400ECE742464621E4
:102660003800FEF71FF86B46FA21DA7881465301ED
:102670009B1A5B019B181801C01A0002F5308900F3
:10268000FF3002F0ADFE4346FA211B78890001338A
:102690005843F530FF3002F0A3FE4B46002B77D1B4
:1026A0002B78002B05D0404A3368944663441B18AE
:1026B0003360AB78002B0AD16B78002BB3D0A52206
:1026C00092009446336863441B183360ABE7374B82
:1026D0009C463368604440001B183360EB78002B45
:1026E000A4D06A4600230021938038000332FEF70D
:1026F00099FA002818D0A522920094463368040065
:102700006344336097E701AA04213800FFF7AEFD68
:10271000274A019B9446326863449B183360002823
:1027200000D187E7040086E76B4600213800DA1CF9
:10273000FEF778FA814600282CD06B469A881B79E0
:10274000120A934001331B041B0C98466B46FA2176
:10275000DA78890053019B1A5B019B181801C01A93
:102760000002F530FF3002F03BFE4346FA215843A9
:10277000F530FF30890002F033FEA5229200944626
:10278000336863441B1833604B46002B00D14DE780
:102790004C4650E75121380001AAFDF7A7FF8146BA
:1027A000CBE7C046360B00004E020000B20200002C
:1027B00026020000F0B5C64600B50D7807000E00F1
:1027C00082B0002D1ED00024631CFF2D07D0042DE5
:1027D0001AD90420404202B080BCB846F0BDF35C78
:1027E000A21C022B43D024D8002B32D0B25C331968
:1027F000DB7812029B18B12252000434BB52355DC3
:10280000002DE1D10020E6E7F35C023498462A006F
:10281000311901A803F078FC64192B0041463800F7
:1028200001AAFDF7B9FE355D002DD4D00028CBD02C
:10283000D1E7032BCDD1B25C3319DB7812029B18A0
:10284000B42252000434BB52355D002DBCD10020AF
:10285000C1E7B25C3319DB7812029B18B022520038
:102860000434BB52355D002DAED10020B3E7B25C1D
:102870003319DB7812029B18B22252000434BB5287
:10288000355D002DA0D10020A5E7C046F0B5C646B5
:1028900000B5ACB00EAD0C0029001700FDF7D0FF5D
:1028A000EB6B0600A34207D3AB6D30001B0C3B6003
:1028B0002CB080BCB846F0BD6B6DA34230D9382235
:1028C00068461DA903F020FC019B9C422CD9029B69
:1028D0009C422BD9039B9C4224D9049B9C4227D920
:1028E000059AA2429241524205329300EB18996B2D
:1028F0009300EB18DB6B98469300EB185B6D41453A
:10290000D3D09200AD18AD6D581B4346591A090A31
:1029100002F066FD43461B1B1B0A43435B19C4E7D9
:102920002B6FC2E70322E0E70122DEE70222DCE7A9
:102930000422DAE7F0B55746DE464E464546E0B596
:102940000B6989B09A4606AB8946CC68D91D070049
:102950009346FEF71BFB002804D106ABDB79002B66
:1029600000D085E106AB3800D91DFEF70FFB80468D
:10297000002834D1802212029446002263011B1BDE
:102980009B001B19DB0063441B0C009306ABDB7937
:102990000192002B11D04B469A8ABB695343803376
:1029A0001B0A5A01D21A9200D318DB001A000193B5
:1029B000C8239B039A4200D970E186235B00FA5C2E
:1029C0001300083B591E8B4102330293009B002BDE
:1029D0000DD1B54B5A461360B6225200BB5040464B
:1029E00009B0F0BCBB46B246A946A046F0BD842360
:1029F0005B00FB588034039353019B1A5B019B18C7
:102A00001A01D31A1B021A0088235B00F958F53209
:102A10004D018C4605916D1AFA21FF320492043360
:102A2000FA5CC90053019B1A5B019B181E01F61A40
:102A30003602F536FF363000AD00654402F0D0FCBA
:102A4000FA21ED002D188900300002F0C9FC0100C8
:102A5000280002F0C5FC039BFA219C465D01ED1A9B
:102A60000600C9000498AD00654402F0B9FCFA21E3
:102A7000ED002D188900049802F0B2FC0100280036
:102A800002F0AEFCFA21029B36187343D802F530EF
:102A90008900FF3002F0A4FCFA21844B89005843DE
:102AA000F530FF3002F09CFC5346240A44435801A1
:102AB000C01A80005044C000000C0099000402F0CD
:102AC0008FFC7B4B8034984200D9DDE083001B18DB
:102AD0001D01ED1AED00240A00D1D3E063001B199B
:102AE0009B0080241A00E405A408A342FCD300261E
:102AF000A3197608934201D8D21A3619A408F7D13F
:102B00004B461B7E7600002B00D0B9E0FA22520023
:102B10009246009B67481B049A444B461B896649B2
:102B2000584302F05DFC019B8146FA215800534650
:102B30008900181A02F054FCFA2103028900504659
:102B4000009302F04DFC0100009802F049FC802344
:102B50004A4600025B021B1A5A43130080221202EB
:102B60009A1880231B029C46520C62445243920BDB
:102B700093009B189A009A1852016244120C524317
:102B800080231B02EB1880251B0C5B439B18ED0573
:102B9000AB4202D2AD08AB42FCD32A1964089A4278
:102BA00001D89B1A6419AD08F7D120046421323092
:102BB00002F016FC310002F013FC404B5843404B2E
:102BC0009C46404B604498426AD83F4902F008FC5A
:102BD00040430400059BFA219C46039EC9006644BD
:102BE000F536FF36300002F0FBFBC8235B03994645
:102BF000FA2181448900300002F0F2FB01004846CE
:102C000002F0EEFB8023DB059B089842FCD3002BEF
:102C100011D0002299185208814201D8401AD218C6
:102C20009B08F7D1FA211002F530FF30890002F03D
:102C3000D7FB404324188023DB059C4205D29B0828
:102C4000A342FCD8002B00D1C4E6EA186D08A242CA
:102C500001D8A41AED189B08F7D16B015B1B9B00F0
:102C6000114A5B19DB00934200D8B3E61300B1E6CA
:102C70004B469A8ABB69534380331B0AE41871E6BA
:102C8000124A7DE7013429E7180083001B181D0153
:102C9000ED1AED00240A00D020E7F3E701938CE65B
:102CA000E124240696E7C046AE878F02770600002F
:102CB000666666009A9906005C120000B50B00007B
:102CC000881300000F279F241027000000C409006C
:102CD000F0B557464E464546DE46E0B58BB09846C1
:102CE00002AB9E1D0023019204AF02AAD37153725E
:102CF000538133703B7009934906954B0D0FEB40A0
:102D000001221A400092002132000400FEF742F92D
:102D100033789A46002B5DD000283AD03B78002BC0
:102D200061D100239A469B460023994602AB0121BC
:102D30002000DA1DFEF72EF9002823D133785A42FD
:102D4000534152461A4313002622A3540123042D53
:102D500004D002ABDB795A425341DBB22722A354A1
:102D60003B7800205A4253415A461A431300282206
:102D7000A35402AB5B7A5A4253414A461A431300AA
:102D80002922A3540BB0F0BCBB46B246A946A046CC
:102D9000F0BD2000149905AAFFF7CCFD0028BDD195
:102DA000149B2000196909AAFFF770FD0028B5D10E
:102DB000099B149A00215381200006AAFEF7F6F819
:102DC0000022069B9246002B04D0059A93429B4119
:102DD0005B429A4600280FD03B78002B09D0002395
:102DE0009B469946A2E700239A4600239B469946B4
:102DF0009CE700239B4697E73A0002212000FEF75C
:102E0000C9F83B789B46002B3CD00028E7D1022133
:102E1000200007AAFEF7CAF800280DD0BA2202AB9C
:102E20005B8952005B02A350079A002AE1D09A42C4
:102E3000924153429B4677E70122FF212000FDF794
:102E4000FFFB0028EAD102AA94460A2363441A0031
:102E5000B6212000FDF74AFC0028DFD10022FF2127
:102E60002000FDF7EDFBBA22002102AB5B89520086
:102E70005B02A350079A8B46002A03D09A429241E4
:102E800053429B46002800D04EE702AA94460923ED
:102E900063441A0003212000FEF77CF802AA527A4C
:102EA0009146002A16D0002800D03DE743468146CF
:102EB000002B05D0019B4146180202F091FA814691
:102EC0000321200008AAFEF771F8089B99459B4151
:102ED0005B429946002800D028E7009B012B23D0B5
:102EE0000A2D18D81B4AAB00D3589F460523159AC4
:102EF0000121137002AB2000DA1DFEF74BF8002809
:102F000000D03FE733785A42534152461A431300E8
:102F10002622A3541DE75B46012B09D10323159AF2
:102F2000137003E70423E2E7159AFE331370FDE6FE
:102F3000042D09D04B46012B06D05346CB46012B1E
:102F4000D5D0D346D146D2E70223159A1370EDE6C9
:102F5000A1F00000ECAE0010F0B557464546DE4645
:102F60004E46E0B587B01700119A02930500129BF8
:102F7000002A00D172E0002201920432904604320D
:102F8000914608329246039500910724109BDD0874
:102F90001C402F2B00D9A3E040239B463E3B2A0038
:102FA0009C462900BB5C914200D182E0012018427E
:102FB00033D16046184200D08CE0022000254646FE
:102FC0001E422BD1E81C052D18D04E461E4225D19D
:102FD000281D042D12D056461E421FD1681D032DF8
:102FE0000CD020261E4219D1A81D022D06D05E4607
:102FF0001E4213D1012D01D0002B6DD10132062AC2
:10300000D0D1129B109A1A603220404207B0F0BC17
:10301000BB46B246A946A046F0BD0020D200121819
:103020001000B430304B80098000C3580099581EFE
:1030300083418B42E5D1072401231440A340029928
:10304000D0080C5C23430B54531C1093019B119A22
:1030500001330193934298D1039D129B109AB021A2
:103060001A6028000623029AFDF796FA0028CDD1AF
:1030700004AC06232200B0212800FDF7B5FA02991E
:1030800023780A789A42BFD14A7863789A42BBD1B2
:103090008A78A3789A42B7D1CA78E3789A42B3D1B2
:1030A0000A7923799A42AFD14A7963799A42ADD0AD
:1030B000AAE7234101251800DBB228420ED1601C8B
:1030C000072C9BD065461D42A8D1A01C062C95D08C
:1030D000250074E70120A1E707209FE720009DE776
:1030E0001A00129B1A608FE78C12002010B582B074
:1030F0006B460C009A1D2821FDF7F8FA00280BD129
:103100006B46DA8813051B0D120507D5054A944650
:10311000FA2263445343236002B010BDFA225343A2
:103120002360F9E700F0FFFFF0B5AE250F0089B08E
:103130006D00C02201210400465DFDF781FA0028E0
:1031400001D009B0F0BD200001A9FEF731F9002837
:10315000F7D10122FF212000FDF772FA0028F0D1FB
:103160003A00B6212000FDF7C1FA0028E9D100227B
:10317000FF212000FDF764FA0028E2D1320001218E
:103180002000FDF75DFA0028DBD16655D9E7C0467F
:10319000F0B50E00150087B00122FF210400FDF7F5
:1031A0004FFA002835D0A8210022230049006250A0
:1031B000513304316252FF330021002D11D02248D7
:1031C0008268002A0DD10027511C002F09D12C291B
:1031D00007D0B6329209920087580A00511C002F7E
:1031E000F5D005AA02922200573200912000290052
:1031F0000196FF32FFF7B0FE002808D142230122DA
:10320000FF33E2544023FF33E6540133E55407B063
:10321000F0BD00224F212000FDF712FA0028C2D194
:103220002C224E212000FDF70BFA0028BBD10022F2
:10323000FF212000FDF704FA0028B4D1B422B62102
:103240002000FDF7FDF9AEE78C120020F0B5DE4658
:1032500057464E464546E0B583B098460EAB1B78C0
:103260000E009B460FAB1B78FF219A466B46DF1D75
:103270000023914601223B700500FDF7E1F9002291
:10328000040000212800FDF7DBF900220443FF21A0
:103290002800FDF7D5F964B204435B4664B2002E02
:1032A00025D0002B31D15346002B38D10122FF21EC
:1032B0002800FDF7C5F90122002104432800FDF78D
:1032C000BFF964B20022FF2104432800FDF7B8F9DA
:1032D00010223B7864B2934320430D9A40B213709E
:1032E00003B0F0BCBB46B246A946A046F0BD002BD9
:1032F0001DD15346002BD9D043468022EE21280011
:10330000FDF74AFA044364B2D0E7CB2128000C9AB7
:10331000FDF7C8F95346044364B2002BC6D03A0007
:10332000EE212800FDF7BEF9044364B2BEE74A4629
:10333000CB212800FDF784F95346044364B2002BE7
:10334000B4D0D9E7F0B54746CE4680B51F00AE23CE
:103350005B00C35C87B0994600266B468846150023
:1033600001210122DE750400FDF76AF9002806D06C
:1033700043461E7007B0C0BCB946B046F0BD4122FE
:1033800000212000FDF75CF9002803D0002342460D
:103390001370EFE72000FEF721FA0028F6D1002194
:1033A0002000FEF717F90028F0D1002200212000AC
:1033B000FDF746F90028E9D1012F33D042461070BD
:1033C000022201212000FDF73BF9002802D0002352
:1033D0002B70CFE7012200212000FDF731F90028F2
:1033E000F5D12000FEF7FAF90028F0D100212000E5
:1033F000FEF7F0F80028EAD1002200212000FDF7B6
:103400001FF90028E3D1012F1CD028704A46012162
:103410002000FDF715F90028ACD1AE234A465B0029
:10342000E254A7E717236B440193434603900093AC
:1034300000220023012120000297FFF707FF002848
:10344000BED097E717236B4402900093002200231D
:103450000121200003970195FFF7F8FE0028D5D041
:1034600088E7C046F0B54546DE4657464E4600233F
:10347000E0B58FB0170006AA13745374B4220B93EF
:103480005200825A0E009046A82252008350043205
:103490008352543AFF21FF3A0500FDF7D1F8041E8C
:1034A00007D020000FB0F0BCBB46B246A946A046EC
:1034B000F0BD00224F212800FDF7C2F8041EF0D114
:1034C0002C224E212800FDF7BBF8041EE9D1002272
:1034D000FF212800FDF7B4F8041EE2D1B422B62182
:1034E0002800FDF7ADF8041EDBD100228021280062
:1034F000FDF7A6F8041ED4D106A98C46112200239C
:10350000280062440AA9FFF71DFF041EC9D1A823A1
:103510005B009C46AC4463460493AB235B00994636
:10352000543BFF3B9C4605339B464346A9440693C8
:1035300063460020BC46B2464F46059307950723D5
:10354000C5081840062D33D00223984602332900BF
:1035500099462A007B5C914200D1ACE001241C42D8
:1035600029D144461C4200D0C2E04C461C4200D047
:10357000BCE0002503245E461E421DD12C1D042DF7
:1035800013D010261E4217D16C1D032D0DD01036FE
:103590001E4211D1AC1D022D07D020361E420BD188
:1035A000012D02D0002B00D0A4E001310629D1D199
:1035B0003224644275E70024C80000190300B433C4
:1035C000C9499B099B00CB58002BF1D1072501234A
:1035D0000540AB40049AC408155D01302B431355D8
:1035E000059B013B0593002BA9D1069B079D0590E8
:1035F0000B909846564606238A462800B021B946C5
:103600006746FCF7C9FF041E00D04AE706230CAA50
:10361000B0212800FCF7E8FF06AB1A7EA8235B0068
:10362000EB5C04009A42C3D106AB5A7E5223FF33AF
:10363000EB5C9A42BCD106AB9A7EA9235B00EB5CA3
:103640009A42B5D106ABDA7E5423FF33EB5C9A4243
:10365000AED106AB1A7FAA235B00EB5C9A42A7D1DE
:103660005623FF33EA5C06AB5B7F9A42A0D1002869
:1036700000D016E706AA94461223634419002800D6
:10368000FFF752FD041E00D00BE706AB5B8A4345F3
:1036900046D9A82352465B00E85005990433E85206
:1036A0000B00B4339B099B00D358002B26D12B2948
:1036B00024D80131F4E7034101251C00DBB22C4280
:1036C0001AD1441C072800D16FE745461D4200D09F
:1036D00072E7841C062800D167E75D0700D56BE719
:1036E000C41C052800D160E7050044E7022463E715
:1036F000012461E707245FE704005DE70BAB029359
:10370000032392469B46019300914A4601212800DB
:10371000049BFFF721FC002800D1E7E00400C0E68D
:1037200000220692984500D8D5E06A46127E08929B
:1037300042469B1ADA179B185340099303230793B9
:10374000062204990CA802F0DFFC059BDA089346D8
:1037500007221A4094462F2B00D929E75B46220006
:103760001C006346944605934A46115DA3456BD001
:1037700001220A427AD101320A427BD1002004237D
:103780000B4223D1C21C052819D004330B421DD192
:10379000021D042813D008330B4217D1421D032801
:1037A0000DD010330B4211D1821D022807D02033D7
:1037B0000B420BD1012802D0002900D08FE0013448
:1037C000062CD1D13220404204006AE62300644630
:1037D000DB009B181A005146B432920992008A58B5
:1037E000511E8A4106998A4261D1079A0720013207
:1037F00093460122184082400498D908405C013366
:10380000024304980593425406230200B021280085
:10381000FCF7C2FE002881D106AA12239446634415
:1038200019002800FFF780FC002800D076E706ABDF
:103830005A8A4346D31AD9175B184B40424523D8BE
:103840005A46099307927BE70A00059B01201A411B
:10385000D1B2024212D15A1C072BB0D0022008422A
:10386000B4D19A1C062BAAD0180088E723000022A6
:103870006446ADE7230001226446A9E762469C4600
:10388000230014006246A3E7099A9A4212D35B46CA
:103890003360089B01223B704223FF33EA544023EC
:1038A0003268FF33EA543A780133EA54F9E5079B6A
:1038B0009B46ECE70623B0210CAA2800FCF76CFE1F
:1038C0008046062204980CA902F01EFC4346002BF9
:1038D000EDD04446E5E500239B460893D7E7230057
:1038E0000722644674E7C0468C1200200B9B06AA90
:1038F000944605931223634419002800FFF714FC33
:10390000002800D00AE706AB5B8A434502D80122B3
:10391000069207E701230893B9E7C046D0231B06A8
:103920001B68AC4A9900F0B5DE468B4651585A42A6
:1039300053412F2257464E4645465B4293439A4693
:10394000A54BE0B59C4683B000260191E2440029D6
:1039500038D0A24B99465246F30808339B009D5835
:103960000123340098460836002D22D00F21200074
:10397000294001342D09002919D04B465A469A583E
:103980000300C240203BDB171340424613420CD1D8
:1039900007220F000240920097403A00C308904F60
:1039A0003C339B00DA51019B9847002D01D0B44273
:1039B000DCD3202ECFD103B0F0BCBB46B246A94623
:1039C000A046F0BD854E5F4600210F23B346CC08CC
:1039D00022005046083292001258002A00D1D0E04E
:1039E000180010408046100913421AD05D46ED5968
:1039F000A94620256D42AC468C446546ED17AC4681
:103A00004D46CD40A94665464E46354001263542D5
:103A100004D14646724D3C34A4006651002800D1C2
:103A2000AFE01C000440A446140A03421AD0481C0C
:103A300080465846C059464681464D460800F540E6
:103A40001F38C01728400125284208D165462D019E
:103A5000AC46F0086646624D3C3080004651002C72
:103A600000D18EE0180020408446100B234211D074
:103A70008C1CA0465C46E4594646A1464D460C00C7
:103A8000F5401E3CE4172C4001252C4200D182E079
:103A9000002876D01C000440A446140C034210D029
:103AA000C81C80465846C059464681464D460800C7
:103AB000F5401D38C01728400125284275D0002C3C
:103AC0005FD0180020408046100D23420ED00C1D00
:103AD000A4466546414CE459EC40A1460C004D46D5
:103AE0001C3CE40F2C426AD000284AD01C00044041
:103AF000A446140E034218D0481D80464546374858
:103B0000C059E840814608004D461B38C00F284286
:103B100009D165462D05AC4640466646C008304D85
:103B20003C3080004651002C2BD0180020408446A9
:103B3000120F23422AD029488C1D8146C059E040EB
:103B40008046080045461A38C00F284206D1E008D2
:103B50006446234D3C30240680004451002A10D096
:103B60004846C059CC1DE0408446080065461938D7
:103B7000C00F284205D1E0083C30194C12078000E4
:103B800002510831202900D021E714E7002AF8D09B
:103B900012488146E4E765462D02AC46F4086646C5
:103BA0000F4D3C34A400665172E765462D03AC46C8
:103BB000F00866460A4D3C30800046517FE7454696
:103BC0002D04A84664464646E408054D3C34A4004E
:103BD000665189E7881D002030410140BC23002048
:103BE00000400140094A83009A1810B51468402229
:103BF000544080322240064CC000A44663441A6000
:103C0000044B9C466044416010BDC04604C0014066
:103C100004D0014000400140074B8000C3181B68DE
:103C2000C90092000A435A400C231340034A9446A9
:103C3000604403607047C04604C0014004D00140A6
:103C4000F8B545469846D0231B06DE461C689B46C1
:103C50002B4B57469A46A3004E469946E0B553462D
:103C600016004A469B5807000D00002B34D04346EF
:103C7000002B3FD053464A4641469950D0231B065D
:103C80001C6863425C412F220720634293431D4A14
:103C900038409446FA081100800085403C311A48AB
:103CA0006344890092000D509B18002E0ED0802294
:103CB00092019446634401210D201D6000F00AF931
:103CC000F0BCBB46B246A946A046F8BDC022920150
:103CD000944663441D60F3E74346002BD1D053461E
:103CE00041460D2099500022084900F055F95B46E5
:103CF0001C68C6E70D20054900F048FABAE7C0463F
:103D0000881D002030410140004001401D39001055
:103D10000123D0228340120693629361094A8300F3
:103D20009A1811684022514080320A400649C0006A
:103D30008C4663441A60054B9C46052360444360EF
:103D40007047C04604C0014004D00140004001401B
:103D50008023DB051868000F7047C0460FB400B51C
:103D6000084883B003F0E2FF049B002B07D005A9AD
:103D70001800019103F030FE034803F0D7FF012043
:103D800003F042FE24AD001034AD001070B5EFF327
:103D9000108C72B60D4D2B68002BFCD0BFF35F8FDB
:103DA0000724CB08C618C05C01230C40A3401C00AC
:103DB0000440034207D118433070BFF35F8F2C607B
:103DC0008CF3108870BD1000FFF7C8FF2C0100D0E5
:103DD000F8B54746CE46884680B5EFF3108C72B6EC
:103DE0001C4D2C68002CFCD0BFF35F8F9A4222D868
:103DF00007210126894602E00132934218D34D463D
:103E000037001540AF40D4080119045D2742F3D1B3
:103E100010003C430C70BFF35F8F00220D4B1A6003
:103E20008CF3108800280EDBC0BCB946B046F8BD44
:103E300001204042EFE7BFF35F8F00232B608CF33C
:103E40001088012040424346002BEDD00898FFF730
:103E500085FFC0462C0100D0044A1078431CDBB219
:103E6000172B00D9102313707047C0469C120020F6
:103E700010B5064B064C82B00100009318221F2398
:103E80002000FFF7A5FF02B010BDC04638AD0010FE
:103E9000981D00200021044B044ABFF35F8F02C32A
:103EA0009342FAD17047C046000100D0800100D093
:103EB000054B064A1360064A136053609360D36053
:103EC00013615361936170478080808000E400E05B
:103ED00004E400E01F2318401E3B8340002905D066
:103EE000C021044A490053501360704780220149A1
:103EF0008B50FAE700E100E001228240034B1B688F
:103F000013405A1E9341D8B27047C04600E100E00A
:103F100001238340014A13607047C04600E200E07D
:103F2000064B10309B688000C358054A00209B1A3E
:103F30002F229A424041C0B27047C04600ED00E0D7
:103F4000A012002070B50D00EFF3108672B60F4A74
:103F50001368002BFCD0BFF35F8F0D4B10309B68B4
:103F600084001B590B4A934203D09D4201D001F0BB
:103F7000E5F8074B9B681D51BFF35F8FBFF35F8F61
:103F80000022024B1A6086F3108870BD240100D015
:103F900000ED00E0C1010010F0B557464E46DE4688
:103FA0004546E0B585B0060000911700EFF3108B91
:103FB00072B66A4A1368002BFCD0BFF35F8F0025EE
:103FC000674B5D579A46002D00DAA9E06B00654CFF
:103FD00001935B199B009846A146C1444B4652464B
:103FE0009B7910361370604BB6009B6899590B1B78
:103FF0002F2B33D95D4B994200D0ACE0019B424658
:104000009C465B4B6544AD0063535A4B0232A21889
:10401000043B9B1A1B05584A5B0D651913436B80C3
:10402000564B0121AB80FF23AB71009BEF71AB605E
:104030004B460B4319004C4B9B689951BFF35F8F64
:10404000BFF35F8F0022454B1A608BF3108805B0D9
:10405000F0BCBB46B246A946A046F0BD01200A000E
:104060008243D3798C46BB4231D84546130044493C
:104070001B1B5B415943090D3D4B63533D4B0235BF
:104080006519043B5B1B1B053B4D5B0D2B43AA468F
:104090004D466B800425AC465546E044131F44440E
:1040A0001B1B1B055B0D1D434B46997100999D80A1
:1040B00099604946DF71334B01431360BBE75800F9
:1040C000C01880002018C179B9422FD902000623F8
:1040D000D356002BF3DA02932B4B61460393131D47
:1040E0009A4604235B429C46E14450464B461B1AC9
:1040F0001B055B0D9C46204B9571984663464046D8
:1041000003439380019B5A199200039BA418A38038
:10411000029B1C4AA371009B2260E771A3608AE79F
:1041200001F00CF8002553465D574FE79088029345
:104130004005131D9A46031561469C464046D444EB
:10414000634604302018181AE0230005400D1B02B6
:1041500018430390C5E700F0F1FF4FE7240100D0BA
:10416000F2230020A012002000ED00E0C1010010A9
:1041700000A1FFFFD012002000E0FFFF01BDFFFF04
:10418000AAAA00000148804701BD0000F0B5DE4644
:1041900057464E464546E0B50C0083B0EFF3108815
:1041A00072B6634A1368002BFCD0BFF35F8F614B7C
:1041B00061499A68030010339F00D55901938D42DD
:1041C00043D0A54254D05D4EAA1B2F2A3DD85C4B4C
:1041D0009B461B68994601231A009C4682404B4629
:1041E00013401F2299466346024093409A4680221C
:1041F0005B4650469850BFF35F8FEFF305839B46B5
:10420000002B37D0019B5B4501D000F097FF0123C5
:104210002A009A439068844208D176E04B005B18EC
:104220009B00F3189868844236D01A000621515634
:104230000029F3DA844254D04B46002B27D0C02209
:1042400051463F4B5200995019603A4B9B68DD51E3
:10425000BFF35F8FBFF35F8F0022354B1A6088F387
:10426000108803B0F0BCBB46B246A946A046F0BDDC
:104270000D00EAE72A0063469A4390688442D5D14C
:1042800006201056130000280ADA0D0031E08023C2
:1042900051462B4AD150D8E706201856002821DB7A
:1042A00042001118890074188B46A1689960E17961
:1042B000D971062161569971002924DBA488F11A6D
:1042C000640524155C44091909051E4C490D214358
:1042D000998013181C4A9B001178F318997110707B
:1042E000AAE713005946002914D1FF3191711749EB
:1042F000918015490A789A71154A9B1B5B415A4374
:10430000120D0A7098E71149E2E7062010561300D3
:104310000028C5DA0F4A1049D21A083A5002400D57
:10432000014399800D4952080A43DA8084E7C04668
:10433000240100D000ED00E0C1010010A012002017
:1043400000E100E000E0FFFFF223002001BDFFFFDD
:10435000AAAA0000DA12002000F0FFFF00F8FFFF19
:1043600070B501240443EFF30581EFF3108C72B6AE
:10437000214A1368002BFCD0BFF35F8F1F4B050051
:104380001F4AED1A6D416A43120D1E4D8900AE6839
:1043900052B27658A6421CD00621595691421CD0E2
:1043A00012215956914222D01E215956914220D0B5
:1043B0002A2159560324914210D0134B19781A70B0
:1043C0008171BFF35F8F00220B4B1A608CF3108852
:1043D00070BDAB680D4C5C50EFE70024610009191B
:1043E00089005B18FF21997109499980E5E701244B
:1043F000F4E70224F2E7C046240100D0A012002016
:10440000AAAA000000ED00E0F2230020C101001084
:1044100001BDFFFF10B5084B084C82B001000093AE
:10442000002205232000FFF7D3FC002801DB1F2317
:10443000181A02B010BDC04654AD0010F62300207B
:10444000024B9C4661448900016070474000003483
:1044500070B5114C114DAC420FD2FF262368002BD2
:104460000CD0FFF7F9FC01002000FFF7E9FFA68060
:10447000BFF35F8F0834AC42F0D370BDFFF7ECFCA4
:1044800001002000FFF7DCFF2671BFF35F8F0834C7
:10449000AC42E3D3F1E7C04660130020681300206C
:1044A00010B50400FFF7D8FC01002000FFF7C8FF9B
:1044B000FF232371BFF35F8F10BDC04610B504000A
:1044C0000120FFF7D5FC034BC3189B002360BFF30B
:1044D0005F8F10BD40000034034B9C46614489004F
:1044E0000160BFF35F8F7047400000340A4B1968CA
:1044F000EFF3108072B60A68002AFCD0BFF35F8F1A
:104500001B68BFF35F8F00221A6080F3108840BFE2
:10451000002000217047C046D0230020F0B5DE46C1
:1045200057464E464546E0B587B0EFF30583032274
:1045300001251A40954091008846A946B14B039247
:104540005C58B14B1D60B14B04934B46B04843637C
:104550000823E55E002D37DAA3881BB2002B00DBB1
:10456000ADE0A379002B00D0EEE00823E15E002946
:1045700020DB4B0062695B18DB00D3189E68DD68A6
:10458000731C00D10DE1A24801004144826A0B690D
:10459000B71A9B1A9F4215D30123026A03988340DE
:1045A0001A420FD09A4800F0B1FB8D4202DCCCD108
:1045B0008642CAD940BF07B0F0BCBB46B246A94646
:1045C000A046F0BD0E61EDE762696B0092465B1993
:1045D000DB009A4453469E68DF6800F097FB8F42E9
:1045E000BADC00D1FFE0002F00DAE4E05246534687
:1045F00052691B699346049A934200D1D5E0524612
:104600000821605E52880004594610439847009084
:1046100001910099019A0B001000134300D1CAE0E8
:1046200013000A00B61A9F41002806DB784800F004
:104630006DFB009E019F36184F4153469E60DF6020
:1046400000229A5E002A00DA86E753009918606912
:10465000C900411802938B68C9689B46B94200DDC6
:104660007AE702D1B34200D976E708239C46A444F6
:10467000059565462281A446029B2C0006E0530066
:104680009918C90041188D68C968AB469B18DB00B2
:10469000C318B94206DC00D1AFE01C000023E25E83
:1046A000002AECDA230064469C4653461A8063468F
:1046B000059D1D80A3881BB2002B00DA51E72269FB
:1046C000EFF3108172B61368002BFCD0BFF35F8F3D
:1046D0000123A7885B42A3803FB22369BFF35F8FAA
:1046E00000221A6081F31088002F00DA39E72300D6
:1046F000083322009A4666697B00DB19DB00F31859
:10470000996850468C460824115FDD68002910DB4B
:10471000029306E0AB4240D00023E15E2000002976
:1047200006DB4C006418E4003419E368AB42F1DDA9
:10473000029B078000201F5E1980002FDCDA140026
:10474000A379002B00D110E70023A37126000823D2
:10475000E15E08364B1C00D12CE7B446656903E0E6
:1047600084464B1C00D100E74B005B18DB00E818C7
:104770000A00E95E43881BB2002BF1DA012676427B
:10478000F7178660C7600826A35F9342E9D06346A7
:104790001980238903802281E3E7A3686345BBD99D
:1047A000C6E76B1C00D0EEE6FCE65B4658461B698C
:1047B000984700281BD153461B8822692381EFF3B9
:1047C000108372B611680029FCD0BFF35F8F514689
:1047D00062880A8022696580BFF35F8F00211160C3
:1047E00083F31088B8E6864200D8FCE6B4E65B4660
:1047F0001A685B68009201930BE7B34500D84CE759
:1048000050E7C046AC2300203C7005401D45001019
:104810000040054070B52E4C2569002D04D00A21BA
:104820002C48FFF70DFE70BD2B4E0321300000F029
:1048300063FAE660FFF710FB284B03229C46D02367
:1048400022701B061B6801216370254B6044A36026
:104850000F23800020610220638063694942A180A8
:1048600019800231198647311D83585218315A5226
:1048700075325C399952183201319952183201312E
:104880009952183201319952083518329D5202312D
:104890001832995218320131995218320131995215
:1048A00018320131995218320131995218320131BE
:1048B00099520C4B0C49DC6001303562FFF742FB2A
:1048C00001210320FFF706FB084B1D60A7E7C04648
:1048D000E8120020D02300200040054040000034B2
:1048E000FFFF1000AC2300201D450010386005407C
:1048F00000487047E8120020F8B51F0008AB1B788D
:1049000004001600002B08D100F008FA32003B002A
:10491000121A8B41002B00DA52E02269EFF310806B
:1049200072B61368002BFCD0BFF35F8F0223E15EE9
:1049300063694A005218D2009B182269002936DBAD
:104940001D886580BFF35F8F0025156080F3108898
:10495000069A9E60DF601A61079A5A615A8801328E
:104960005204520C101C002A1FD082B25880080436
:1049700010432669EFF3108772B63268002AFCD024
:10498000BFF35F8FA2881A80A1802369BFF35F8F76
:1049900000221A6087F310880A4923788C46013276
:1049A0009A40E36863441A60F8BD0120DDE7BFF375
:1049B0005F8F0023136080F3108801204042F3E7EB
:1049C0000020F1E73C20000070B501000469EFF31E
:1049D000108C72B620680028FCD0BFF35F8F0220D5
:1049E0000D5E4C6968004019C00024180869002D4C
:1049F00036DB26884E80BFF35F8F002606608CF37F
:104A00001088E36063880498013320615B04059893
:104A10005B0CA26060611A1C002B1FD093B22804AB
:104A2000628018430A69EFF3108C72B61368002B8A
:104A3000FCD0BFF35F8F8B8823808D800B69BFF321
:104A40005F8F00221A608CF310880B7801329A4035
:104A5000CB6808498C4663441A6070BD0122DDE7CB
:104A6000BFF35F8F002303608CF310880120404266
:104A7000F3E7C0463C20000010B543890A14934276
:104A80001ADD53009B184269DB00D3180469EFF369
:104A9000108C72B62268002AFCD0BFF35F8F5A8850
:104AA000090494B2090C8A4208D00369BFF35F8FEE
:104AB00000221A608CF31088002010BD80221202A0
:104AC00014435C80012302698371BFF35F8F00216F
:104AD00011608CF31088044902788C469340C268B8
:104AE000012062441360E8E73C20000040787047F2
:104AF000F0B5C64600B582B0040000F00FF9FA2206
:104B000006000F00200000230021920001F08CFA23
:104B10008019794104000D1E02DA01242E4D6442F1
:104B200006267642F71736196F41AF4214D811D0D6
:104B300000F0F4F832003B00121A8B41002B15DC18
:104B4000002B46D02000290000F0F2F802B080BC13
:104B5000B846F0BDA642EBD90026002700F0DEF8EB
:104B600032003B00121A8B41002BE9DD00F0D6F831
:104B700032003B00121A8B41002B0ADB0023019309
:104B8000164B3200009316483B00FFF71DFF013023
:104B9000D8D000233900B0469C46124A1248536AC6
:104BA000994204D8966A4645CCD29942CAD1066841
:104BB000EFF3108772B63368002BFCD0BFF35F8F22
:104BC0000368BFF35F8F66461E6087F3108820BFBF
:104BD000E5E7002AB6D0C9E7FFFFFF7FED440010EC
:104BE000E812002000400540D0230020F0B55746D1
:104BF0004E46DE464546E0B506000F0085B0EFF3B1
:104C0000058399468B46002B12D0384900204B6A09
:104C1000BB4206D38A6ADB1B591E8B41B24240411C
:104C2000184305B0F0BCBB46B246A946A046F0BD4D
:104C30002F4B9A46DB68984653461B7840460393B1
:104C400000F064F84246039B040004339B009B5829
:104C50000D001B1A39003000001BA941894510DCEA
:104C60000DD020BF214A0020536A5B45D9D3926AF8
:104C7000DB1B591E8B41B24240411843D1E78342AE
:104C8000EFD900F04BF832003B00121A8B41002B99
:104C90001ADB00230193174B3200009350463B0070
:104CA000FFF792FE011E0FDD104B5A6A5A451BD3C7
:104CB0009B6AB34216D35046FFF7DEFE0B4A002034
:104CC000536A5B45ADD3D2E7084A0020536A5B457F
:104CD000A7D30020926ADB1BB24240415A1E934187
:104CE00018439EE75A45E6D120BFE4E7004005405F
:104CF000E8120020ED44001010B5024A0248FFF708
:104D000045F810BD70AD00109C1D00200300416AE5
:104D10000A00986A596A8A42FAD17047034B596A65
:104D20000A00986A596A9142FAD1704700400540DA
:104D3000064A536A9942FCD807D1044B02E05A6AEA
:104D4000914202D19A6A9042F9D8704700400540DA
:104D5000F8B5DE464E4657464546E0B58B4605005B
:104D60000A991800160000F03BFB0A9B6C001F021A
:104D7000324B64199C46A4006444636881469F4298
:104D800000D967602B1FDBB29846012B30D9C023B6
:104D900080229B01E31812011A60294BAD0059597A
:104DA0009A4600291BD17301E026226853401E4019
:104DB000802342465B01E3181E60012A30D980231C
:104DC00080229B01E31812011A6053464A4667602D
:104DD0005A51F0BCBB46B246A946A046F8BD586938
:104DE00000F0FEFA013043001B18033BFDD2DAE766
:104DF0005B46012BCBD1C02303229B01E3181A6031
:104E0000023AA3681A42FCD07301E0262268AD0082
:104E100053401E4080230A4A5B019246E3181E60FD
:104E20005A462168514003220A401A6001225B461B
:104E30009A40A3681A42FCD0C1E7C04600800040F7
:104E4000A01D0020F0B546464F46D646C0B51F000F
:104E5000344B44009C462418A4006444636888468C
:104E60001600FF2B02D880235B006360031FDBB2B8
:104E70009A46012B30D9C02380229B01E3181201EE
:104E80001A60294B85005959994600291BD1730195
:104E9000E026226853401E40802352465B01E318FF
:104EA0001E60012A30D9802380229B01E318120161
:104EB0001A6080235B0063604B465F51E0BCBA46DA
:104EC000B146A846F0BD586900F08AFA01304300A7
:104ED0001B18033BFDD2DAE74346012BCBD1C0239D
:104EE00003229B01E3181A60023AA3681A42FCD01D
:104EF0007301E0262268850053401E4080230A4A41
:104F00005B019146E3181E6042462168514003222E
:104F10000A401A60012342469340A2681342FCD023
:104F2000C1E7C04600800040A01D0020014B80006A
:104F3000C0587047A01D0020F8B5040021481E008D
:104F400017000D0000F04CFA0100380000F048FA9C
:104F5000069B36041B031E432368002B20DB1A4BE1
:104F60001A49E3185A1E93418022920194465B42EB
:104F70001B0B174A1B0363441360164A13601F0080
:104F80000A689743FBD1144B2560E2182123A060E7
:104F900013602368002BFCDA0823E6601360F8BD79
:104FA0003F2322681340AB42D9D1A3681B051B0DD8
:104FB0008342D4D1EE22E368D2021340B342CED171
:104FC000EDE7C046001BB7000040FDBF08C0004031
:104FD00000E0004000F000400430000010B58024E4
:104FE0001C4BE4051C6000281AD001231A4C1843FE
:104FF0001A4BDC611A4C44401C6259629862802151
:10500000144BC9051960174817490860E021C90405
:105010001960002A07D18022144B12061A6010BDB5
:105020000E4BD861EBE753019B1A9B009A18802323
:1050300012015B049A4209D213000D490B60074B21
:105040005A608022094BD2051A60E8E7094B1A0022
:10505000F3E7C04600B00540D3C007B0008005406C
:105060002D3FF84FFCFF01000820014000A0054043
:1050700084230020FFFFFF008023024A9B000B4394
:10508000D362704700800540002310B50100988A64
:105090001B8B984710BDC046162310B50100188819
:1050A00002331B88984710BDF8B54746CE4680B5F9
:1050B0000F1E18D01423994604330400002501263E
:1050C00098464B461888434621681B88984701C478
:1050D000431E984101350640AF42F2D13000C0BCBA
:1050E000B946B046F8BD0126F8E7C046002370B5C2
:1050F00004000D00988A05491B8B98470300002087
:10510000002C01DB0130A0402900984755420000E7
:10511000AA23064A1B0113608D235B00D360044958
:10512000044B19605368002BFCDA704700400240C2
:1051300000B0FA00006002407047C04610B5014858
:10514000FEF70CFE94AD001070B5074D074EB5424A
:1051500009D20024013E761BB60808CD98472300EB
:105160000134B342F9D170BDE0AA00101CAB0010AD
:10517000054B064A06491A60064A074B1A6010009A
:105180000B689843FBD1704700E00040BFCDFBFEA9
:1051900008C00040FE7F3C0000F00040044BDB6C88
:1051A000002B03D18022034BD2021A607047C04605
:1051B000000011504C201150044A054B1A60054A5A
:1051C0001368DB018033FBD17047C046FFFFFF014E
:1051D00000F0004008C000404022034B9A675A6725
:1051E0001A67DA667047C04600F0014010B5FEF756
:1051F00051FE10BDF8B52749274C284D641AA6105A
:105200003200302E00D930222800920000F07CFFBE
:10521000BC2C3BD830202F232C196407204A801B3C
:10522000E40F9B1B052B16D93700002C02D0B300CE
:10523000771CEA50001B33199B004108EB18C9008A
:10524000C9181A605A6008339942FAD101230342FF
:105250001CD09843C619B300EA50731C2F2E15D0EA
:105260009B00EA50B31C2E2E10D09B00EA50F31C7A
:105270002D2E0BD09B00EA50331D2C2E06D09B0008
:10528000EA50731D2B2E01D09B00EA50054B9D6008
:10529000F8BDC04600010010C00100100000002051
:1052A000C101001000ED00E0002310B5294C82B0D0
:1052B000A367FFF72DFF0122274B1A60636C012BB8
:1052C000FCD10322254B1A60224A936B012BFCD19F
:1052D000013300930121224A22480433FFF72CFEB8
:1052E000052301210093204A2048FFF725FE0022D4
:1052F000022104201E4BFFF7A5FD002201210520FD
:105300001C4BFFF79FFD0022002107201A4BFFF7DF
:1053100099FD002200210820174BFFF793FD802301
:10532000DB000093002200210920134BFFF710FD42
:105330000022104B00210620FFF784FD0420FFF718
:10534000F5FD0E4900F04CF801000020FFF794FE37
:1053500002B010BD008000403CB0004030B00040C2
:10536000002F685900800240008C864700C0024030
:10537000001BB70040597307006CDC0240420F006D
:1053800001480421014B184700130020A9500010C8
:10539000124A936F9B0815D29066D166002905D0FA
:1053A000FFE7FFE7FFE7516F106F704704B58021FB
:1053B0000906C2175140002800D0C84305F050FB31
:1053C000002104BDF0B5146E556E576F166FFFF7D0
:1053D000E3FF1466556657671667F0BD000000D0FE
:1053E000114A936F9B0813D210665166002905D0AD
:1053F000FFE7FFE7FFE7516F106F704704B5002824
:1054000001D00020C04305F02BFB002104BDC046A5
:10541000F0B5146E556E576F166FFFF7E5FF146603
:10542000556657671667F0BD000000D094464A4A9B
:10543000926F9208624601D228E0C046F0B5464E0F
:10544000346E756E776F366F00F020F89446424ADE
:1054500014665566576716676246F0BD94463E4A25
:10546000926F9208624601D254E0C046F0B53A4EBF
:10547000346E756E776F366F00F04CF89446364A8E
:1054800014665566576716676246F0BD002B24DB2D
:1054900011D000293EDA00B5C943404200D10131A4
:1054A00000F038F8C943404200D10131DB43524299
:1054B00000D1013300BD002AEBD1002801D1002921
:1054C00005D00020C90FC90701D1C043410800B56C
:1054D00005F0B6FA0022002300BD00B500290ADB62
:1054E000DB43524200D1013300F014F8C94340427B
:1054F00000D1013100BDC943404200D10131DB433D
:10550000524200D1013300F005F8DB43524200D192
:10551000013300BD002923D1002B18D1002A0CD063
:10552000BC460D4F38667A6600210023FFE7FFE78F
:10553000FFE77A6F386F67467047002801D0074849
:10554000010000B505F07CFA0022002300BD020036
:105550000B00002000217047000000D0FFFFFFFF7C
:10556000002B00D0BFE0130C28D1002AE7D080B474
:10557000114F39667A66FFE7FFE730B4040C7B6FA2
:10558000396F1B0423433B667A66FFE7FFE7FFE7BB
:10559000C04684B27B6F3D6F1B0423433B667A6633
:1055A000FFE7FFE7C04600232C042D0C7A6F386F0D
:1055B00000196941B0BC7047000000D0F0B59446B6
:1055C0000025140E01D112020835140F01D1120169
:1055D0000435940F01D192000235D40F01D152004D
:1055E0000135D40B0134254F7C66254C3C660E0CEE
:1055F00093B2FFE7FFE7FFE73C6F6643360C7703A4
:10560000BE467343DF0B5B04C01AB941130C7343EE
:10561000DB18C91ACE086643360CB64493B27343FE
:105620001F0F1B01C01AB941130C73431F0B1B053D
:10563000C01AB941860D8F023E436643360C092DD0
:1056400024DB520A7243801A7703460A6643360CFB
:1056500016235B1BDE40DF40BF1964466643821B96
:105660007046043506330100D940A840C01900D364
:105670000131A24206D20023F0BD0000000000D09C
:10568000FFFFFFFF121B0130F3D3F1E709277F1B58
:10569000FE406446A2B27243801A00D20139220C45
:1056A0007243130C1204821A99410B0070460435A0
:1056B00013370100F940A840801900D30131002BB5
:1056C00002D1A2420AD2F0BD013000D30131121B37
:1056D000FAD2013BF8D1A24200D2F0BD013000D392
:1056E0000131121BF7E7F0B51C0C00D080E00CB4C0
:1056F00000251C0A04D11B02160E33431202083582
:105700001C0B04D11B01160F3343120104359C0BF3
:1057100004D19B00960F334392000235DC0B02D17B
:1057200092185B4101351C00971864410134464FC3
:105730007C66464C3C660E0CFFE7FFE7FFE7C04681
:105740003C6F6643360C7703BE4697B27743C01B67
:1057500000D20139C01B00D201399FB27743C91B67
:10576000C91B170C77437E04FF0B801BB941CE0881
:105770006643360C0C2D33DBB644120B1F053A433F
:105780001B0B97B27743C01B00D201399FB27743FE
:10579000C91B170C77433E043F0C801BB941860D93
:1057A0008F023E43664329277F1BFE400C3D774610
:1057B000AF40BF1930BCA2B2ABB272437343801A80
:1057C0009941220C7243130C1204801A9941020071
:1057D0000B000137001BA941F9D2781E0021F0BD52
:1057E0000C277F1BFE4077467F0BAF40FF19E0E799
:1057F00000245D1C07D0144F7D663966FFE7FFE784
:10580000FFE7FFE73C6F95B29EB265436643401BDE
:10581000B141150C1E0C6543664336042F0C3E4304
:105820002D04401BB141994204D202000B0020001C
:105830000021F0BD01D19042F7D3801A9941013483
:105840009942F2D3F6E70000000000D0FFFFFFFF0F
:1058500048404140484018B41B4B5B68FC460193EC
:1058600008BD04DFFB5A001018B4174B1B68FC4638
:10587000019308BD00DF055B00109446134A926F48
:10588000920809D2624618B40F4BDB68FC460193BC
:1058900008BD0CDFBD5D00100C4AF0B5146E556EEE
:1058A000576F166F6246FFF7EEFF084A146655669B
:1058B00057671667F0BD18B4034B9B68FC4601930D
:1058C00008BD08DF615C0010F0140020000000D06B
:1058D000FFB550404240504059404B40594000E0D5
:1058E000FFB5154F4C00640D03D0BC4204D10C032E
:1058F00014D80020090D09055C00640D03D0BC42DA
:1059000004D11C030AD800221B0D1B0501264B40A5
:1059100009D44B4003D58B4200D18242FFBD99424E
:10592000FCD19042FFBD0B43DB1803431343F5D07A
:10593000C9434918FFBD0000FF07000000B5FFF78D
:10594000CFFF804100BDC04600B5FFF7C9FF01D9B8
:10595000002000BD012000BD00B5FFF7B9FF01D94F
:10596000002000BD012000BD00B5FFF7B1FF804160
:1059700000BD012040054A00121804D85A00121830
:1059800001D8002070470120704700000021002846
:1059900005D17047C1174840401AFAD0C90713B55E
:1059A000064B1B6898470CBC441CA2401005120B08
:1059B0000349091B09051943114310BDCC230020DD
:1059C0001F04000010B54C00620D8023D218DB00CC
:1059D000D21A5B057E2A10DD9E3A13DACC17090332
:1059E000490819435242D140640001341532202A3B
:1059F00005DAD0400843604310BD002010BD0846C2
:105A0000604310BDC80FC018013810BD18B4044B56
:105A10005B6AFC46019308BD24DF6D5F0010000047
:105A2000F0140020132370B51D78012D19D014DD5A
:105A30001F48FFF731FB06001E48FFF72DFB1E4CE9
:105A400080223100200000F05FFB022D2DD01B488A
:105A5000FFF71AFB1A4B186070BD1A4B164CA36463
:105A6000F5E7184B144C23606360A360E360236187
:105A70006361A361E36123626362A362E362236300
:105A80006363A363E36323646364A364E3642365E0
:105A90006365A365E36523666366A366E3662367C0
:105AA0006367A367E367A364D1E7064BA364CEE70C
:105AB0005344000053460000F01400204C33000013
:105AC000CC230020C95A001007B5604601880A0A95
:105AD0000230DF2AFAD1C9B2820804D30288408892
